:020000040800F2
:100000000050002071040008A9030008AF03000895
:10001000B5030008BB030008C1030008000000008E
:10002000000000000000000000000000C7030008FE
:10003000D303000800000000DF030008EB03000802
:10004000B9040008B9040008B9040008B90400089C
:10005000B9040008B9040008B9040008B90400088C
:10006000B9040008B9040008B9040008B90400087C
:10007000B9040008B9040008B9040008B90400086C
:10008000B9040008B9040008B9040008B90400085C
:10009000B9040008B9040008B9040008B90400084C
:1000A000B9040008B9040008B9040008B90400083C
:1000B000B9040008B9040008B9040008B90400082C
:1000C000B9040008B9040008B9040008B90400081C
:1000D000B9040008B9040008B9040008B90400080C
:1000E000B9040008B9040008B904000800000000C1
:1000F0000000000000000000000000000000000000
:0C01000000000000000000005FF808F1A3
:10010C0010B5054C237833B9044B13B10448AFF345
:10011C0000800123237010BD5C0000200000000053
:10012C00BC1F000808B5034B1BB103490348AFF3D0
:10013C00008008BD0000000060000020BC1F00080B
:10014C0080B58AB000AF00237B6007F108031F2243
:10015C000021184601F09AFA002387F8273000F0A6
:10016C00A7F900F01FF800F083F800F057F897F8A3
:10017C0027203B1D0949184601F068FA391D6423F4
:10018C002322074801F0E2F84FF4FA7000F0F2F97C
:10019C0097F82730013387F82730E8E7D41F000899
:1001AC007800002080B590B000AF07F1180328222A
:1001BC000021184601F06AFA3B1D00221A605A60B1
:1001CC009A60DA601A610223BB610123BB621023BF
:1001DC00FB6200237B6307F11803184600F056FC02
:1001EC000346002B01D000F065F80F237B60002341
:1001FC00BB600023FB6000233B6100237B613B1D44
:10020C000021184600F0C4FE0346002B01D000F07C
:10021C0051F800BF4037BD4680BD000080B500AF2F
:10022C00114B124A1A60104B4FF416525A600E4B77
:10023C0000229A600C4B0022DA600B4B00221A61F0
:10024C00094B0C225A61084B00229A61064B002282
:10025C00DA61054801F02AF80346002B01D000F0C2
:10026C0029F800BF80BD00BF780000200038014095
:10027C0080B483B000AF0E4B9B690D4A43F0200352
:10028C0093610B4B9B6903F020037B607B68084BED
:10029C009B69074A43F004039361054B9B6903F088
:1002AC0004033B603B6800BF0C37BD4680BC704705
:1002BC000010024080B400AF72B600BFFEE7000031
:1002CC0080B483B000AF0E4B9B690D4A43F0010321
:1002DC0093610B4B9B6903F001037B607B68084BBC
:1002EC00DB69074A43F08053D361054BDB6903F0AC
:1002FC0080533B603B6800BF0C37BD4680BC7047E9
:10030C000010024080B588B000AF786007F1100390
:10031C0000221A605A609A60DA607B681B681C4A7B
:10032C00934231D11B4B9B691A4A43F4804393612E
:10033C00184B9B6903F48043FB60FB68154B9B696E
:10034C00144A43F004039361124B9B6903F00403BA
:10035C00BB60BB684FF400733B6102237B610323DA
:10036C00FB6107F1100319460B4800F00BFA4FF430
:10037C0080633B6100237B610023BB6107F11003A9
:10038C001946054800F0FEF900BF2037BD4680BD78
:10039C0000380140001002400008014080B400AF5A
:1003AC00FEE780B400AFFEE780B400AFFEE780B498
:1003BC0000AFFEE780B400AFFEE780B400AF00BF33
:1003CC00BD4680BC704780B400AF00BFBD4680BC4A
:1003DC00704780B400AF00BFBD4680BC704780B58D
:1003EC0000AF00F0ABF800BF80BD000080B586B058
:1003FC0000AF7860144A154BD31A7B617B693B6163
:10040C00134B1B68002B02D1114B124A1A60104B74
:10041C001A687B6813443A699A4207D201F03EF994
:10042C0003460C221A604FF0FF3309E0084B1B689F
:10043C00FB60074B1A687B681344054A1360FB6822
:10044C0018461837BD4680BD00500020000400003F
:10045C00C00000201002002080B400AF00BFBD46D9
:10046C0080BC7047FFF7F8FF0B480C490C4A00237F
:10047C0002E0D458C4500433C4188C42F9D3094A4E
:10048C00094C002301E013600432A242FBD301F0BB
:10049C000BF9FFF755FE7047000000205C000020B0
:1004AC005C2000085C00002010020020FEE7000029
:1004BC0080B500AF084B1B68074A43F0100313606C
:1004CC00032000F02BF90F2000F008F8FFF7F8FEDE
:1004DC000023184680BD00BF0020024080B582B0CA
:1004EC0000AF7860124B1A68124B1B7819464FF408
:1004FC007A73B3FBF1F3B2FBF3F3184600F035F962
:10050C000346002B01D001230EE07B680F2B0AD889
:10051C00002279684FF0FF3000F00BF9064A7B6837
:10052C001360002300E0012318460837BD4680BD48
:10053C0000000020080000200400002080B400AF60
:10054C00054B1B781A46054B1B681344034A136072
:10055C0000BFBD4680BC704708000020C4000020CE
:10056C0080B400AF024B1B681846BD4680BC704778
:10057C00C400002080B584B000AF7860FFF7F0FFB6
:10058C00B8607B68FB60FB68B3F1FF3F05D00A4B9A
:10059C001B781A46FB681344FB6000BFFFF7E0FFB3
:1005AC000246BB68D31AFA689A42F7D800BF00BF5C
:1005BC001037BD4680BD00BF0800002080B485B058
:1005CC0000AF78607B6803F00703FB600C4BDB68C3
:1005DC00BB60BA684FF6FF031340BB60FB681A029E
:1005EC00BB68134343F0BF6343F40033BB60044A5E
:1005FC00BB68D36000BF1437BD4680BC704700BFDA
:10060C0000ED00E080B400AF044BDB681B0A03F084
:10061C0007031846BD4680BC704700BF00ED00E0E4
:10062C0080B483B000AF03463960FB7197F9073093
:10063C00002B0ADB3B68DAB20C4997F90730120140
:10064C00D2B20B4483F800230AE03B68DAB20849C3
:10065C00FB7903F00F03043B1201D2B20B441A7660
:10066C0000BF0C37BD4680BC704700BF00E100E006
:10067C0000ED00E080B489B000AFF860B9607A603A
:10068C00FB6803F00703FB61FB69C3F10703042B51
:10069C0028BF0423BB61FB690433062B02D9FB6919
:1006AC00033B00E000237B614FF0FF32BB6902FA91
:1006BC0003F3DA43BB681A407B699A404FF0FF3171
:1006CC007B6901FA03F3D9437B680B40134318464B
:1006DC002437BD4680BC704780B582B000AF7860CF
:1006EC007B68013BB3F1807F01D301230FE00A4A01
:1006FC007B68013B53600F214FF0FF30FFF790FFF9
:10070C00054B00229A60044B07221A6000231846FE
:10071C000837BD4680BD00BF10E000E080B582B058
:10072C0000AF78607868FFF749FF00BF0837BD4617
:10073C0080BD80B586B000AF0346B9607A60FB73AC
:10074C0000237B61FFF75EFF78617A68B96878698E
:10075C00FFF790FF024697F90F3011461846FFF746
:10076C005FFF00BF1837BD4680BD80B582B000AFBB
:10077C0078607868FFF7B0FF034618460837BD4627
:10078C0080BD000080B48BB000AF7860396000236E
:10079C007B6200233B6269E101227B6A02FA03F36C
:1007AC00FB613B681B68FA691340BB61BA69FB6962
:1007BC009A4240F058813B685B689A4A93425ED0FB
:1007CC00984A934275D8984A934258D0964A934285
:1007DC006FD8964A934252D0944A934269D8944A1D
:1007EC0093424CD0924A934263D8924A934246D059
:1007FC00904A93425DD8122B2AD8122B59D801A2B9
:10080C0052F823F08B0800086508000877080008E8
:10081C00B9080008BF080008BF080008BF08000896
:10082C00BF080008BF080008BF080008BF08000880
:10083C00BF080008BF080008BF080008BF08000870
:10084C00BF080008BF0800086D08000881080008F0
:10085C00794A934213D02CE03B68DB683B6229E079
:10086C003B68DB6804333B6224E03B68DB6808339D
:10087C003B621FE03B68DB680C333B621AE03B6871
:10088C009B68002B02D104233B6213E03B689B68FE
:10089C00012B05D108233B627B68FA691A6109E0D8
:1008AC0008233B627B68FA695A6103E000233B62D0
:1008BC0000E000BFBB69FF2B01D87B6801E07B68BF
:1008CC0004337B61BB69FF2B02D87B6A9B0002E07F
:1008DC007B6A083B9B003B617B691A680F213B6973
:1008EC0001FA03F3DB431A40396A3B6901FA03F35B
:1008FC001A437B691A603B685B6803F08053002BDA
:10090C0000F0B1804D4B9B694C4A43F0010393615D
:10091C004A4B9B6903F00103BB60BB68484A7B6A86
:10092C009B08023352F82330FB607B6A03F003030D
:10093C009B000F2202FA03F3DB43FA681340FB60BF
:10094C007B68404A934213D07B683F4A93420DD058
:10095C007B683E4A934207D07B683D4A934201D163
:10096C00032306E0042304E0022302E0012300E059
:10097C0000237A6A02F0030292009340FA68134350
:10098C00FB602F497B6A9B080233FA6841F82320ED
:10099C003B685B6803F48013002B06D02D4B9A68E0
:1009AC002C49BB6913438B6006E02A4B9A68BB69E0
:1009BC00DB43284913408B603B685B6803F40013EE
:1009CC00002B06D0234BDA682249BB691343CB605A
:1009DC0006E0204BDA68BB69DB431E491340CB6051
:1009EC003B685B6803F40033002B06D0194B5A6844
:1009FC001849BB6913434B6006E0164B5A68BB6938
:100A0C00DB43144913404B603B685B6803F4803351
:100A1C00002B21D00F4B1A680E49BB6913430B6096
:100A2C0021E000BF00003210000031100000221045
:100A3C0000002110000012100000111000100240E4
:100A4C000000014000080140000C01400010014072
:100A5C0000140140000401400B4B1A68BB69DB43D6
:100A6C00094913400B607B6A01337B623B681A684F
:100A7C007B6A22FA03F3002B7FF48EAE00BF00BF1B
:100A8C002C37BD4680BC70470004014080B586B051
:100A9C0000AF78607B68002B01D1012372E27B6888
:100AAC001B6803F00103002B00F08780924B5B68FE
:100ABC0003F00C03042B0CD08F4B5B6803F00C037E
:100ACC00082B12D18C4B5B6803F48033B3F5803F59
:100ADC000BD1894B1B6803F40033002B6CD07B6863
:100AEC005B68002B68D101234CE27B685B68B3F533
:100AFC00803F06D1804B1B687F4A43F480331360E0
:100B0C002EE07B685B68002B0CD17B4B1B687A4A10
:100B1C0023F480331360784B1B68774A23F48023CB
:100B2C0013601DE07B685B68B3F5A02F0CD1724B92
:100B3C001B68714A43F4802313606F4B1B686E4A29
:100B4C0043F4803313600BE06B4B1B686A4A23F44D
:100B5C0080331360684B1B68674A23F4802313604F
:100B6C007B685B68002B13D0FFF7FAFC386108E058
:100B7C00FFF7F6FC02463B69D31A642B01D9032319
:100B8C0000E25D4B1B6803F40033002BF0D014E043
:100B9C00FFF7E6FC386108E0FFF7E2FC02463B6930
:100BAC00D31A642B01D90323ECE1534B1B6803F4D8
:100BBC000033002BF0D100E000BF7B681B6803F012
:100BCC000203002B63D04C4B5B6803F00C03002B2F
:100BDC000BD0494B5B6803F00C03082B1CD1464B24
:100BEC005B6803F48033002B16D1434B1B6803F076
:100BFC000203002B05D07B681B69012B01D001235C
:100C0C00C0E13D4B1B6823F0F8027B685B69DB009D
:100C1C00394913430B603AE07B681B69002B20D0E9
:100C2C00364B01221A60FFF79BFC386108E0FFF796
:100C3C0097FC02463B69D31A022B01D90323A1E18D
:100C4C002D4B1B6803F00203002BF0D02A4B1B68C2
:100C5C0023F0F8027B685B69DB00274913430B60C8
:100C6C0015E0264B00221A60FFF77AFC386108E089
:100C7C00FFF776FC02463B69D31A022B01D90323FA
:100C8C0080E11D4B1B6803F00203002BF0D17B6845
:100C9C001B6803F00803002B3AD07B689B69002B80
:100CAC0019D0174B01221A60FFF75AFC386108E083
:100CBC00FFF756FC02463B69D31A022B01D90323DA
:100CCC0060E10D4B5B6A03F00203002BF0D00120B6
:100CDC0000F0CEFA1CE00A4B00221A60FFF740FC31
:100CEC0038610FE0FFF73CFC02463B69D31A022B3C
:100CFC0008D9032346E100BF001002400000424225
:100D0C0080044242924B5B6A03F00203002BE9D150
:100D1C007B681B6803F00403002B00F0A680002303
:100D2C00FB758B4BDB6903F08053002B0DD1884B8B
:100D3C00DB69874A43F08053D361854BDB6903F051
:100D4C008053BB60BB680123FB75824B1B6803F4AB
:100D5C008073002B18D17F4B1B687E4A43F4807341
:100D6C001360FFF7FDFB386108E0FFF7F9FB024663
:100D7C003B69D31A642B01D9032303E1754B1B6820
:100D8C0003F48073002BF0D07B68DB68012B06D159
:100D9C006F4B1B6A6E4A43F0010313622DE07B68B4
:100DAC00DB68002B0CD16A4B1B6A694A23F00103E8
:100DBC001362674B1B6A664A23F0040313621CE040
:100DCC007B68DB68052B0CD1614B1B6A604A43F0D6
:100DDC00040313625E4B1B6A5D4A43F0010313620A
:100DEC000BE05B4B1B6A5A4A23F001031362584B0E
:100DFC001B6A574A23F0040313627B68DB68002BE1
:100E0C0015D0FFF7ADFB38610AE0FFF7A9FB0246EE
:100E1C003B69D31A41F28832934201D90323B1E0E2
:100E2C004B4B1B6A03F00203002BEED014E0FFF7D0
:100E3C0097FB38610AE0FFF793FB02463B69D31A34
:100E4C0041F28832934201D903239BE0404B1B6A49
:100E5C0003F00203002BEED1FB7D012B05D13C4BA3
:100E6C00DB693B4A23F08053D3617B68DB69002B41
:100E7C0000F08780364B5B6803F00C03082B61D0C5
:100E8C007B68DB69022B46D1334B00221A60FFF7DB
:100E9C0067FB386108E0FFF763FB02463B69D31A36
:100EAC00022B01D903236DE0294B1B6803F000735F
:100EBC00002BF0D17B681B6AB3F5803F08D1244B23
:100ECC005B6823F400327B689B68214913434B60B9
:100EDC001F4B5B6823F474127B68196A7B685B6A2E
:100EEC000B431B4913434B601B4B01221A60FFF74A
:100EFC0037FB386108E0FFF733FB02463B69D31A36
:100F0C00022B01D903233DE0114B1B6803F0007346
:100F1C00002BF0D035E0104B00221A60FFF720FBBD
:100F2C00386108E0FFF71CFB02463B69D31A022B21
:100F3C0001D9032326E0064B1B6803F00073002B3A
:100F4C00F0D11EE07B68DB69012B07D1012319E08E
:100F5C000010024000700040600042420B4B5B6886
:100F6C00FB60FB6803F480327B681B6A9A4206D1F3
:100F7C00FB6803F470127B685B6A9A4201D0012310
:100F8C0000E0002318461837BD4680BD0010024013
:100F9C0080B584B000AF786039607B68002B01D1DC
:100FAC000123D0E06A4B1B6803F007033A689A42AE
:100FBC0010D9674B1B6823F0070265493B68134344
:100FCC000B60634B1B6803F007033A689A4201D02D
:100FDC000123B8E07B681B6803F00203002B20D0D0
:100FEC007B681B6803F00403002B05D0594B5B682E
:100FFC00584A43F4E06353607B681B6803F00803B2
:10100C00002B05D0534B5B68524A43F4605353603A
:10101C00504B5B6823F0F0027B689B684D4913438F
:10102C004B607B681B6803F00103002B40D07B688E
:10103C005B68012B07D1474B1B6803F40033002B73
:10104C0015D101237FE07B685B68022B07D1414BF4
:10105C001B6803F00073002B09D1012373E03D4B97
:10106C001B6803F00203002B01D101236BE0394B09
:10107C005B6823F003027B685B68364913434B6063
:10108C00FFF76EFAF8600AE0FFF76AFA0246FB68AF
:10109C00D31A41F28832934201D9032353E02D4BEA
:1010AC005B6803F00C027B685B689B009A42EBD197
:1010BC00274B1B6803F007033A689A4210D2244B63
:1010CC001B6823F0070222493B6813430B60204B3B
:1010DC001B6803F007033A689A4201D0012332E0FF
:1010EC007B681B6803F00403002B08D0194B5B686A
:1010FC0023F4E0627B68DB68164913434B607B6822
:10110C001B6803F00803002B09D0124B5B6823F417
:10111C0060527B681B69DB000E4913434B6000F087
:10112C0021F802460B4B5B681B0903F00F030A49BD
:10113C00CB5C22FA03F3094A1360094B1B6818466F
:10114C00FFF7CCF9002318461037BD4680BD00BF11
:10115C000020024000100240F41F00080000002094
:10116C000400002080B487B000AF0023FB60002394
:10117C00BB6000237B6100237B6000233B611E4B23
:10118C005B68FB60FB6803F00C03042B02D0082B9C
:10119C0003D027E0194B3B6127E0FB689B0C03F065
:1011AC000F03174AD35C7B60FB6803F48033002B7E
:1011BC0010D0114B5B685B0C03F00103114AD35C3C
:1011CC00BB607B680D4A03FB02F2BB68B2FBF3F316
:1011DC007B6104E07B680C4A02FB03F37B617B6957
:1011EC003B6102E0054B3B6100BF3B6918461C3775
:1011FC00BD4680BC704700BF0010024000127A0050
:10120C000C2000081C20000800093D0080B400AF31
:10121C00024B1B681846BD4680BC7047000000207E
:10122C0080B500AFFFF7F2FF0246054B5B681B0A67
:10123C0003F007030349CB5C22FA03F3184680BD85
:10124C00001002400420000880B500AFFFF7DEFF5D
:10125C000246054B5B68DB0A03F007030349CB5CD2
:10126C0022FA03F3184680BD001002400420000847
:10127C0080B485B000AF78600A4B1B680A4AA2FBA9
:10128C0003235B0A7A6802FB03F3FB6000BFFB6875
:10129C005A1EFA60002BF9D100BF00BF1437BD46AF
:1012AC0080BC704700000020D34D621080B582B026
:1012BC0000AF78607B68002B01D1012342E07B6892
:1012CC0093F84130DBB2002B06D17B68002283F807
:1012DC0040207868FFF716F87B68242283F84120B9
:1012EC007B681B68DA687B681B6822F40052DA6042
:1012FC00786800F01DF97B681B681A697B681B68AD
:10130C0022F490421A617B681B685A697B681B68DF
:10131C0022F02A025A617B681B68DA687B681B68BA
:10132C0042F40052DA607B6800225A647B68202207
:10133C0083F841207B68202283F842207B680022BE
:10134C005A63002318460837BD4680BD80B58AB065
:10135C0002AFF860B9603B601346FB8000237B61F1
:10136C00FB6893F84130DBB2202B6DD1BB68002BAE
:10137C0002D0FB88002B01D1012366E0FB68002220
:10138C005A64FB68212283F84120FFF7E9F8786161
:10139C00FB68FA889A84FB68FA88DA84FB689B6895
:1013AC00B3F5805F08D1FB681B69002B04D10023C7
:1013BC00FB61BB68BB6103E0BB68FB610023BB61E5
:1013CC002AE03B6800937B6900228021F86800F0DA
:1013DC0040F80346002B01D0032336E0FB69002BB9
:1013EC000BD1BB691B881A46FB681B68C2F3080249
:1013FC005A60BB690233BB6107E0FB691A78FB6872
:10140C001B685A60FB690133FB61FB68DB8C9BB288
:10141C00013B9AB2FB68DA84FB68DB8C9BB2002B35
:10142C00CFD13B6800937B6900224021F86800F023
:10143C0010F80346002B01D0032306E0FB682022A2
:10144C0083F84120002300E0022318462037BD46D4
:10145C0080BD80B590B000AFF860B9603B601346BA
:10146C00FB7150E0BB6CB3F1FF3F4CD0BB6C002B5D
:10147C0007D0FFF775F802463B68D31ABA6C9A424C
:10148C0041D2FB681B680C33BB62BB6A53E8003F5C
:10149C007B627B6A23F4D073FB63FB681B680C33A1
:1014AC00FA6B7A633B63396B7A6B41E80023FB621E
:1014BC00FB6A002BE5D1FB681B6814337B617B69ED
:1014CC0053E8003F3B613B6923F00103BB63FB68BE
:1014DC001B681433BA6B3A62FB61F9693A6A41E8EA
:1014EC000023BB61BB69002BE5D1FB68202283F88C
:1014FC004120FB68202283F84220FB68002283F8FD
:10150C00402003230FE0FB681B681A68BB6813407C
:10151C00BA689A420CBF01230023DBB21A46FB794E
:10152C009A429FD0002318464037BD4680BD00002C
:10153C0080B584B000AF78607B681B681B6923F4AE
:10154C0040517B68DA687B681B680A431A617B68C8
:10155C009A687B681B691A437B685B691343BB60A1
:10156C007B681B68DB6823F4B05323F00C037A68A8
:10157C001268B9680B43D3607B681B685B6923F402
:10158C0040717B689A697B681B680A435A617B6867
:10159C001B682C4A934203D1FFF756FEF86002E019
:1015AC00FFF73EFEF860FA6813469B0013449A005E
:1015BC001A447B685B689B00B2FBF3F3224AA2FBE4
:1015CC0003235B091901FA6813469B0013449A0024
:1015DC001A447B685B689B00B2FBF3F21A4BA3FBCB
:1015EC0002035B09642000FB03F3D31A1B013233A3
:1015FC00154AA2FB03235B0903F0F0031944FA68B4
:10160C0013469B0013449A001A447B685B689B004A
:10161C00B2FBF3F20C4BA3FB02035B09642000FB4F
:10162C0003F3D31A1B013233074AA2FB03235B09D2
:10163C0003F00F027B681B680A449A6000BF1037E6
:10164C00BD4680BD003801401F85EB510EB46FF0D4
:10165C00004100B59CB01DAB02900690079104911F
:10166C000848094953F8042B0591006802A9019315
:10167C0000F08EF90022029B1A701CB05DF804EB8E
:10168C0003B07047580000200802FFFF03460244D5
:10169C00934200D1704703F8011BF9E7014B18681E
:1016AC00704700BF5800002070B500260C4D0D4C43
:1016BC00641BA410A64209D100F07AFC00260A4D46
:1016CC000A4C641BA410A64205D170BD55F8043B0E
:1016DC0098470136EEE755F8043B98470136F2E798
:1016EC0054200008542000085420000858200008FA
:1016FC007047704738B50546002940D051F8043C76
:10170C000C1F002BB8BFE41800F0DCF81C4A13685F
:10171C0033B9636014602846BDE8384000F0D8B88F
:10172C00A34208D9206821188B4201BF19685B6855
:10173C0009182160EDE71A465B680BB1A342FAD990
:10174C0011685018A0420BD12068014450188342F4
:10175C001160E0D118685B68084410605360DAE7E8
:10176C0002D90C232B60D6E7206821188B4201BFCD
:10177C0019685B680918216063605460CBE738BD59
:10178C000802002070B50E4E0C463168054611B9A2
:10179C0000F0AAFB30602146284600F0A5FB431C54
:1017AC000AD0C41C24F00304A04207D0211A2846F6
:1017BC0000F09AFB013001D14FF0FF34204670BD90
:1017CC000C0200202DE9F843CD1C25F0030508354B
:1017DC000C2D38BF0C25002D074601DBA94205D97D
:1017EC000C2300263B603046BDE8F883DFF8D08040
:1017FC0000F068F8D8F800301C465CBB2946384627
:10180C00FFF7C0FF431C044655D1D8F800402646CC
:10181C00002E45D1002C48D023683146384604EBC5
:10182C00030900F061FB81453FD1216838466D1AF0
:10183C002946FFF7A7FF013037D023682B442360DC
:10184C00D8F80030002B38D05A68A2422BD1002295
:10185C005A600FE02268521B1FD40B2A17D961194A
:10186C00A342256018BF5960636808BFC8F8001010
:10187C0062514B60384604F10B0600F029F826F053
:10188C000706231DF21AAED09B1BA350ABE7A34255
:10189C006268DDD1C8F80020ECE723466468ACE749
:1018AC0034467668B4E71346CCE70C2338463B60E5
:1018BC0000F00EF897E72560DCE75B60FFDE00BF09
:1018CC00080200200148FFF713BF00BF04020020EC
:1018DC000148FFF70EBF00BF040200202DE9F047BE
:1018EC001F468E688246BE420C4690460B682CD82A
:1018FC008A8912F4906F26D06569096905EB450554
:10190C00A3EB010905EBD5757B1C4B446D109D4277
:10191C0038BF1D46530527D52946FFF753FF06460A
:10192C0060B34A46216900F0FDFAA38923F4906361
:10193C0043F08003A38126614E4426603E466561D8
:10194C00A5EB0905A560BE4200D93E46324641468C
:10195C00206800F0AFFA0020A3689B1BA3602368EB
:10196C0033442360BDE8F0872A4600F0E9FA0646C6
:10197C000028E0D150462169FFF7BCFE0C23CAF8C1
:10198C000030A3894FF0FF3043F04003A381E9E717
:10199C002DE9F04F98468B8907461B060D461446D9
:1019AC009DB00ED50B6963B94021FFF70BFF286082
:1019BC00286120B90C233B604FF0FF30D0E040236E
:1019CC006B610023099320238DF8293030234FF0CD
:1019DC000109CDF80C80DFF8A0818DF82A30234660
:1019EC009A4613F8012B0AB1252AF9D1BAEB040B4C
:1019FC000BD05B46224629463846FFF76FFF013075
:101A0C0000F0A980099A5A4409929AF80030002BE8
:101A1C0000F0A18000234FF0FF32CDE905230AF13D
:101A2C00010A049307938DF853301A9354460522F8
:101A3C0014F8011B504800F067FA049AD8B9D00684
:101A4C0044BF20238DF85330110744BF2B238DF84E
:101A5C0053309AF800302A2B15D0544600204FF002
:101A6C000A0C079A214611F8013B303B092B4DD942
:101A7C00B0B1079214E0A0EB080309FA03F3134387
:101A8C00A2460493D2E7039B191D1B680391002BFC
:101A9C00BBBF5B4242F0020207930793B8BF0492AC
:101AAC0023782E2B0CD163782A2B34D1039B023450
:101ABC001A1D1B680392002BB8BF4FF0FF33059320
:101ACC00DFF8B8A003225046217800F01DFA38B197
:101ADC004022049BA0EB0A00824013430134049380
:101AEC0014F8011B062226488DF8281000F00CFA79
:101AFC00002838D0234B1BBB039B073323F0070371
:101B0C0008330393099B3344099368E70C4601207F
:101B1C000CFB0232A6E700234FF00A0C19460134E5
:101B2C000593204610F8012B303A092A03D9002BD3
:101B3C00C6D00591C4E7044601230CFB0121F0E754
:101B4C0003AB00932A4638460F4B04A9AFF3008031
:101B5C00421C0646D6D1AB895B063FF52DAF0998E2
:101B6C001DB0BDE8F08F03AB00932A463846064BF8
:101B7C0004A900F07DF8EBE71E20000824200008E3
:101B8C002820000800000000E91800082DE9F047A3
:101B9C00164699468A680B6907469342B8BF1346A6
:101BAC00336091F843200C46DDF820800AB10133F4
:101BBC0033602368990642BF33680233336025686B
:101BCC0015F0060506D104F1190AE36832689B1A70
:101BDC00AB422BDC94F84320131E226818BF012360
:101BEC00920630D44946384604F14302C0470130CE
:101BFC0023D02368226903F00603042B14BF0025AD
:101C0C0033684FF0000608BFE56804F11A0408BFFA
:101C1C00ED1A54F8123C08BF25EAE5759342C4BF8F
:101C2C009B1AED18B5421AD1002008E00123524648
:101C3C0049463846C047013003D14FF0FF30BDE86C
:101C4C00F0870135C1E73020E11881F843005A1CB8
:101C5C0094F845102244023382F84310C2E7012362
:101C6C00224649463846C0470130E6D00136D9E70E
:101C7C002DE9FF470F7E9146782F80460C469A46F9
:101C8C000C9D01F1430207D8622F0AD8002F00F0F7
:101C9C00D580582F00F0C18004F1420584F84270C1
:101CAC003AE0A7F16303152BF6D801A151F823F004
:101CBC00151D0008291D0008A51C0008A51C0008FE
:101CCC00A51C0008A51C0008291D0008A51C00085F
:101CDC00A51C0008A51C0008A51C00082F1E000848
:101CEC00551D0008E91D0008A51C0008A51C0008CE
:101CFC00511E0008A51C0008551D0008A51C000855
:101D0C00A51C0008F11D00082B681A1D1B682A6011
:101D1C0004F1420584F842300123A0E020682B68CE
:101D2C00070603F10401296001D51E6803E046068D
:101D3C00FBD5B3F90060002E03DA2D23764284F82C
:101D4C0043300A23594812E02B682068191D29607A
:101D5C00050601D51E6802E04106FBD51E886F2FD3
:101D6C000CBF08230A235148002184F843106568EE
:101D7C00002DA8BF2168A560A4BF21F0040121603B
:101D8C000EB9002D4BD01546B6FBF3F103FB1167D2
:101D9C00C75D05F8017D3746BB420E46F4D9082BCA
:101DAC000BD12368DE0708D5236961689942DEBF31
:101DBC00302305F8013C05F1FF35521B22614B46DF
:101DCC0021464046CDF800A003AAFFF7DFFE013004
:101DDC004AD14FF0FF3004B0BDE8F087236843F0E0
:101DEC00200323607827324884F8457023682968DB
:101DFC001F0651F8046B02D45F0648BFB6B2DF076A
:101E0C0048BF43F02003296048BF23601EB92368F4
:101E1C0023F0200323601023A6E72448E4E71546AB
:101E2C00BDE72B682668181D6169286035061B689C
:101E3C0001D5196002E07006FBD519800023154608
:101E4C002361BCE72B6800211A1D2A601D6862689B
:101E5C00284600F059F808B1401B606063682361A4
:101E6C00002384F84330AAE72A46494640462369B2
:101E7C00D0470130ADD023689B0713D4E068039B97
:101E8C009842B8BF1846A6E7012332464946404659
:101E9C00D04701309DD00135E36803995B1AAB4202
:101EAC00F2DCEBE7002504F11906F5E72F2000081A
:101EBC0040200008884210B501EB020402D984428C
:101ECC00234607D8431EA14208D011F8012B03F872
:101EDC00012FF8E7014602448A4200D110BD13F8E5
:101EEC00014D02F8014DF7E738B50023054D0446C6
:101EFC0008462B60FEF77AFA431C02D12B6803B11B
:101F0C00236038BD00020020034610B5C9B202445C
:101F1C009342184601D1002003E0047801338C422F
:101F2C00F6D110BD0A44914200F1FF3300D1704745
:101F3C0010B511F8014B914203F8014FF9D110BDC6
:101F4C002DE9F041804614460E4621B91146BDE8F4
:101F5C00F041FFF737BC2AB9FFF7CCFB25462846E2
:101F6C00BDE8F08100F01BF88442074602D8B4EBC0
:101F7C00500F12D821464046FFF724FC0546002896
:101F8C00EDD0BC422246314628BF3A46FFF7CAFF85
:101F9C0031464046FFF7AEFBE1E73546DFE751F847
:101FAC00043C181F002BBCBF0B58C0187047000016
:101FBC00F8B500BFF8BC08BC9E467047F8B500BF2A
:081FCC00F8BC08BC9E467047FA
:101FD40057656C636F6D6520746F206C616221209E
:101FE400436F756E74696E67203D2025640D0A0089
:101FF40000000000000000000102030406070809B5
:102004000000000001020304020304050607080996
:102014000A0B0C0D0E0F10100102232D302B200083
:10202400686C4C006566674546470030313233348E
:10203400353637383941424344454600303132332E
:1020440034353637383961626364656600000000F0
:04205400310100084E
:042058000D0100086E
:10205C000024F4001000000001000000000000004B
:10206C00C800002030010020980100200000000072
:10207C000000000000000000000000000000000054
:10208C000000000000000000000000000000000044
:10209C000000000000000000000000000000000034
:0C20AC0000000000000000000C000020FC
:04000005080004717A
:00000001FF
