:020000040800F2
:100000000050002075F00008C1040008C704000873
:10001000CD040008D3040008D90400080000000043
:1000200000000000000000000000000031E90008AE
:10003000DF0400080000000039EB000887EB00082F
:10004000BDF00008BDF00008BDF00008BDF00008DC
:10005000BDF00008BDF00008BDF00008BDF00008CC
:10006000BDF00008BDF00008BDF00008BDF00008BC
:10007000BDF00008BDF00008BDF00008BDF00008AC
:10008000BDF00008BDF00008BDF00008BDF000089C
:10009000BDF00008BDF00008BDF00008BDF000088C
:1000A000BDF00008BDF00008BDF00008BDF000087C
:1000B000EB040008BDF00008BDF00008BDF000082A
:1000C000BDF00008BDF00008BDF00008BDF000085C
:1000D000BDF00008BDF00008BDF00008BDF000084C
:1000E000BDF00008BDF00008BDF0000800000000F1
:1000F0000000000000000000000000000000000000
:0C01000000000000000000005FF808F1A3
:1001100010B5054C237833B9044B13B10448AFF341
:1001200000800123237010BD60000020000000004B
:100130008CF2000808B5034B1BB103490348AFF329
:10014000008008BD00000000640000208CF2000860
:1001500080B485B000AFF860B9607A60FB68064A89
:100160001A60BB68054A1A607B6880221A6000BF6B
:100170001437BD4680BC70477C0000201C01002065
:10018000B0B588B000AF00F031FA00F01BF800F015
:1001900054F80A4B3C1D1D460FCD0FC495E80700CF
:1001A00084E807003B1D002118460AF019FA0346AF
:1001B000034A13600AF0F1F9FEE700BFB0F200084D
:1001C0001C03002080B590B000AF07F1180328226F
:1001D000002118460EF073FF3B1D00221A605A6082
:1001E0009A60DA601A610223BB610123BB621023AB
:1001F000FB6200237B6307F11803184601F02EFF12
:100200000346002B01D000F082F80F237B6000230F
:10021000BB600023FB6000233B6100237B613B1D2F
:100220000021184602F09CF90346002B01D000F093
:100230006EF800BF4037BD4680BD80B588B000AFC6
:1002400007F1100300221A605A609A60DA601E4BB0
:100250009B691D4A43F0100393611B4B9B6903F09C
:100260001003FB60FB68184B9B69174A43F020039F
:100270009361154B9B6903F02003BB60BB68124B75
:100280009B69114A43F0040393610F4B9B6903F090
:1002900004037B607B6800224FF400510B4801F09F
:1002A000C8FD4FF400533B6101237B610023BB6118
:1002B0000223FB6107F110031946044801F062FBB9
:1002C00000BF2037BD4680BD001002400010014035
:1002D00080B582B000AF78604FF40051034801F060
:1002E000C0FD4FF47A700AF01EFAF5E700100140E5
:1002F00080B582B000AF78607B681B68B3F1804F37
:1003000001D100F0DDF900BF0837BD4680BD80B4E3
:1003100000AF72B600BFFEE780B584B000AF184BE7
:100320009B69174A43F001039361154B9B6903F0E6
:100330000103BB60BB68124BDB69114A43F0805379
:10034000D3610F4BDB6903F080537B607B68002235
:100350000F216FF0010000F0C8FC0A4B5B68FB60E6
:10036000FB6823F0E063FB60FB6843F00073FB6015
:10037000044AFB68536000BF1037BD4680BD00BF14
:10038000001002400000014080B58EB000AF7860E0
:100390000023FB620023BB62002387F83330344B19
:1003A000DB69334A43F00103D361314BDB6903F06E
:1003B0000103FB60FB6807F1100207F1140311460B
:1003C000184602F00FFB3B6AFB62FB6A002B03D16D
:1003D00002F05EFA786304E002F05AFA03465B002A
:1003E0007B637B6B234AA2FB03239B0C013BBB6219
:1003F000214B4FF080421A601F4B40F2E732DA6027
:100400001D4ABB6A53601C4B00221A611A4B002222
:100410009A60194B00229A61174802F04BFB034681
:1004200087F8333097F83330002B1BD1124802F095
:1004300067FC034687F8333097F83330002B11D12F
:100440001C2000F06EFC7B680F2B08D80022796816
:100450001C2000F04AFC094A7B68136002E001237B
:1004600087F8333097F8333018463837BD4680BDAB
:100470000010024083DE1B43200300200400002004
:1004800080B400AF054B1B68DA68044B1B6822F090
:100490000102DA6000BFBD4680BC70472003002027
:1004A00080B400AF054B1B68DA68044B1B6842F050
:1004B0000102DA6000BFBD4680BC70472003002007
:1004C00080B400AFFEE780B400AFFEE780B400AFB9
:1004D000FEE780B400AFFEE780B400AFFEE780B473
:1004E00000AF00BFBD4680BC704780B500AF02487A
:1004F00005F08DFE00BF80BD2003002080B400AF5A
:1005000000BFBD4680BC704780B485B000AF0023FB
:10051000FB600023BB6000237B602F4B5B6803F014
:100520000C03FB60FB68082B11D0FB68082B3AD842
:10053000FB68002B03D0FB68042B04D033E0274B6F
:10054000274A1A6033E0254B254A1A602FE0224BD8
:100550005B6803F47013BB601F4B5B6803F480336C
:100560007B60BB689B0C0233BB607B68002B06D1B1
:10057000BB681C4A02FB03F3184A136017E0164BD2
:100580005B6803F40033002B06D0BB68154A02FBFE
:1005900003F3124A13600AE0BB68114A02FB03F33B
:1005A0000E4A136003E00D4B0D4A1A6000BF0A4B60
:1005B0005B681B0903F00F030B4AD35CFB60074B1E
:1005C0001A68FB6822FA03F3044A136000BF143769
:1005D000BD4680BC704700BF0010024000000020F4
:1005E00000127A0000093D00CCF2000880B500AF8F
:1005F000084B1B68074A43F010031360032000F008
:1006000069FB0F20FFF7C0FEFFF786FE00231846A8
:1006100080BD00BF0020024080B500AF094B4FF005
:10062000FF321A61074B00221A61064B4FF0FF326E
:10063000DA60044B0022DA6000F00CF80023184660
:1006400080BD00BF0010024080B400AF00BFBD46B7
:1006500080BC704780B400AF00BFBD4680BC70470F
:1006600080B582B000AF7860124B1A68124B1B78CD
:1006700019464FF47A73B3FBF1F3B2FBF3F3184668
:1006800000F06FFB0346002B01D001230EE07B68D6
:100690000F2B0AD8002279684FF0FF3000F025FBBD
:1006A000064A7B681360002300E0012318460837E0
:1006B000BD4680BD0000002008000020040000208E
:1006C00080B400AF054B1B781A46054B1B681344DA
:1006D000034A136000BFBD4680BC7047080000207D
:1006E0006803002080B400AF024B1B681846BD466B
:1006F00080BC70476803002080B400AF024B1B68C9
:100700001846BD4680BC70470400002080B584B008
:1007100000AF0346FB710023FB730E4B1B78FA7985
:100720009A4212D00B4B1B78BB730A4AFB791370A9
:10073000094B1B681846FFF727FE0346FB73FB7B3C
:10074000002B02D0034ABB7B1370FB7B184610378B
:10075000BD4680BD080000200400002080B400AF2A
:10076000024B1B781846BD4680BC7047080000202D
:1007700080B584B000AF7860FFF7B4FFB8607B68E5
:10078000FB60FB68B3F1FF3F05D00A4B1B781A46AC
:10079000FB681344FB6000BFFFF7A4FF0246BB6881
:1007A000D31AFA689A42F7D800BF00BF1037BD4687
:1007B00080BD00BF0800002080B400AF044B1B6860
:1007C000034A23F00203136000BFBD4680BC70479C
:1007D00010E000E080B400AF044B1B68034A43F014
:1007E0000203136000BFBD4680BC704710E000E00C
:1007F00080B400AF024B1846BD4680BC704700BFB6
:100800000009010180B400AF034B1B681B0C1846A4
:10081000BD4680BC704700BF002004E080B400AF3C
:10082000034B1B68C3F30B031846BD4680BC7047DF
:10083000002004E080B400AF024B1B681846BD46A0
:1008400080BC7047E8F7FF1F80B400AF024B1B6805
:100850001846BD4680BC7047ECF7FF1F80B400AF60
:10086000024B1B681846BD4680BC7047F0F7FF1F5F
:1008700080B400AF044B5B68034A43F0010353604C
:1008800000BFBD4680BC7047002004E080B400AFCC
:10089000044B5B68034A23F00103536000BFBD466D
:1008A00080BC7047002004E080B400AF044B5B685C
:1008B000034A43F00203536000BFBD4680BC70474B
:1008C000002004E080B400AF044B5B68034A23F0CF
:1008D0000203536000BFBD4680BC7047002004E0A7
:1008E00080B400AF044B5B68034A43F004035360D9
:1008F00000BFBD4680BC7047002004E080B400AF5C
:10090000044B5B68034A23F00403536000BFBD46F9
:1009100080BC7047002004E080B485B000AF7860F0
:100920007B6803F00703FB600C4BDB68BB60BA68B5
:100930004FF6FF031340BB60FB681A02BB6813430A
:1009400043F0BF6343F40033BB60044ABB68D36029
:1009500000BF1437BD4680BC704700BF00ED00E00B
:1009600080B400AF044BDB681B0A03F00703184692
:10097000BD4680BC704700BF00ED00E080B483B08E
:1009800000AF0346FB7197F90730002B0BDBFB79B7
:1009900003F01F02064997F907305B09012000FAAE
:1009A00002F241F8232000BF0C37BD4680BC7047DF
:1009B00000E100E080B483B000AF0346FB7197F91B
:1009C0000730002B12DBFB7903F01F020A4997F96D
:1009D00007305B09012000FA02F2203341F823209E
:1009E000BFF34F8F00BFBFF36F8F00BF00BF0C3747
:1009F000BD4680BC704700BF00E100E080B483B01A
:100A000000AF0346FB7197F90730002B0EDB0A4A53
:100A100097F907305B09403352F82320FB7903F044
:100A20001F0322FA03F303F0010300E0002318463A
:100A30000C37BD4680BC704700E100E080B483B055
:100A400000AF0346FB7197F90730002B0CDBFB79F5
:100A500003F01F02074997F907305B09012000FAEC
:100A600002F2403341F8232000BF0C37BD4680BC62
:100A7000704700BF00E100E080B483B000AF0346E0
:100A8000FB7197F90730002B0CDBFB7903F01F0299
:100A9000074997F907305B09012000FA02F2603339
:100AA00041F8232000BF0C37BD4680BC704700BF13
:100AB00000E100E080B483B000AF0346FB7197F91A
:100AC0000730002B0EDB0A4A97F907305B098033A9
:100AD00052F82320FB7903F01F0322FA03F303F0FB
:100AE000010300E0002318460C37BD4680BC704768
:100AF00000E100E080B483B000AF03463960FB71D1
:100B000097F90730002B0ADB3B68DAB20C4997F9FA
:100B100007301201D2B20B4483F800230AE03B688D
:100B2000DAB20849FB7903F00F03043B1201D2B299
:100B30000B441A7600BF0C37BD4680BC704700BF1F
:100B400000E100E000ED00E080B483B000AF0346B8
:100B5000FB7197F90730002B09DB0C4A97F9073036
:100B6000134493F80033DBB21B09DBB209E0084AF7
:100B7000FB7903F00F03043B13441B7EDBB21B091C
:100B8000DBB218460C37BD4680BC704700E100E080
:100B900000ED00E080B489B000AFF860B9607A6021
:100BA000FB6803F00703FB61FB69C3F10703042B38
:100BB00028BF0423BB61FB690433062B02D9FB6900
:100BC000033B00E000237B614FF0FF32BB6902FA78
:100BD00003F3DA43BB681A407B699A404FF0FF3158
:100BE0007B6901FA03F3D9437B680B401343184632
:100BF0002437BD4680BC704780B489B000AFF86030
:100C0000B9607A603B60BB6803F00703FB61FB6976
:100C1000C3F10703042B28BF0423BB61FB69043322
:100C2000062B02D9FB69033B00E000237B61FA68D5
:100C30007B69DA404FF0FF31BB6901FA03F3DB4314
:100C40001A407B681A604FF0FF327B6902FA03F3A7
:100C5000DA43FB681A403B681A6000BF2437BD4680
:100C600080BC704780B400AFBFF34F8F00BF064B0E
:100C7000DB6803F4E0620449044B1343CB60BFF329
:100C80004F8F00BF00BFFDE700ED00E00400FA0554
:100C900080B582B000AF78607B68013BB3F1807FA4
:100CA00001D301230FE00A4A7B68013B53600F2107
:100CB0004FF0FF30FFF71EFF054B00229A60044BF8
:100CC00007221A60002318460837BD4680BD00BFC2
:100CD00010E000E080B582B000AF78607868FFF780
:100CE0001BFE00BF0837BD4680BD80B586B000AF93
:100CF0000346B9607A60FB7300237B61FFF730FE27
:100D000078617A68B9687869FFF744FF024697F915
:100D10000F3011461846FFF7EDFE00BF1837BD46ED
:100D200080BD80B582B000AF0346FB7197F90730F4
:100D30001846FFF723FE00BF0837BD4680BD80B5CB
:100D400082B000AF0346FB7197F907301846FFF7F2
:100D500031FE00BF0837BD4680BD80B500AFFFF74C
:100D600081FF80B582B000AF78607868FFF790FFB0
:100D7000034618460837BD4680BD80B500AFFFF773
:100D8000EFFD0346184680BD80B584B000AFB96062
:100D90007A603B600346FB7397F90F301846FFF704
:100DA000D3FE3B687A68B968FFF726FF00BF1037AB
:100DB000BD4680BD80B582B000AF0346FB7197F998
:100DC00007301846FFF73AFE00BF0837BD4680BD22
:100DD00080B582B000AF0346FB7197F90730184623
:100DE000FFF70CFE034618460837BD4680BD80B5A8
:100DF00082B000AF0346FB7197F907301846FFF742
:100E00003BFE00BF0837BD4680BD80B582B000AF55
:100E10000346FB7197F907301846FFF74BFE034670
:100E200018460837BD4680BD80B483B000AF7860F7
:100E30007B68042B06D1094B1B68084A43F0040366
:100E4000136005E0054B1B68044A23F0040313609C
:100E500000BF0C37BD4680BC704700BF10E000E00B
:100E600080B500AF00F002F800BF80BD80B400AFD5
:100E700000BFBD4680BC704780B485B000AF7860CD
:100E80000023FB607B68002B01D1012343E07B68DA
:100E90001B681A46224B1344224AA2FB03231B0958
:100EA0009A007B681A647B681F4ADA637B680222B7
:100EB00083F821207B681B681B68FB60FB6823F4B8
:100EC0007F5323F03003FB607B685A687B689B6824
:100ED0001A437B68DB681A437B681B691A437B688B
:100EE0005B691A437B689B691A437B68DB69134320
:100EF000FA681343FB607B681B68FA681A607B68BA
:100F000000229A637B68012283F821207B680022FB
:100F100083F82020002318461437BD4680BC704754
:100F2000F8FFFDBFCDCCCCCC0000024080B483B034
:100F300000AF78607B68002B01D1012346E07B681D
:100F40001B681A687B681B6822F001021A607B68C4
:100F50001B6800221A607B681B6800225A607B684D
:100F60001B6800229A607B681B680022DA607B683D
:100F70001B681A46184B1344184AA2FB03231B098B
:100F80009A007B681A647B68154ADA637B681A6C7E
:100F90007B68DB6B012101FA02F25A607B68002258
:100FA0009A627B680022DA627B6800221A637B689F
:100FB00000225A637B6800229A637B68002283F8D0
:100FC00021207B68002283F82020002318460C375C
:100FD000BD4680BC704700BFF8FFFDBFCDCCCCCC78
:100FE0000000024080B586B000AFF860B9607A605A
:100FF0003B600023FB75FB6893F82030012B01D187
:1010000002232EE0FB68012283F82020FB6893F87E
:101010002130DBB2012B1DD1FB68022283F8212095
:10102000FB6800229A63FB681B681A68FB681B68F0
:1010300022F001021A603B687A68B968F86800F02B
:1010400073FCFB681B681A68FB681B6842F00102AE
:101050001A6005E0FB68002283F820200223FB755C
:10106000FB7D18461837BD4680BD80B586B000AF01
:10107000F860B9607A603B600023FB75FB6893F809
:101080002030012B01D102234BE0FB68012283F8C1
:101090002020FB6893F82130DBB2012B3AD1FB68AA
:1010A000022283F82120FB6800229A63FB681B68F8
:1010B0001A68FB681B6822F001021A603B687A68B4
:1010C000B968F86800F030FCFB68DB6A002B08D0D8
:1010D000FB681B681A68FB681B6842F00E021A6006
:1010E0000FE0FB681B681A68FB681B6822F00402AB
:1010F0001A60FB681B681A68FB681B6842F00A02EA
:101100001A60FB681B681A68FB681B6842F00102E2
:101110001A6005E0FB68002283F820200223FB759B
:10112000FB7D18461837BD4680BD80B485B000AF42
:1011300078600023FB737B6893F82130DBB2022BCD
:1011400008D07B6804229A637B68002283F8202001
:10115000012320E07B681B681A687B681B6822F00B
:101160000E021A607B681B681A687B681B6822F095
:1011700001021A607B681A6C7B68DB6B012101FA43
:1011800002F25A607B68012283F821207B680022EA
:1011900083F82020FB7B18461437BD4680BC70477F
:1011A00080B584B000AF78600023FB737B6893F850
:1011B0002130DBB2022B05D07B6804229A63012325
:1011C000FB7351E07B681B681A687B681B6822F020
:1011D0000E021A607B681B681A687B681B6822F025
:1011E00001021A607B681B68224A934229D07B68FF
:1011F0001B68214A934222D07B681B681F4A934296
:101200001AD07B681B681E4A934212D07B681B6809
:101210001C4A93420AD07B681B681B4A934202D146
:101220004FF480130EE04FF080730BE04FF48033E7
:1012300008E04FF4805305E04FF4807302E0102380
:1012400000E00123114A53607B68012283F82120CA
:101250007B68002283F820207B685B6B002B03D027
:101260007B685B6B78689847FB7B18461037BD46F8
:1012700080BD00BF080002401C0002403000024058
:1012800044000240580002406C000240000002404E
:1012900080B586B000AFF860B9607A6000233B612A
:1012A000FB6893F82130DBB2022B08D0FB680422E4
:1012B0009A63FB68002283F82020012367E1FB6822
:1012C0001B681B6803F02003002B05D0FB684FF45C
:1012D00080729A6301235AE1BB68002B31D1FB680D
:1012E0001B68884A934229D0FB681B68864A934250
:1012F00022D0FB681B68854A93421AD0FB681B68A2
:10130000834A934212D0FB681B68824A93420AD0F8
:10131000FB681B68804A934202D14FF400130EE031
:101320004FF000730BE04FF4003308E04FF400532C
:1013300005E04FF4007302E0202300E002237B610C
:1013400030E0FB681B686F4A934229D0FB681B683A
:101350006D4A934222D0FB681B686C4A93421AD0B4
:10136000FB681B686A4A934212D0FB681B68694A93
:1013700093420AD0FB681B68674A934202D14FF43C
:1013800080030EE04FF080630BE04FF4802308E011
:101390004FF4804305E04FF4806302E0402300E017
:1013A00004237B61FFF79EF938616BE05B4B1A68A1
:1013B000FB681B6853498B4229D0FB681B68524964
:1013C0008B4222D0FB681B6850498B421AD0FB68C5
:1013D0001B684F498B4212D0FB681B684D498B42FA
:1013E0000AD0FB681B684C498B4202D14FF40003C2
:1013F0000EE04FF000630BE04FF4002308E04FF4E1
:10140000004305E04FF4006302E0802300E008237E
:101410001340002B17D0FB681A6CFB68DB6B0121B3
:1014200001FA02F25A60FB689B6B43F00102FB6811
:101430009A63FB68012283F82120FB68002283F86D
:1014400020200123A3E07B68B3F1FF3F1AD07B6823
:10145000002B07D0FFF746F902463B69D31A7A689A
:101460009A420FD2FB689B6B43F02002FB689A63A1
:10147000FB68012283F82120FB68002283F82020EA
:10148000012384E0254B1A687B691340002B8DD023
:10149000BB68002B44D1FB681B681A4A934229D0D1
:1014A000FB681B68184A934222D0FB681B68174AE6
:1014B00093421AD0FB681B68154A934212D0FB680E
:1014C0001B68144A93420AD0FB681B68124A934275
:1014D00002D14FF400130EE04FF000730BE04FF415
:1014E000003308E04FF4005305E04FF4007302E0CE
:1014F000202300E00223094A5360FB68012283F89D
:1015000021203FE0080002401C0002403000024061
:1015100044000240580002406C00024000000240BB
:10152000FB681B681C4A934229D0FB681B681B4A56
:10153000934222D0FB681B68194A93421AD0FB6879
:101540001B68184A934212D0FB681B68164A9342E4
:101550000AD0FB681B68154A934202D14FF48003FE
:101560000EE04FF080630BE04FF4802308E04FF46F
:10157000804305E04FF4806302E0402300E0042351
:101580000B4A5360FB68002283F820200023184692
:101590001837BD4680BD00BF080002401C00024055
:1015A0003000024044000240580002406C000240FB
:1015B0000000024080B584B000AF78607B68DB6BD0
:1015C0001B68FB607B681B681B68BB607B681B6CCF
:1015D00004229A40FB681340002B4FD0BB6803F0F5
:1015E0000403002B4AD07B681B681B6803F02003B0
:1015F000002B07D17B681B681A687B681B6822F088
:1016000004021A607B681B68664A934229D07B6893
:101610001B68654A934222D07B681B68634A9342E9
:101620001AD07B681B68624A934212D07B681B68A1
:10163000604A93420AD07B681B685F4A934202D19A
:101640004FF480030EE04FF080630BE04FF48023F3
:1016500008E04FF4804305E04FF4806302E040234C
:1016600000E00423554A53607B68DB6A002B00F0DE
:1016700094807B68DB6A786898478EE07B681B6C97
:1016800002229A40FB681340002B56D0BB6803F03F
:101690000203002B51D07B681B681B6803F02003FA
:1016A000002B0BD17B681B681A687B681B6822F0D3
:1016B0000A021A607B68012283F821207B681B687C
:1016C000384A934229D07B681B68374A934222D01C
:1016D0007B681B68354A93421AD07B681B68344A82
:1016E000934212D07B681B68324A93420AD07B68CF
:1016F0001B68314A934202D14FF400130EE04FF0C1
:1017000000730BE04FF4003308E04FF4005305E0A2
:101710004FF4007302E0202300E00223274A5360C5
:101720007B68002283F820207B689B6A002B34D0E2
:101730007B689B6A786898472FE07B681B6C08225F
:101740009A40FB681340002B28D0BB6803F00803C5
:10175000002B23D07B681B681A687B681B6822F00B
:101760000E021A607B681A6C7B68DB6B012101FA40
:1017700002F25A607B6801229A637B68012283F837
:1017800021207B68002283F820207B681B6B002BC4
:1017900004D07B681B6B7868984700BF00BF103788
:1017A000BD4680BD080002401C00024030000240DF
:1017B00044000240580002406C0002400000024019
:1017C00080B487B000AFF8600B467A60FB720023EC
:1017D000FB75FB6893F82030012B01D1022331E027
:1017E000FB68012283F82020FB6893F82130DBB2EC
:1017F000012B20D1FB7A032B1AD801A252F823F037
:1018000011180008191800082118000829180008E4
:10181000FB687A689A6210E0FB687A68DA620CE02A
:10182000FB687A681A6308E0FB687A685A6304E028
:101830000123FB7501E00123FB75FB68002283F89F
:101840002020FB7D18461C37BD4680BC704780B405
:1018500085B000AF78600B46FB700023FB737B689C
:1018600093F82030012B01D1022340E07B68012254
:1018700083F820207B6893F82130DBB2012B2FD135
:10188000FB78042B29D801A252F823F0A1180008F4
:10189000A9180008B1180008B9180008C1180008F4
:1018A0007B6800229A621DE07B680022DA6219E000
:1018B0007B6800221A6315E07B6800225A6311E0FE
:1018C0007B6800229A627B680022DA627B680022D1
:1018D0001A637B6800225A6304E00123FB7301E072
:1018E0000123FB737B68002283F82020FB7B1846D2
:1018F0001437BD4680BC704780B483B000AF7860B9
:101900007B6893F82130DBB218460C37BD4680BCAB
:10191000704780B483B000AF78607B689B6B1846DB
:101920000C37BD4680BC704780B485B000AFF8600E
:10193000B9607A603B60FB681A6CFB68DB6B012165
:1019400001FA02F25A60FB681B683A685A60FB6849
:101950005B68102B08D1FB681B687A689A60FB688B
:101960001B68BA68DA6007E0FB681B68BA689A60AF
:10197000FB681B687A68DA6000BF1437BD4680BC1C
:10198000704700BF80B48BB000AF7860396000232F
:101990007B6200233B6269E101227B6A02FA03F366
:1019A000FB613B681B68FA691340BB61BA69FB695C
:1019B0009A4240F058813B685B689A4A93425ED0F5
:1019C000984A934275D8984A934258D0964A93427F
:1019D0006FD8964A934252D0944A934269D8944A17
:1019E00093424CD0924A934263D8924A934246D053
:1019F000904A93425DD8122B2AD8122B59D801A2B3
:101A000052F823F07F1A0008591A00086B1A0008D0
:101A1000AD1A0008B31A0008B31A0008B31A000878
:101A2000B31A0008B31A0008B31A0008B31A000862
:101A3000B31A0008B31A0008B31A0008B31A000852
:101A4000B31A0008B31A0008611A0008751A0008D2
:101A5000794A934213D02CE03B68DB683B6229E073
:101A60003B68DB6804333B6224E03B68DB68083397
:101A70003B621FE03B68DB680C333B621AE03B686B
:101A80009B68002B02D104233B6213E03B689B68F8
:101A9000012B05D108233B627B68FA691A6109E0D2
:101AA00008233B627B68FA695A6103E000233B62CA
:101AB00000E000BFBB69FF2B01D87B6801E07B68B9
:101AC00004337B61BB69FF2B02D87B6A9B0002E079
:101AD0007B6A083B9B003B617B691A680F213B696D
:101AE00001FA03F3DB431A40396A3B6901FA03F355
:101AF0001A437B691A603B685B6803F08053002BD4
:101B000000F0B1804D4B9B694C4A43F00103936157
:101B10004A4B9B6903F00103BB60BB68484A7B6A80
:101B20009B08023352F82330FB607B6A03F0030307
:101B30009B000F2202FA03F3DB43FA681340FB60B9
:101B40007B68404A934213D07B683F4A93420DD052
:101B50007B683E4A934207D07B683D4A934201D15D
:101B6000032306E0042304E0022302E0012300E053
:101B700000237A6A02F0030292009340FA6813434A
:101B8000FB602F497B6A9B080233FA6841F82320E7
:101B90003B685B6803F48013002B06D02D4B9A68DA
:101BA0002C49BB6913438B6006E02A4B9A68BB69DA
:101BB000DB43284913408B603B685B6803F40013E8
:101BC000002B06D0234BDA682249BB691343CB6054
:101BD00006E0204BDA68BB69DB431E491340CB604B
:101BE0003B685B6803F40033002B06D0194B5A683E
:101BF0001849BB6913434B6006E0164B5A68BB6932
:101C0000DB43144913404B603B685B6803F480334B
:101C1000002B21D00F4B1A680E49BB6913430B6090
:101C200021E000BF0000321000003110000022103F
:101C300000002110000012100000111000100240DE
:101C40000000014000080140000C0140001001406C
:101C500000140140000401400B4B1A68BB69DB43D0
:101C6000094913400B607B6A01337B623B681A6849
:101C70007B6A22FA03F3002B7FF48EAE00BF00BF15
:101C80002C37BD4680BC70470004014080B489B049
:101C900000AF786039600023FB619AE00122FB69A4
:101CA00002FA03F33A681340BB61BB69002B00F0F2
:101CB0008D804E4AFB699B08023352F823307B61CA
:101CC000FB6903F003039B000F2202FA03F37A6916
:101CD00013407B617B68464A934213D07B68454A38
:101CE00093420DD07B68444A934207D07B68434AB5
:101CF000934201D1032306E0042304E0022302E01F
:101D0000012300E00023FA6902F0030292009340ED
:101D10007A699A4232D13A4B1A68BB69DB43384937
:101D200013400B60364B5A68BB69DB4334491340A0
:101D30004B60334BDA68BB69DB4331491340CB60FE
:101D40002F4B9A68BB69DB432D4913408B60FB69BD
:101D500003F003039B000F2202FA03F37B61234A83
:101D6000FB699B08023352F823107B69DA431F4852
:101D7000FB699B080A40023340F82320BB69FF2B14
:101D800001D87B6801E07B6804333B61BB69FF2BB2
:101D900002D8FB699B0002E0FB69083B9B00FB60EB
:101DA0003B691A680F21FB6801FA03F3DB431A4011
:101DB0000421FB6801FA03F31A433B691A607B684C
:101DC000DA68BB69DB431A407B68DA60FB69013380
:101DD000FB613A68FB6922FA03F3002B7FF45EAFE4
:101DE00000BF00BF2437BD4680BC704700000140E3
:101DF00000080140000C01400010014000140140A7
:101E00000004014080B485B000AF78600B467B8051
:101E10007B689A687B881340002B02D00123FB73F8
:101E200001E00023FB73FB7B18461437BD4680BCE2
:101E3000704780B483B000AF78600B467B80134658
:101E40007B707B78002B03D07A887B681A6103E073
:101E50007B881A047B681A6100BF0C37BD4680BCC2
:101E6000704780B485B000AF78600B467B807B689C
:101E7000DB68FB607A88FB6813401A04FB68D9436F
:101E80007B880B401A437B681A6100BF1437BD463C
:101E900080BC704780B485B000AF78600B467B8013
:101EA0004FF48033FB607A88FB681343FB60FA6869
:101EB0007B689A617A887B689A61FA687B689A6124
:101EC0007B689B69FB607B689B6903F48033002B14
:101ED00001D0002300E0012318461437BD4680BC22
:101EE000704780B582B000AF0346FB80084B5A694B
:101EF000FB881340002B06D0054AFB885361FB8802
:101F0000184600F007F800BF0837BD4680BD00BF87
:101F10000004014080B483B000AF0346FB8000BFE3
:101F20000C37BD4680BC704780B582B000AFFEF76D
:101F3000D9FB7860454B1B68444A43F001031360AA
:101F400008E0FEF7CFFB02467B68D31A022B01D9CB
:101F5000032377E03D4B1B6803F00203002BF0D016
:101F60003A4B1B6823F0F803384A43F080031360B0
:101F7000FEF7B8FB7860354B00225A600AE0FEF7A6
:101F8000B1FB02467B68D31A41F28832934201D9F1
:101F9000032357E02D4B5B6803F00C03002BEED1BD
:101FA0002B4B2C4A1A602C4B1B681846FEF7ECF999
:101FB0000346002B01D0012344E0FEF793FB786039
:101FC000224B1B68214A23F08073136008E0FEF760
:101FD00089FB02467B68D31A022B01D9032331E027
:101FE0001A4B1B6803F00073002BF0D1174B002233
:101FF0005A60FEF777FB7860144B1B68134A23F492
:102000001023136008E0FEF76DFB02467B68D31ACD
:10201000642B01D9032315E00C4B1B6803F4003338
:10202000002BF0D1094B1B68084A23F4802313606E
:10203000064B5B6A054A43F080735362034B0022F0
:102040009A60002318460837BD4680BD0010024044
:102050000000002000127A000400002080B586B045
:1020600000AF78607B68002B01D1012372E27B68AE
:102070001B6803F00103002B00F08780924B5B6824
:1020800003F00C03042B0CD08F4B5B6803F00C03A4
:10209000082B12D18C4B5B6803F48033B3F5803F7F
:1020A0000BD1894B1B6803F40033002B6CD07B6889
:1020B0005B68002B68D101234CE27B685B68B3F559
:1020C000803F06D1804B1B687F4A43F48033136006
:1020D0002EE07B685B68002B0CD17B4B1B687A4A37
:1020E00023F480331360784B1B68774A23F48023F2
:1020F00013601DE07B685B68B3F5A02F0CD1724BB9
:102100001B68714A43F4802313606F4B1B686E4A4F
:1021100043F4803313600BE06B4B1B686A4A23F473
:1021200080331360684B1B68674A23F48023136075
:102130007B685B68002B13D0FEF7D4FA386108E0A7
:10214000FEF7D0FA02463B69D31A642B01D9032368
:1021500000E25D4B1B6803F40033002BF0D014E069
:10216000FEF7C0FA386108E0FEF7BCFA02463B69A8
:10217000D31A642B01D90323ECE1534B1B6803F4FE
:102180000033002BF0D100E000BF7B681B6803F038
:102190000203002B63D04C4B5B6803F00C03002B55
:1021A0000BD0494B5B6803F00C03082B1CD1464B4A
:1021B0005B6803F48033002B16D1434B1B6803F09C
:1021C0000203002B05D07B681B69012B01D0012382
:1021D000C0E13D4B1B6823F0F8027B685B69DB00C4
:1021E000394913430B603AE07B681B69002B20D010
:1021F000364B01221A60FEF775FA386108E0FEF7E7
:1022000071FA02463B69D31A022B01D90323A1E1DB
:102210002D4B1B6803F00203002BF0D02A4B1B68E8
:1022200023F0F8027B685B69DB00274913430B60EE
:1022300015E0264B00221A60FEF754FA386108E0D8
:10224000FEF750FA02463B69D31A022B01D9032349
:1022500080E11D4B1B6803F00203002BF0D17B686B
:102260001B6803F00803002B3AD07B689B69002BA6
:1022700019D0174B01221A60FEF734FA386108E0D2
:10228000FEF730FA02463B69D31A022B01D9032329
:1022900060E10D4B5B6A03F00203002BF0D00120DC
:1022A00000F0E4FB1CE00A4B00221A60FEF71AFA69
:1022B00038610FE0FEF716FA02463B69D31A022B8B
:1022C00008D9032346E100BF00100240000042424B
:1022D00080044242924B5B6A03F00203002BE9D177
:1022E0007B681B6803F00403002B00F0A68000232A
:1022F000FB758B4BDB6903F08053002B0DD1884BB2
:10230000DB69874A43F08053D361854BDB6903F077
:102310008053BB60BB680123FB75824B1B6803F4D1
:102320008073002B18D17F4B1B687E4A43F4807367
:102330001360FEF7D7F9386108E0FEF7D3F90246DB
:102340003B69D31A642B01D9032303E1754B1B6846
:1023500003F48073002BF0D07B68DB68012B06D17F
:102360006F4B1B6A6E4A43F0010313622DE07B68DA
:10237000DB68002B0CD16A4B1B6A694A23F001030E
:102380001362674B1B6A664A23F0040313621CE066
:102390007B68DB68052B0CD1614B1B6A604A43F0FC
:1023A000040313625E4B1B6A5D4A43F00103136230
:1023B0000BE05B4B1B6A5A4A23F001031362584B34
:1023C0001B6A574A23F0040313627B68DB68002B07
:1023D00015D0FEF787F938610AE0FEF783F9024667
:1023E0003B69D31A41F28832934201D90323B1E009
:1023F0004B4B1B6A03F00203002BEED014E0FEF7F8
:1024000071F938610AE0FEF76DF902463B69D31AAB
:1024100041F28832934201D903239BE0404B1B6A6F
:1024200003F00203002BEED1FB7D012B05D13C4BC9
:10243000DB693B4A23F08053D3617B68DB69002B67
:1024400000F08780364B5B6803F00C03082B61D0EB
:102450007B68DB69022B46D1334B00221A60FEF702
:1024600041F9386108E0FEF73DF902463B69D31AAD
:10247000022B01D903236DE0294B1B6803F0007385
:10248000002BF0D17B681B6AB3F5803F08D1244B49
:102490005B6823F400327B689B68214913434B60DF
:1024A0001F4B5B6823F474127B68196A7B685B6A54
:1024B0000B431B4913434B601B4B01221A60FEF771
:1024C00011F9386108E0FEF70DF902463B69D31AAD
:1024D000022B01D903233DE0114B1B6803F000736D
:1024E000002BF0D035E0104B00221A60FEF7FAF80E
:1024F000386108E0FEF7F6F802463B69D31A022B72
:1025000001D9032326E0064B1B6803F00073002B60
:10251000F0D11EE07B68DB69012B07D1012319E0B4
:102520000010024000700040600042420B4B5B68AC
:10253000FB60FB6803F480327B681B6A9A4206D119
:10254000FB6803F470127B685B6A9A4201D0012336
:1025500000E0002318461837BD4680BD0010024039
:1025600080B584B000AF786039607B68002B01D102
:102570000123D0E06A4B1B6803F007033A689A42D4
:1025800010D9674B1B6823F0070265493B6813436A
:102590000B60634B1B6803F007033A689A4201D053
:1025A0000123B8E07B681B6803F00203002B20D0F6
:1025B0007B681B6803F00403002B05D0594B5B6854
:1025C000584A43F4E06353607B681B6803F00803D8
:1025D000002B05D0534B5B68524A43F46053536061
:1025E000504B5B6823F0F0027B689B684D491343B6
:1025F0004B607B681B6803F00103002B40D07B68B5
:102600005B68012B07D1474B1B6803F40033002B99
:1026100015D101237FE07B685B68022B07D1414B1A
:102620001B6803F00073002B09D1012373E03D4BBD
:102630001B6803F00203002B01D101236BE0394B2F
:102640005B6823F003027B685B68364913434B6089
:10265000FEF748F8F8600AE0FEF744F80246FB6827
:10266000D31A41F28832934201D9032353E02D4B10
:102670005B6803F00C027B685B689B009A42EBD1BD
:10268000274B1B6803F007033A689A4210D2244B89
:102690001B6823F0070222493B6813430B60204B61
:1026A0001B6803F007033A689A4201D0012332E025
:1026B0007B681B6803F00403002B08D0194B5B6890
:1026C00023F4E0627B68DB68164913434B607B6848
:1026D0001B6803F00803002B09D0124B5B6823F43E
:1026E00060527B681B69DB000E4913434B6000F0AE
:1026F00071F802460B4B5B681B0903F00F030A4994
:10270000CB5C22FA03F3094A1360094B1B68184695
:10271000FDF73AFE002318461037BD4680BD00BFC6
:102720000020024000100240CCF20008000000200F
:102730000400002080B58AB000AFF860B9607A600C
:1027400007F1180300221A605A609A60DA600223C7
:10275000FB6103237B6200233B624FF48073BB6108
:102760000E4B9B690D4A43F0040393610B4B9B692D
:1027700003F004037B617B6907F1180319460848DD
:10278000FFF700F9054B5B6823F0E0620349BB6883
:1027900013434B6000BF2837BD4680BD0010024088
:1027A0000008014080B400AF034B01221A6000BF53
:1027B000BD4680BC704700BF4C00424280B400AFB1
:1027C000034B00221A6000BFBD4680BC704700BFAB
:1027D0004C00424280B487B000AF0023FB6000236E
:1027E000BB6000237B6100237B6000233B611E4BA9
:1027F0005B68FB60FB6803F00C03042B02D0082B22
:1028000003D027E0194B3B6127E0FB689B0C03F0EA
:102810000F03174AD35C7B60FB6803F48033002B03
:1028200010D0114B5B685B0C03F00103114AD35CC1
:10283000BB607B680D4A03FB02F2BB68B2FBF3F39B
:102840007B6104E07B680C4A02FB03F37B617B69DC
:102850003B6102E0054B3B6100BF3B6918461C37FA
:10286000BD4680BC704700BF0010024000127A00D5
:10287000E4F20008F4F2000800093D0080B400AF63
:10288000024B1B681846BD4680BC70470000002004
:1028900080B500AFFFF7F2FF0246054B5B681B0AED
:1028A00003F007030349CB5C22FA03F3184680BD0B
:1028B00000100240DCF2000880B500AFFFF7DEFF39
:1028C0000246054B5B68DB0A03F007030349CB5C58
:1028D00022FA03F3184680BD00100240DCF2000823
:1028E00080B483B000AF78607B680F221A603C4BE5
:1028F0001B6803F48023B3F5802F04D17B684FF469
:10290000A0225A600EE0364B1B6803F48033B3F507
:10291000803F04D17B684FF480325A6002E07B68CC
:1029200000225A602E4B5B6803F400327B689A6089
:102930002B4B1B6803F00103012B03D17B680122A1
:102940001A6102E07B6800221A61254B1B68DB08D4
:1029500003F01F027B685A61214B1B6A03F00403DA
:10296000042B03D17B680522DA600CE01C4B1B6A48
:1029700003F00103012B03D17B680122DA6002E03E
:102980007B680022DA60164B5B6A03F00103012BBF
:1029900003D17B6801229A6102E07B6800229A6180
:1029A0000F4B1B6803F08073B3F1807F03D17B680A
:1029B0000222DA6102E07B680122DA61084B5B687F
:1029C00003F480327B681A62054B5B6803F4701273
:1029D0007B685A6200BF0C37BD4680BC704700BFA1
:1029E0000010024080B483B000AF786039607B682B
:1029F0000F221A60114B5B6803F003027B685A6078
:102A00000E4B5B6803F0F0027B689A600B4B5B68CF
:102A100003F4E0627B68DA60084B5B68DB0803F470
:102A2000E0627B681A61064B1B6803F007023B6893
:102A30001A6000BF0C37BD4680BC704700100240D2
:102A40000020024080B500AF064B9B6803F0800376
:102A5000802B04D100F028F8034B80221A7000BFAD
:102A600080BD00BF001002400A10024080B485B053
:102A700000AF78600A4B1B680A4AA2FB03235B0A7B
:102A80007A6802FB03F3FB6000BFFB685A1EFA6022
:102A9000002BF9D100BF00BF1437BD4680BC704782
:102AA00000000020D34D621080B400AF00BFBD46CF
:102AB00080BC704780B582B000AF78607B68002B27
:102AC00001D1012341E07B6893F83D30DBB2002B5C
:102AD00006D17B68002283F83C20786800F08DF8EE
:102AE0007B68022283F83D207B681A687B68043388
:102AF0001946104605F024F87B68012283F8462029
:102B00007B68012283F83E207B68012283F83F2006
:102B10007B68012283F840207B68012283F84120F2
:102B20007B68012283F842207B68012283F84320DE
:102B30007B68012283F844207B68012283F84520CA
:102B40007B68012283F83D20002318460837BD46E4
:102B500080BD80B582B000AF78607B68022283F8C8
:102B60003D207B681B681A6A41F211131340002B49
:102B70000FD17B681B681A6A40F244431340002B54
:102B800007D17B681B681A687B681B6822F001020A
:102B90001A60786800F03AF87B68002283F84620D3
:102BA0007B68002283F83E207B68002283F83F2068
:102BB0007B68002283F840207B68002283F8412054
:102BC0007B68002283F842207B68002283F8432040
:102BD0007B68002283F844207B68002283F845202C
:102BE0007B68002283F83D207B68002283F83C202C
:102BF000002318460837BD4680BD80B483B000AFBF
:102C0000786000BF0C37BD4680BC704780B483B08D
:102C100000AF786000BF0C37BD4680BC704780B401
:102C200085B000AF78607B6893F83D30DBB2012B54
:102C300001D0012332E07B68022283F83D207B68CB
:102C40001B68194A93420ED07B681B68B3F1804F12
:102C500009D07B681B68154A934204D07B681B68C7
:102C6000134A934211D17B681B689B6803F00703EA
:102C7000FB60FB68062B10D07B681B681A687B68BA
:102C80001B6842F001021A6007E07B681B681A6843
:102C90007B681B6842F001021A6000231846143753
:102CA000BD4680BC704700BF002C014000040040BE
:102CB0000008004080B483B000AF78607B681B6878
:102CC0001A6A41F211131340002B0FD17B681B6865
:102CD0001A6A40F244431340002B07D17B681B68FB
:102CE0001A687B681B6822F001021A607B68012267
:102CF00083F83D20002318460C37BD4680BC704742
:102D000080B485B000AF78607B6893F83D30DBB26B
:102D1000012B01D001233AE07B68022283F83D2099
:102D20007B681B68DA687B681B6842F00102DA6026
:102D30007B681B68184A93420ED07B681B68B3F10E
:102D4000804F09D07B681B68144A934204D07B688B
:102D50001B68134A934211D17B681B689B6803F080
:102D60000703FB60FB68062B10D07B681B681A68A2
:102D70007B681B6842F001021A6007E07B681B68F1
:102D80001A687B681B6842F001021A60002318462B
:102D90001437BD4680BC7047002C01400004004041
:102DA0000008004080B483B000AF78607B681B6887
:102DB000DA687B681B6822F00102DA607B681B68B6
:102DC0001A6A41F211131340002B0FD17B681B6864
:102DD0001A6A40F244431340002B07D17B681B68FA
:102DE0001A687B681B6822F001021A607B68012266
:102DF00083F83D20002318460C37BD4680BC704741
:102E000080B586B000AFF860B9601346FB80FB6800
:102E100093F83D30DBB2022B01D1022366E0FB6860
:102E200093F83D30DBB2012B25D1BB68002B02D0DB
:102E3000FB88002B01D1012358E0FB68022283F8B4
:102E40003D20FB681B6A2B4A9A62FB681B6A2A4A70
:102E5000DA62FB681B6A294A1A63FB68186AB96858
:102E6000FB681B682C331A46FB88FEF7FEF8034606
:102E7000002B04D001E0012338E0012336E0FB6899
:102E80001B68DA68FB681B6842F48072DA60FB68D2
:102E90001B681B4A93420ED0FB681B68B3F1804F3E
:102EA00009D0FB681B68174A934204D0FB681B6873
:102EB000154A934211D1FB681B689B6803F0070316
:102EC0007B617B69062B10D0FB681B681A68FB6866
:102ED0001B6842F001021A6007E0FB681B681A6871
:102EE000FB681B6842F001021A600023184618377D
:102EF000BD4680BDAD7A0008DB7A0008DB770008AC
:102F0000002C0140000400400008004080B582B061
:102F100000AF78607B681B68DA687B681B6822F406
:102F20008072DA607B681B6A1846FEF739F97B68A5
:102F30001B681A6A41F211131340002B0FD17B68F2
:102F40001B681A6A40F244431340002B07D17B6888
:102F50001B681A687B681B6822F001021A607B6894
:102F6000012283F83D20002318460837BD4680BD66
:102F700080B582B000AF78607B68002B01D101235F
:102F800041E07B6893F83D30DBB2002B06D17B68D3
:102F9000002283F83C20786800F08DF87B680222DC
:102FA00083F83D207B681A687B6804331946104615
:102FB00004F0C6FD7B68012283F846207B6801226D
:102FC00083F83E207B68012283F83F207B68012242
:102FD00083F840207B68012283F841207B6801222E
:102FE00083F842207B68012283F843207B6801221A
:102FF00083F844207B68012283F845207B68012206
:1030000083F83D20002318460837BD4680BD80B5B3
:1030100082B000AF78607B68022283F83D207B6835
:103020001B681A6A41F211131340002B0FD17B6801
:103030001B681A6A40F244431340002B07D17B6897
:103040001B681A687B681B6822F001021A607868A6
:1030500000F03AF87B68002283F846207B68002263
:1030600083F83E207B68002283F83F207B680022A3
:1030700083F840207B68002283F841207B6800228F
:1030800083F842207B68002283F843207B6800227B
:1030900083F844207B68002283F845207B68002267
:1030A00083F83D207B68002283F83C2000231846EB
:1030B0000837BD4680BD80B483B000AF786000BFE4
:1030C0000C37BD4680BC704780B483B000AF7860D9
:1030D00000BF0C37BD4680BC704780B584B000AFE0
:1030E000786039603B68002B09D17B6893F83E30EB
:1030F000DBB2012B14BF01230023DBB222E03B68CB
:10310000042B09D17B6893F83F30DBB2012B14BF4D
:1031100001230023DBB215E03B68082B09D17B6853
:1031200093F84030DBB2012B14BF01230023DBB244
:1031300008E07B6893F84130DBB2012B14BF012318
:103140000023DBB2002B01D001235EE03B68002BA3
:1031500004D17B68022283F83E2013E03B68042BF5
:1031600004D17B68022283F83F200BE03B68082BE8
:1031700004D17B68022283F8402003E07B680222AE
:1031800083F841207B681B6801223968184605F0E6
:10319000F6F87B681B681F4A934207D17B681B685F
:1031A0005A6C7B681B6842F400425A647B681B6857
:1031B000184A93420ED07B681B68B3F1804F09D048
:1031C0007B681B68144A934204D07B681B68134ACF
:1031D000934211D17B681B689B6803F00703FB6077
:1031E000FB68062B10D07B681B681A687B681B681D
:1031F00042F001021A6007E07B681B681A687B686E
:103200001B6842F001021A60002318461037BD46C1
:1032100080BD00BF002C01400004004000080040B9
:1032200080B582B000AF786039607B681B6800228F
:103230003968184605F0A3F87B681B68294A934251
:1032400017D17B681B681A6A41F211131340002BD7
:103250000FD17B681B681A6A40F244431340002B6D
:1032600007D17B681B685A6C7B681B6822F400429C
:103270005A647B681B681A6A41F211131340002BD1
:103280000FD17B681B681A6A40F244431340002B3D
:1032900007D17B681B681A687B681B6822F00102F3
:1032A0001A603B68002B04D17B68012283F83E2022
:1032B00013E03B68042B04D17B68012283F83F2094
:1032C0000BE03B68082B04D17B68012283F8402087
:1032D00003E07B68012283F8412000231846083769
:1032E000BD4680BD002C014080B584B000AF786041
:1032F00039600023FB733B68002B09D17B6893F88E
:103300003E30DBB2012B14BF01230023DBB222E0ED
:103310003B68042B09D17B6893F83F30DBB2012B6B
:1033200014BF01230023DBB215E03B68082B09D151
:103330007B6893F84030DBB2012B14BF01230023DC
:10334000DBB208E07B6893F84130DBB2012B14BF9D
:1033500001230023DBB2002B01D00123A9E03B684D
:10336000002B04D17B68022283F83E2013E03B68E7
:10337000042B04D17B68022283F83F200BE03B68DA
:10338000082B04D17B68022283F8402003E07B688D
:10339000022283F841203B680C2B41D801A252F84D
:1033A00023F000BFD933000821340008213400087D
:1033B00021340008EB3300082134000821340008D0
:1033C00021340008FD3300082134000821340008AE
:1033D000213400080F3400087B681B68DA687B68BA
:1033E0001B6842F00202DA601DE07B681B68DA6845
:1033F0007B681B6842F00402DA6014E07B681B689B
:10340000DA687B681B6842F00802DA600BE07B68D0
:103410001B68DA687B681B6842F01002DA6002E021
:103420000123FB7300BFFB7B002B41D17B681B6832
:1034300001223968184604F0A2FF7B681B681F4A06
:10344000934207D17B681B685A6C7B681B6842F407
:1034500000425A647B681B68184A93420ED07B680E
:103460001B68B3F1804F09D07B681B68144A9342F4
:1034700004D07B681B68134A934211D17B681B6898
:103480009B6803F00703BB60BB68062B10D07B680A
:103490001B681A687B681B6842F001021A6007E02B
:1034A0007B681B681A687B681B6842F001021A601F
:1034B000FB7B18461037BD4680BD00BF002C014085
:1034C000000400400008004080B584B000AF786080
:1034D00039600023FB733B680C2B41D801A252F8E2
:1034E00023F000BF19350008613500086135000878
:1034F000613500082B35000861350008613500088A
:10350000613500083D350008613500086135000867
:10351000613500084F3500087B681B68DA687B68F6
:103520001B6822F00202DA601DE07B681B68DA6823
:103530007B681B6822F00402DA6014E07B681B6879
:10354000DA687B681B6822F00802DA600BE07B68AF
:103550001B68DA687B681B6822F01002DA6002E000
:103560000123FB7300BFFB7B002B57D17B681B68DB
:1035700000223968184604F002FF7B681B682A4A5B
:10358000934217D17B681B681A6A41F211131340EA
:10359000002B0FD17B681B681A6A40F2444313402A
:1035A000002B07D17B681B685A6C7B681B6822F470
:1035B00000425A647B681B681A6A41F21113134077
:1035C000002B0FD17B681B681A6A40F244431340FA
:1035D000002B07D17B681B681A687B681B6822F088
:1035E00001021A603B68002B04D17B68012283F83A
:1035F0003E2013E03B68042B04D17B68012283F852
:103600003F200BE03B68082B04D17B68012283F844
:10361000402003E07B68012283F84120FB7B1846B1
:103620001037BD4680BD00BF002C014080B586B07C
:1036300000AFF860B9607A607B800023FB75BB68DF
:10364000002B09D1FB6893F83E30DBB2022B0CBF94
:1036500001230023DBB222E0BB68042B09D1FB6805
:1036600093F83F30DBB2022B0CBF01230023DBB207
:1036700015E0BB68082B09D1FB6893F84030DBB23A
:10368000022B0CBF01230023DBB208E0FB6893F898
:103690004130DBB2022B0CBF01230023DBB2002B35
:1036A00001D0022353E1BB68002B09D1FB6893F8DA
:1036B0003E30DBB2012B0CBF01230023DBB222E042
:1036C000BB68042B09D1FB6893F83F30DBB2012BB8
:1036D0000CBF01230023DBB215E0BB68082B09D126
:1036E000FB6893F84030DBB2012B0CBF01230023B1
:1036F000DBB208E0FB6893F84130DBB2012B0CBF72
:1037000001230023DBB2002B24D07B68002B02D0E6
:103710007B88002B01D1012319E1BB68002B04D168
:10372000FB68022283F83E2016E0BB68042B04D11C
:10373000FB68022283F83F200EE0BB68082B04D10F
:10374000FB68022283F8402006E0FB68022283F82F
:10375000412001E00123FAE0BB680C2B00F2AE80AF
:1037600001A252F823F000BF9D370008BD380008C1
:10377000BD380008BD380008E5370008BD3800082E
:10378000BD380008BD3800082D380008BD380008D5
:10379000BD380008BD38000875380008FB685B6A52
:1037A0006D4A9A62FB685B6A6C4ADA62FB685B6A24
:1037B0006B4A1A63FB68586A7968FB681B68343384
:1037C0001A467B88FDF751FC0346002B01D00123EC
:1037D000BDE0FB681B68DA68FB681B6842F4007296
:1037E000DA606EE0FB689B6A5B4A9A62FB689B6AE0
:1037F0005A4ADA62FB689B6A594A1A63FB68986AFC
:103800007968FB681B6838331A467B88FDF72DFC06
:103810000346002B01D0012399E0FB681B68DA689E
:10382000FB681B6842F48062DA604AE0FB68DB6A8E
:10383000494A9A62FB68DB6A484ADA62FB68DB6ADB
:10384000474A1A63FB68D86A7968FB681B683C338F
:103850001A467B88FDF709FC0346002B01D00123A3
:1038600075E0FB681B68DA68FB681B6842F400625D
:10387000DA6026E0FB681B6B374A9A62FB681B6BB9
:10388000364ADA62FB681B6B354A1A63FB68186BB1
:103890007968FB681B6840331A467B88FDF7E5FBB7
:1038A0000346002B01D0012351E0FB681B68DA6856
:1038B000FB681B6842F48052DA6002E00123FB756A
:1038C00000BFFB7D002B41D1FB681B680122B9685A
:1038D000184604F054FDFB681B68224A934207D146
:1038E000FB681B685A6CFB681B6842F400425A6410
:1038F000FB681B681B4A93420ED0FB681B68B3F140
:10390000804F09D0FB681B68174A934204D0FB68BC
:103910001B68164A934211D1FB681B689B6803F031
:1039200007033B613B69062B10D0FB681B681A68D4
:10393000FB681B6842F001021A6007E0FB681B6825
:103940001A68FB681B6842F001021A60FB7D18468A
:103950001837BD4680BD00BF6D7800081579000896
:10396000DB770008002C0140000400400008004004
:1039700080B584B000AF786039600023FB733B688A
:103980000C2B55D801A252F823F000BFC139000812
:10399000313A0008313A0008313A0008DD390008B0
:1039A000313A0008313A0008313A0008F939000884
:1039B000313A0008313A0008313A0008153A000857
:1039C0007B681B68DA687B681B6822F40072DA6027
:1039D0007B685B6A1846FDF7E3FB2CE07B681B689D
:1039E000DA687B681B6822F48062DA607B689B6A15
:1039F0001846FDF7D5FB1EE07B681B68DA687B681C
:103A00001B6822F40062DA607B68DB6A1846FDF707
:103A1000C7FB10E07B681B68DA687B681B6822F4D0
:103A20008052DA607B681B6B1846FDF7B9FB02E039
:103A30000123FB7300BFFB7B002B57D17B681B6806
:103A400000223968184604F09AFC7B681B682A4AF1
:103A5000934217D17B681B681A6A41F21113134015
:103A6000002B0FD17B681B681A6A40F24443134055
:103A7000002B07D17B681B685A6C7B681B6822F49B
:103A800000425A647B681B681A6A41F211131340A2
:103A9000002B0FD17B681B681A6A40F24443134025
:103AA000002B07D17B681B681A687B681B6822F0B3
:103AB00001021A603B68002B04D17B68012283F865
:103AC0003E2013E03B68042B04D17B68012283F87D
:103AD0003F200BE03B68082B04D17B68012283F870
:103AE000402003E07B68012283F84120FB7B1846DD
:103AF0001037BD4680BD00BF002C014080B582B0AC
:103B000000AF78607B68002B01D1012341E07B6826
:103B100093F83D30DBB2002B06D17B68002283F89E
:103B20003C20786800F08DF87B68022283F83D2005
:103B30007B681A687B6804331946104604F000F865
:103B40007B68012283F846207B68012283F83E20AF
:103B50007B68012283F83F207B68012283F84020A4
:103B60007B68012283F841207B68012283F8422090
:103B70007B68012283F843207B68012283F844207C
:103B80007B68012283F845207B68012283F83D2071
:103B9000002318460837BD4680BD80B582B000AF0F
:103BA00078607B68022283F83D207B681B681A6A74
:103BB00041F211131340002B0FD17B681B681A6A66
:103BC00040F244431340002B07D17B681B681A68FE
:103BD0007B681B6822F001021A60786800F03AF8EE
:103BE0007B68002283F846207B68002283F83E2011
:103BF0007B68002283F83F207B68002283F8402006
:103C00007B68002283F841207B68002283F84220F1
:103C10007B68002283F843207B68002283F84420DD
:103C20007B68002283F845207B68002283F83D20D2
:103C30007B68002283F83C20002318460837BD46E5
:103C400080BD80B483B000AF786000BF0C37BD4644
:103C500080BC704780B483B000AF786000BF0C3781
:103C6000BD4680BC704780B584B000AF78603960D5
:103C70003B68002B09D17B6893F83E30DBB2012B07
:103C800014BF01230023DBB222E03B68042B09D1DF
:103C90007B6893F83F30DBB2012B14BF0123002374
:103CA000DBB215E03B68082B09D17B6893F8403004
:103CB000DBB2012B14BF01230023DBB208E07B68D9
:103CC00093F84130DBB2012B14BF01230023DBB298
:103CD000002B01D001235EE03B68002B04D17B6800
:103CE000022283F83E2013E03B68042B04D17B685A
:103CF000022283F83F200BE03B68082B04D17B684D
:103D0000022283F8402003E07B68022283F84120EE
:103D10007B681B6801223968184604F030FB7B6819
:103D20001B681F4A934207D17B681B685A6C7B68EB
:103D30001B6842F400425A647B681B68184A93422D
:103D40000ED07B681B68B3F1804F09D07B681B687D
:103D5000144A934204D07B681B68134A934211D1E2
:103D60007B681B689B6803F00703FB60FB68062BFE
:103D700010D07B681B681A687B681B6842F00102E0
:103D80001A6007E07B681B681A687B681B6842F052
:103D900001021A60002318461037BD4680BD00BFDF
:103DA000002C0140000400400008004080B582B0B3
:103DB00000AF786039607B681B680022396818465C
:103DC00004F0DDFA7B681B68294A934217D17B68AF
:103DD0001B681A6A41F211131340002B0FD17B6844
:103DE0001B681A6A40F244431340002B07D17B68DA
:103DF0001B685A6C7B681B6822F400425A647B681B
:103E00001B681A6A41F211131340002B0FD17B6813
:103E10001B681A6A40F244431340002B07D17B68A9
:103E20001B681A687B681B6822F001021A603B68F5
:103E3000002B04D17B68012283F83E2013E03B680D
:103E4000042B04D17B68012283F83F200BE03B6800
:103E5000082B04D17B68012283F8402003E07B68B3
:103E6000012283F84120002318460837BD4680BD53
:103E7000002C014080B584B000AF78603960002329
:103E8000FB733B68002B09D17B6893F83E30DBB2B3
:103E9000012B14BF01230023DBB222E03B68042B7B
:103EA00009D17B6893F83F30DBB2012B14BF0123AB
:103EB0000023DBB215E03B68082B09D17B6893F83F
:103EC0004030DBB2012B14BF01230023DBB208E03A
:103ED0007B6893F84130DBB2012B14BF0123002330
:103EE000DBB2002B01D00123A9E03B68002B04D1F9
:103EF0007B68022283F83E2013E03B68042B04D148
:103F00007B68022283F83F200BE03B68082B04D13A
:103F10007B68022283F8402003E07B68022283F85A
:103F200041203B680C2B41D801A252F823F000BF7E
:103F3000653F0008AD3F0008AD3F0008AD3F0008F9
:103F4000773F0008AD3F0008AD3F0008AD3F0008D7
:103F5000893F0008AD3F0008AD3F0008AD3F0008B5
:103F60009B3F00087B681B68DA687B681B6842F02F
:103F70000202DA601DE07B681B68DA687B681B68F8
:103F800042F00402DA6014E07B681B68DA687B6840
:103F90001B6842F00802DA600BE07B681B68DA6895
:103FA0007B681B6842F01002DA6002E00123FB73B9
:103FB00000BFFB7B002B41D17B681B680122396865
:103FC000184604F0DCF97B681B681F4A934207D14E
:103FD0007B681B685A6C7B681B6842F400425A6419
:103FE0007B681B68184A93420ED07B681B68B3F14C
:103FF000804F09D07B681B68144A934204D07B68C9
:104000001B68134A934211D17B681B689B6803F0BD
:104010000703BB60BB68062B10D07B681B681A685F
:104020007B681B6842F001021A6007E07B681B682E
:104030001A687B681B6842F001021A60FB7B184615
:104040001037BD4680BD00BF002C01400004004079
:104050000008004080B584B000AF7860396000236C
:10406000FB733B680C2B41D801A252F823F000BF30
:10407000A5400008ED400008ED400008ED400008B4
:10408000B7400008ED400008ED400008ED40000892
:10409000C9400008ED400008ED400008ED40000870
:1040A000DB4000087B681B68DA687B681B6822F0CD
:1040B0000202DA601DE07B681B68DA687B681B68B7
:1040C00022F00402DA6014E07B681B68DA687B681F
:1040D0001B6822F00802DA600BE07B681B68DA6874
:1040E0007B681B6822F01002DA6002E00123FB7398
:1040F00000BFFB7B002B57D17B681B68002239680F
:10410000184604F03CF97B681B682A4A934217D191
:104110007B681B681A6A41F211131340002B0FD100
:104120007B681B681A6A40F244431340002B07D196
:104130007B681B685A6C7B681B6822F400425A64D7
:104140007B681B681A6A41F211131340002B0FD1D0
:104150007B681B681A6A40F244431340002B07D166
:104160007B681B681A687B681B6822F001021A6072
:104170003B68002B04D17B68012283F83E2013E0CA
:104180003B68042B04D17B68012283F83F200BE0BD
:104190003B68082B04D17B68012283F8402003E0B0
:1041A0007B68012283F84120FB7B18461037BD460F
:1041B00080BD00BF002C014080B586B000AFF86024
:1041C000B9607A607B800023FB75BB68002B09D146
:1041D000FB6893F83E30DBB2022B0CBF01230023B7
:1041E000DBB222E0BB68042B09D1FB6893F83F30B7
:1041F000DBB2022B0CBF01230023DBB215E0BB684E
:10420000082B09D1FB6893F84030DBB2022B0CBFBE
:1042100001230023DBB208E0FB6893F84130DBB2F6
:10422000022B0CBF01230023DBB2002B01D00223A1
:1042300053E1BB68002B09D1FB6893F83E30DBB239
:10424000012B0CBF01230023DBB222E0BB68042B4F
:1042500009D1FB6893F83F30DBB2012B0CBF01237F
:104260000023DBB215E0BB68082B09D1FB6893F88B
:104270004030DBB2012B0CBF01230023DBB208E08E
:10428000FB6893F84130DBB2012B0CBF0123002304
:10429000DBB2002B24D07B68002B02D07B88002B64
:1042A00001D1012319E1BB68002B04D1FB68022274
:1042B00083F83E2016E0BB68042B04D1FB68022281
:1042C00083F83F200EE0BB68082B04D1FB68022274
:1042D00083F8402006E0FB68022283F8412001E0D9
:1042E0000123FAE0BB680C2B00F2AE8001A252F869
:1042F00023F000BF2943000849440008494400084E
:104300004944000871430008494400084944000832
:1043100049440008B94300084944000849440008DA
:104320004944000801440008FB685B6A6D4A9A62D0
:10433000FB685B6A6C4ADA62FB685B6A6B4A1A6309
:10434000FB68586A7968FB681B6834331A467B88B7
:10435000FCF78BFE0346002B01D00123BDE0FB6878
:104360001B68DA68FB681B6842F40072DA606EE072
:10437000FB689B6A5B4A9A62FB689B6A5A4ADA62EC
:10438000FB689B6A594A1A63FB68986A7968FB68FC
:104390001B6838331A467B88FCF767FE0346002B00
:1043A00001D0012399E0FB681B68DA68FB681B6891
:1043B00042F48062DA604AE0FB68DB6A494A9A624A
:1043C000FB68DB6A484ADA62FB68DB6A474A1A63C1
:1043D000FB68D86A7968FB681B683C331A467B889F
:1043E000FCF743FE0346002B01D0012375E0FB6878
:1043F0001B68DA68FB681B6842F40062DA6026E03A
:10440000FB681B6B374A9A62FB681B6B364ADA62A1
:10441000FB681B6B354A1A63FB68186B7968FB688D
:104420001B6840331A467B88FCF71FFE0346002BAF
:1044300001D0012351E0FB681B68DA68FB681B6848
:1044400042F48052DA6002E00123FB7500BFFB7D7D
:10445000002B41D1FB681B680122B968184603F0A4
:104460008EFFFB681B68224A934207D1FB681B68DA
:104470005A6CFB681B6842F400425A64FB681B6874
:104480001B4A93420ED0FB681B68B3F1804F09D0E2
:10449000FB681B68174A934204D0FB681B68164AE6
:1044A000934211D1FB681B689B6803F007033B61D3
:1044B0003B69062B10D0FB681B681A68FB681B68F9
:1044C00042F001021A6007E0FB681B681A68FB688B
:1044D0001B6842F001021A60FB7D18461837BD4682
:1044E00080BD00BF6D78000815790008DB770008F3
:1044F000002C0140000400400008004080B584B05A
:1045000000AF786039600023FB733B680C2B55D8F3
:1045100001A252F823F000BF4D450008BD45000838
:10452000BD450008BD45000869450008BD450008B7
:10453000BD450008BD45000885450008BD4500088B
:10454000BD450008BD450008A14500087B681B6803
:10455000DA687B681B6822F40072DA607B685B6A49
:104560001846FCF71DFE2CE07B681B68DA687B6848
:104570001B6822F48062DA607B689B6A1846FCF74D
:104580000FFE1EE07B681B68DA687B681B6822F4FC
:104590000062DA607B68DB6A1846FCF701FE10E017
:1045A0007B681B68DA687B681B6822F48052DA60DB
:1045B0007B681B6B1846FCF7F3FD02E00123FB73DD
:1045C00000BFFB7B002B57D17B681B68002239683A
:1045D000184603F0D4FE7B681B682A4A934217D121
:1045E0007B681B681A6A41F211131340002B0FD12C
:1045F0007B681B681A6A40F244431340002B07D1C2
:104600007B681B685A6C7B681B6822F400425A6402
:104610007B681B681A6A41F211131340002B0FD1FB
:104620007B681B681A6A40F244431340002B07D191
:104630007B681B681A687B681B6822F001021A609D
:104640003B68002B04D17B68012283F83E2013E0F5
:104650003B68042B04D17B68012283F83F200BE0E8
:104660003B68082B04D17B68012283F8402003E0DB
:104670007B68012283F84120FB7B18461037BD463A
:1046800080BD00BF002C014080B582B000AF7860D3
:104690007B68002B01D1012341E07B6893F83D301A
:1046A000DBB2002B06D17B68002283F83C207868BF
:1046B00000F08DF87B68022283F83D207B681A6841
:1046C0007B6804331946104603F03AFA7B680122EE
:1046D00083F846207B68012283F83E207B68012214
:1046E00083F83F207B68012283F840207B68012209
:1046F00083F841207B68012283F842207B680122F5
:1047000083F843207B68012283F844207B680122E0
:1047100083F845207B68012283F83D20002318465A
:104720000837BD4680BD80B582B000AF78607B6839
:10473000022283F83D207B681B681A6A41F211133C
:104740001340002B0FD17B681B681A6A40F2444368
:104750001340002B07D17B681B681A687B681B68B5
:1047600022F001021A60786800F03AF87B680022B3
:1047700083F846207B68002283F83E207B68002275
:1047800083F83F207B68002283F840207B6800226A
:1047900083F841207B68002283F842207B68002256
:1047A00083F843207B68002283F844207B68002242
:1047B00083F845207B68002283F83D207B68002237
:1047C00083F83C20002318460837BD4680BD80B4DE
:1047D00083B000AF786000BF0C37BD4680BC704727
:1047E00080B483B000AF786000BF0C37BD4680BC9A
:1047F000704780B584B000AF786039603B68002BAB
:1048000004D17B6893F83E30DBB213E03B68042BA5
:1048100004D17B6893F83F30DBB20BE03B68082B98
:1048200004D17B6893F84030DBB203E07B6893F8F7
:104830004130DBB2FB733B68002B04D17B6893F8FB
:104840004230DBB213E03B68042B04D17B6893F861
:104850004330DBB20BE03B68082B04D17B6893F854
:104860004430DBB203E07B6893F84530DBB2BB73C6
:10487000FB7B012B02D1BB7B012B01D001236DE01F
:104880003B68002B04D17B68022283F83E2013E0B2
:104890003B68042B04D17B68022283F83F200BE0A5
:1048A0003B68082B04D17B68022283F8402003E098
:1048B0007B68022283F841203B68002B04D17B688F
:1048C000022283F8422013E03B68042B04D17B686A
:1048D000022283F843200BE03B68082B04D17B685D
:1048E000022283F8442003E07B68022283F84520FB
:1048F0007B681B6801223968184603F040FD7B681D
:104900001B68184A93420ED07B681B68B3F1804F36
:1049100009D07B681B68144A934204D07B681B68EB
:10492000124A934211D17B681B689B6803F007030E
:10493000BB60BB68062B10D07B681B681A687B685D
:104940001B6842F001021A6007E07B681B681A6866
:104950007B681B6842F001021A600023184610377A
:10496000BD4680BD002C014000040040000800400E
:1049700080B582B000AF786039607B681B68002228
:104980003968184603F0FBFC7B681B681A6A41F221
:1049900011131340002B0FD17B681B681A6A40F279
:1049A00044431340002B07D17B681B681A687B685F
:1049B0001B6822F001021A603B68002B04D17B685F
:1049C000012283F83E2013E03B68042B04D17B686E
:1049D000012283F83F200BE03B68082B04D17B6861
:1049E000012283F8402003E07B68012283F8412004
:1049F0003B68002B04D17B68012283F8422013E03E
:104A00003B68042B04D17B68012283F843200BE030
:104A10003B68082B04D17B68012283F8442003E023
:104A20007B68012283F84520002318460837BD46DD
:104A300080BD80B584B000AF786039600023FB731F
:104A40003B68002B04D17B6893F83E30DBB213E067
:104A50003B68042B04D17B6893F83F30DBB20BE05A
:104A60003B68082B04D17B6893F84030DBB203E04D
:104A70007B6893F84130DBB2BB733B68002B04D1F9
:104A80007B6893F84230DBB213E03B68042B04D11F
:104A90007B6893F84330DBB20BE03B68082B04D112
:104AA0007B6893F84430DBB203E07B6893F84530D1
:104AB000DBB27B73BB7B012B02D17B7B012B01D053
:104AC0000123B7E03B68002B04D17B68022283F806
:104AD0003E2013E03B68042B04D17B68022283F85C
:104AE0003F200BE03B68082B04D17B68022283F84F
:104AF000402003E07B68022283F841203B68002BC2
:104B000004D17B68022283F8422013E03B68042B27
:104B100004D17B68022283F843200BE03B68082B1A
:104B200004D17B68022283F8442003E07B680222E0
:104B300083F845203B680C2B40D801A252F823F0A3
:104B4000754B0008BD4B0008BD4B0008BD4B00086D
:104B5000874B0008BD4B0008BD4B0008BD4B00084B
:104B6000994B0008BD4B0008BD4B0008BD4B000829
:104B7000AB4B00087B681B68DA687B681B6842F0F7
:104B80000202DA601DE07B681B68DA687B681B68DC
:104B900042F00402DA6014E07B681B68DA687B6824
:104BA0001B6842F00802DA600BE07B681B68DA6879
:104BB0007B681B6842F01002DA6002E00123FB739D
:104BC00000BFFB7B002B34D17B681B680122396856
:104BD000184603F0D4FB7B681B68184A93420ED03A
:104BE0007B681B68B3F1804F09D07B681B68144A4F
:104BF000934204D07B681B68124A934211D17B68B0
:104C00001B689B6803F00703BB60BB68062B10D0D2
:104C10007B681B681A687B681B6842F001021A6097
:104C200007E07B681B681A687B681B6842F001021A
:104C30001A60FB7B18461037BD4680BD002C014032
:104C4000000400400008004080B584B000AF7860E8
:104C500039600023FB733B680C2B41D801A252F84A
:104C600023F000BF994C0008E14C0008E14C00081B
:104C7000E14C0008AB4C0008E14C0008E14C000896
:104C8000E14C0008BD4C0008E14C0008E14C000874
:104C9000E14C0008CF4C00087B681B68DA687B6831
:104CA0001B6822F00202DA601DE07B681B68DA688C
:104CB0007B681B6822F00402DA6014E07B681B68E2
:104CC000DA687B681B6822F00802DA600BE07B6818
:104CD0001B68DA687B681B6822F01002DA6002E069
:104CE0000123FB7300BFFB7B002B56D17B681B6845
:104CF00000223968184603F042FB7B681B681A6A79
:104D000041F211131340002B0FD17B681B681A6A04
:104D100040F244431340002B07D17B681B681A689C
:104D20007B681B6822F001021A603B68002B04D1EB
:104D30007B68012283F83E2013E03B68042B04D1FA
:104D40007B68012283F83F200BE03B68082B04D1ED
:104D50007B68012283F8402003E07B68012283F80E
:104D600041203B68002B04D17B68012283F842205C
:104D700013E03B68042B04D17B68012283F84320B5
:104D80000BE03B68082B04D17B68012283F84420A8
:104D900003E07B68012283F84520FB7B184610372F
:104DA000BD4680BD80B586B000AFF860B9607A605E
:104DB0007B800023FB75BB68002B04D1FB6893F854
:104DC0003E30DBB213E0BB68042B04D1FB6893F8E0
:104DD0003F30DBB20BE0BB68082B04D1FB6893F8D3
:104DE0004030DBB203E0FB6893F84130DBB2BB75C7
:104DF000BB68002B04D1FB6893F84230DBB213E0B0
:104E0000BB68042B04D1FB6893F84330DBB20BE0A2
:104E1000BB68082B04D1FB6893F84430DBB203E095
:104E2000FB6893F84530DBB27B75BB7D022B02D06B
:104E30007B7D022B01D1022332E1BB7D012B43D1CB
:104E40007B7D012B40D17B68002B02D07B88002B1F
:104E500001D1012324E1BB68002B04D1FB680222AD
:104E600083F83E2013E0BB68042B04D1FB680222C8
:104E700083F83F200BE0BB68082B04D1FB680222BB
:104E800083F8402003E0FB68022283F84120BB68DE
:104E9000002B04D1FB68022283F8422016E0BB6895
:104EA000042B04D1FB68022283F843200EE0BB6888
:104EB000082B04D1FB68022283F8442006E0FB683B
:104EC000022283F8452001E00123E9E0FB681B682A
:104ED0000122B968184603F052FABB680C2B00F2A5
:104EE000AD8001A252F823F01D4F00083D5000088C
:104EF0003D5000083D500008654F00083D50000837
:104F00003D5000083D500008AD4F00083D500008DE
:104F10003D5000083D500008F54F0008FB685B6AF3
:104F2000614A9A62FB685B6A604ADA62FB685B6AA4
:104F30005F4A1A63FB68586AFB681B68343319467A
:104F40007A687B88FCF791F80346002B01D0012397
:104F5000A6E0FB681B68DA68FB681B6842F4007215
:104F6000DA606EE0FB689B6A4F4A9A62FB689B6A54
:104F70004E4ADA62FB689B6A4D4A1A63FB68986A7C
:104F8000FB681B68383319467A687B88FCF76DF834
:104F90000346002B01D0012382E0FB681B68DA681E
:104FA000FB681B6842F48062DA604AE0FB68DB6AF7
:104FB0003D4A9A62FB68DB6A3C4ADA62FB68DB6A5C
:104FC0003B4A1A63FB68D86AFB681B683C33194686
:104FD0007A687B88FCF749F80346002B01D001234F
:104FE0005EE0FB681B68DA68FB681B6842F40062DD
:104FF000DA6026E0FB681B6B2B4A9A62FB681B6B2E
:105000002A4ADA62FB681B6B294A1A63FB68186B31
:10501000FB681B68403319467A687B88FCF725F8E3
:105020000346002B01D001233AE0FB681B68DA68D5
:10503000FB681B6842F48052DA6002E00123FB75D2
:1050400000BFFB681B681B4A93420ED0FB681B68BD
:10505000B3F1804F09D0FB681B68174A934204D014
:10506000FB681B68154A934211D1FB681B689B685B
:1050700003F007033B613B69062B10D0FB681B68FC
:105080001A68FB681B6842F001021A6007E0FB68BF
:105090001B681A68FB681B6842F001021A60FB7DFE
:1050A00018461837BD4680BD7D790008457A00084E
:1050B000DB770008002C014000040040000800409D
:1050C00080B584B000AF786039600023FB737B68E3
:1050D0001B6800223968184603F051F93B680C2B15
:1050E00054D801A252F823F01D5100088D51000838
:1050F0008D5100088D510008395100088D5100086C
:105100008D5100088D510008555100088D5100083F
:105110008D5100088D510008715100087B681B6893
:10512000DA687B681B6822F40072DA607B685B6A6D
:105130001846FCF735F82CE07B681B68DA687B685A
:105140001B6822F48062DA607B689B6A1846FCF771
:1051500027F81EE07B681B68DA687B681B6822F40E
:105160000062DA607B68DB6A1846FCF719F810E029
:105170007B681B68DA687B681B6822F48052DA60FF
:105180007B681B6B1846FCF70BF802E00123FB73EE
:1051900000BFFB7B002B4FD17B681B681A6A41F272
:1051A00011131340002B0FD17B681B681A6A40F261
:1051B00044431340002B07D17B681B681A687B6847
:1051C0001B6822F001021A603B68002B04D17B6847
:1051D000012283F83E2013E03B68042B04D17B6856
:1051E000012283F83F200BE03B68082B04D17B6849
:1051F000012283F8402003E07B68012283F84120EC
:105200003B68002B04D17B68012283F8422013E025
:105210003B68042B04D17B68012283F843200BE018
:105220003B68082B04D17B68012283F8442003E00B
:105230007B68012283F84520FB7B18461037BD466A
:1052400080BD80B582B000AF786039607B68002B8C
:1052500001D1012341E07B6893F83D30DBB2002BA4
:1052600006D17B68002283F83C20786800F07DF846
:105270007B68022283F83D207B681A687B680433D0
:105280001946104602F05CFC7B681B681A687B6854
:105290001B6822F008021A607B681B6819687B682B
:1052A0001B683A680A431A607B68012283F846202B
:1052B0007B68012283F83E207B68012283F83F202F
:1052C0007B68012283F842207B68012283F8432017
:1052D0007B68012283F83D20002318460837BD462D
:1052E00080BD80B582B000AF78607B68022283F811
:1052F0003D207B681B681A6A41F211131340002B92
:105300000FD17B681B681A6A40F244431340002B9C
:1053100007D17B681B681A687B681B6822F0010252
:105320001A60786800F02AF87B68002283F846202B
:105330007B68002283F83E207B68002283F83F20B0
:105340007B68002283F842207B68002283F8432098
:105350007B68002283F83D207B68002283F83C2094
:10536000002318460837BD4680BD80B483B000AF27
:10537000786000BF0C37BD4680BC704780B483B0F6
:1053800000AF786000BF0C37BD4680BC704780B569
:1053900084B000AF786039607B6893F83E30FB736F
:1053A0007B6893F83F30BB737B6893F842307B7324
:1053B0007B6893F843303B73FB7B012B08D1BB7BAD
:1053C000012B05D17B7B012B02D13B7B012B01D033
:1053D00001232BE07B68022283F83E207B680222B7
:1053E00083F83F207B68022283F842207B680222F8
:1053F00083F843207B681B6801220021184602F0D5
:10540000BEFF7B681B6801220421184602F0B7FF2B
:105410007B681B68074A934207D17B681B685A6CFC
:105420007B681B6842F400425A6400231846103718
:10543000BD4680BD002C014080B582B000AF7860D1
:1054400039607B681B6800220021184602F097FF34
:105450007B681B6800220421184602F090FF7B68DD
:105460001B68244A934217D17B681B681A6A41F271
:1054700011131340002B0FD17B681B681A6A40F28E
:1054800044431340002B07D17B681B685A6C7B6830
:105490001B6822F400425A647B681B681A6A41F256
:1054A00011131340002B0FD17B681B681A6A40F25E
:1054B00044431340002B07D17B681B681A687B6844
:1054C0001B6822F001021A607B68012283F83E20EB
:1054D0007B68012283F83F207B68012283F8422009
:1054E0007B68012283F84320002318460837BD4615
:1054F00080BD00BF002C014080B584B000AF786053
:1055000039607B6893F83E30FB737B6893F83F30DB
:10551000BB737B6893F842307B737B6893F84330AE
:105520003B73FB7B012B08D1BB7B012B05D17B7B24
:10553000012B02D13B7B012B01D001233BE07B6897
:10554000022283F83E207B68022283F83F207B689A
:10555000022283F842207B68022283F843207B6882
:105560001B68DA687B681B6842F00202DA607B68BD
:105570001B68DA687B681B6842F00402DA607B68AB
:105580001B6801220021184602F0F9FE7B681B68A7
:1055900001220421184602F0F2FE7B681B68084ACB
:1055A000934207D17B681B685A6C7B681B6842F486
:1055B00000425A64002318461037BD4680BD00BF24
:1055C000002C014080B582B000AF786039607B6804
:1055D0001B68DA687B681B6822F00202DA607B686D
:1055E0001B68DA687B681B6822F00402DA607B685B
:1055F0001B6800220021184602F0C1FE7B681B6870
:1056000000220421184602F0BAFE7B681B68244A77
:10561000934217D17B681B681A6A41F21113134039
:10562000002B0FD17B681B681A6A40F24443134079
:10563000002B07D17B681B685A6C7B681B6822F4BF
:1056400000425A647B681B681A6A41F211131340C6
:10565000002B0FD17B681B681A6A40F24443134049
:10566000002B07D17B681B681A687B681B6822F0D7
:1056700001021A607B68012283F83E207B680122C8
:1056800083F83F207B68012283F842207B68012257
:1056900083F84320002318460837BD4680BD00BF6D
:1056A000002C014080B586B000AF786039607B681F
:1056B000002B01D1012393E07B6893F83D30DBB2EE
:1056C000002B06D17B68002283F83C20786800F02C
:1056D000CFF87B68022283F83D207B681B689B68BB
:1056E0007A68126823F4804323F0070393607B6891
:1056F0001A687B6804331946104602F021FA7B6869
:105700001B689B687B617B681B689B693B617B684E
:105710001B681B6AFB603B681B687A6913437B61EB
:105720003B6923F4407323F003033B613B689A68B1
:105730003B689B691B0213433A6913433B613B6916
:1057400023F4406323F00C033B613B6923F4704373
:1057500023F0F0033B613B68DA683B68DB691B02BE
:1057600013433A6913433B613B681B691A013B6869
:105770001B6A1B0313433A6913433B61FB6823F025
:105780002203FB603B685A683B685B691B0113435B
:10579000FA681343FB607B681B687A699A607B68D0
:1057A0001B683A699A617B681B68FA681A627B68B1
:1057B000012283F846207B68012283F83E207B6823
:1057C000012283F83F207B68012283F842207B6816
:1057D000012283F843207B68012283F83D200023C7
:1057E00018461837BD4680BD80B582B000AF7860DE
:1057F0007B68022283F83D207B681B681A6A41F2AD
:1058000011131340002B0FD17B681B681A6A40F2FA
:1058100044431340002B07D17B681B681A687B68E0
:105820001B6822F001021A60786800F02AF87B6891
:10583000002283F846207B68002283F83E207B68A4
:10584000002283F83F207B68002283F842207B6897
:10585000002283F843207B68002283F83D207B6888
:10586000002283F83C20002318460837BD4680BD3F
:1058700080B483B000AF786000BF0C37BD4680BCF9
:10588000704780B483B000AF786000BF0C37BD466E
:1058900080BC704780B584B000AF786039607B68A9
:1058A00093F83E30FB737B6893F83F30BB737B68A3
:1058B00093F842307B737B6893F843303B733B68CB
:1058C000002B10D1FB7B012B02D17B7B012B01D064
:1058D000012369E07B68022283F83E207B68022274
:1058E00083F8422031E03B68042B10D1BB7B012BB5
:1058F00002D13B7B012B01D0012355E07B680222C2
:1059000083F83F207B68022283F843201DE0FB7B65
:10591000012B08D1BB7B012B05D17B7B012B02D155
:105920003B7B012B01D001233EE07B68022283F800
:105930003E207B68022283F83F207B68022283F8A6
:1059400042207B68022283F843203B68002B03D06F
:105950003B68042B08D00FE07B681B680122002104
:10596000184602F00CFD16E07B681B68012204213A
:10597000184602F004FD0EE07B681B68012200213E
:10598000184602F0FCFC7B681B68012204211846C3
:1059900002F0F5FC00BF7B681B681A687B681B6817
:1059A00042F001021A60002318461037BD4680BD40
:1059B00080B582B000AF786039603B68002B03D0BF
:1059C0003B68042B08D00FE07B681B680022002195
:1059D000184602F0D4FC16E07B681B680022042104
:1059E000184602F0CCFC0EE07B681B680022002108
:1059F000184602F0C4FC7B681B680022042118468C
:105A000002F0BDFC00BF7B681B681A6A41F21113EB
:105A10001340002B0FD17B681B681A6A40F2444385
:105A20001340002B07D17B681B681A687B681B68D2
:105A300022F001021A603B68002B02D03B68042B65
:105A400038D13B68002B04D17B68012283F83E20CB
:105A500013E03B68042B04D17B68012283F83F20CC
:105A60000BE03B68082B04D17B68012283F84020BF
:105A700003E07B68012283F841203B68002B04D1BE
:105A80007B68012283F8422024E03B68042B04D188
:105A90007B68012283F843201CE03B68082B04D17B
:105AA0007B68012283F8442014E07B68012283F89C
:105AB00045200FE07B68012283F83E207B680122AD
:105AC00083F83F207B68012283F842207B68012213
:105AD00083F84320002318460837BD4680BD80B5B3
