:020000040800F2
:1000000000500020990A0008ED070008F3070008D7
:10001000F9070008FF0700080508000800000000B5
:100020000000000000000000000000000B080008B5
:100030001708000800000000230800082F08000827
:10004000E10A0008E10A0008E10A0008E10A0008E4
:10005000E10A0008E10A0008E10A0008E10A0008D4
:10006000E10A0008E10A0008E10A0008E10A0008C4
:10007000E10A0008E10A0008E10A0008E10A0008B4
:10008000E10A0008E10A0008E10A0008E10A0008A4
:10009000E10A0008E10A0008E10A0008E10A000894
:1000A000E10A0008E10A0008E10A0008E10A000884
:1000B0003D080008E10A0008E10A0008E10A00081A
:1000C000E10A0008E10A0008E10A0008E10A000864
:1000D000E10A0008E10A0008E10A0008E10A000854
:1000E000E10A0008E10A0008E10A00080000000037
:1000F0000000000000000000000000000000000000
:0C01000000000000000000005FF808F1A3
:10010C0010B5054C237833B9044B13B10448AFF345
:10011C0000800123237010BD64000020000000004B
:10012C000030000808B5034B1BB103490348AFF37B
:10013C00008008BD000000006800002000300008AE
:10014C00034613F8012B002AFBD1181A013870470B
:10015C0080B588B000AF07F1100300221A605A6016
:10016C009A60DA60244B9B69234A43F01003936135
:10017C00214B9B6903F01003FB60FB681E4B9B69D2
:10018C001D4A43F0200393611B4B9B6903F0200332
:10019C00BB60BB68184B9B69174A43F0040393611F
:1001AC00154B9B6903F004037B607B6800224FF4C2
:1001BC000051124800F09BFF4FF400533B610123A8
:1001CC007B610023BB610223FB6107F1100319461D
:1001DC000A4800F0F1FD01233B6100237B61002301
:1001EC00BB6107F110031946054800F0E5FD00BF9F
:1001FC002037BD4680BD00BF0010024000100140FA
:10020C000008014080B500AF00224FF400510248B5
:10021C0000F06DFF00BF80BD0010014080B500AF45
:10022C0001224FF40051024800F061FF00BF80BD75
:10023C000010014080B582B000AF124B5B699BB2DD
:10024C001946114800F03CFF03461A460D4B1A6242
:10025C000C4B1B6A7B600B4B5B6A3B607A683B68A0
:10026C009A420AD0074A7B6853627B68012B02D101
:10027C00064B05221A60012300E0002318460837BC
:10028C00BD4680BD8000002000080140A800002071
:10029C0080B582B000AF0023FB71F91D0A23012247
:1002AC000B4802F04CF8FB79312B04D1094B02229C
:1002BC001A60012308E0FB79322B04D1054B032291
:1002CC001A60012300E0002318460837BD4680BDA4
:1002DC0008010020A800002080B483B000AF786033
:1002EC007B681B68B3F1804F02D1044B02221A6069
:1002FC0000BF0C37BD4680BC704700BF000000201B
:10030C0080B400AF084B1B68022B07D1074B0622A9
:10031C001A60054B01221A60012300E000231846E5
:10032C00BD4680BC704700BF00000020A800002024
:10033C0080B500AFFFF77EFF0346012B0DD0FFF712
:10034C00A7FF0346012B08D0FFF7DAFF0346012B6A
:10035C0003D0034B01221A6000E000BF80BD00BF38
:10036C00A800002080B500AFFFF7E2FF7B4B1B68B5
:10037C00032B74D0032B00F3EB80012B02D0022B48
:10038C000CD0E5E0764B1B68012B05D1FFF73AFF4B
:10039C00724B02221A6000E000BFD9E0704B1B6860
:1003AC00013B042B59D801A252F823F06704000832
:1003BC00FB030008CD0300086704000829040008AB
:1003CC00684A6949694800F091F9694A6649674881
:1003DC0000F08CF9674A6449644800F087F9614A77
:1003EC006149624800F082F9FFF70CFF36E05D4A84
:1003FC005D495E4800F07AF95D4A5B495B4800F064
:10040C0075F95D4A5849594800F070F9554A5649F2
:10041C00564800F06BF9FFF701FF1FE0514A5249B3
:10042C00524800F063F9524A4F49504800F05EF9C7
:10043C00524A4D494D4800F059F94A4A4A494B48ED
:10044C0000F054F94E49494800F050F94D4801F07C
:10045C00C7FA424B03221A6000E000BF78E0404B21
:10046C001B68013B052B71D801A252F823F000BF89
:10047C0059050008C3040008950400081B05000872
:10048C00F10400081B050008364A3749374800F0CC
:10049C002DF93D4A3449354800F028F9354A32499E
:1004AC00324800F023F92F4A2F49304800F01EF94A
:1004BC00FFF7A8FE4BE02B4A2B492C4800F016F90D
:1004CC00314A2949294800F011F92B4A2649274875
:1004DC0000F00CF9234A2449244800F007F9FFF7EF
:1004EC009DFE34E01F4A2049204800F0FFF8274ABF
:1004FC001D491E4800F0FAF8254A1B491B4800F01C
:10050C00F5F8184A1849194800F0F0F81FE0154A98
:10051C001549164800F0EAF81C4A1349134800F034
:10052C00E5F8134A1049114800F0E0F80D4A0E495D
:10053C000E4800F0DBF817490C4800F0D7F81148CA
:10054C0001F0A0FA054B02221A6000E000BF00BFC8
:10055C00034B01221A6000BF80BD00BFB400002015
:10056C00A8000020183000083830000808010020CE
:10057C00403000084830000850300008583000085F
:10058C0064300008C000002078300008803000087B
:10059C008C300008A030000880B400AF0B4B012257
:1005AC001A600B4B4FF400521A60094B094A5A60FF
:1005BC00074B01225A61064B074A9A61074B0022EE
:1005CC001A6000BFBD4680BC704700BFB40000205D
:1005DC00800000200010014000080140B8000020FD
:1005EC0080B500AF00F078FA00F00BF8FFF7B0FD23
:1005FC0000F0D6F900F062F9FFF7CEFFFFF7B2FE7C
:10060C00FCE780B590B000AF07F118032822002159
:10061C00184602F05DF83B1D00221A605A609A6081
:10062C00DA601A610223BB610123BB621023FB62F7
:10063C0000237B6307F11803184600F071FD034695
:10064C00002B01D000F018F80F237B600023BB6057
:10065C000023FB6000233B6100237B613B1D0021D9
:10066C00184600F0DFFF0346002B01D000F004F821
:10067C0000BF4037BD4680BD80B400AF72B600BF2E
:10068C00FEE780B584B000AFF860B9607A607B6833
:10069C009AB24FF47A73B968F86801F0CDFD03464D
:1006AC00002B01D17B6800E0002318461037BD46B3
:1006BC0080BD000080B586B000AFF860B9607A608C
:1006CC0000237B61084B1B78012B01D0022B06E029
:1006DC007A68B968F868FFF7D4FF786100BF7B6966
:1006EC0018461837BD4680BD040000200EB480B5F6
:1006FC00C5B000AF07F58873A3F58673186007F5CE
:10070C008873A3F5807300221A600433FB22002146
:10071C00184601F0DDFF002387F80F3107F59072C2
:10072C0007F58873A3F582731A6007F58873A3F530
:10073C00827307F110001B68D7F81C21FF2101F010
:10074C00B9FF034687F80F3107F110031846FFF77E
:10075C00F7FC03461A4607F1100107F58873A3F559
:10076C0086731868FFF7A6FF97F80F31184607F540
:10077C008A77BD46BDE8804003B0704780B485B031
:10078C0000AF154B9B69144A43F001039361124B64
:10079C009B6903F00103BB60BB680F4BDB690E4A1E
:1007AC0043F08053D3610C4BDB6903F080537B60C7
:1007BC007B680A4B5B68FB60FB6823F0E063FB60C3
:1007CC00FB6843F00073FB60044AFB68536000BF96
:1007DC001437BD4680BC7047001002400000014039
:1007EC0080B400AFFEE780B400AFFEE780B400AF8A
:1007FC00FEE780B400AFFEE780B400AFFEE780B444
:10080C0000AF00BFBD4680BC704780B400AF00BFD6
:10081C00BD4680BC704780B400AF00BFBD4680BCF5
:10082C00704780B500AF00F09DF900BF80BD00009F
:10083C0080B500AF024801F053F900BF80BD00BF86
:10084C00C000002080B586B000AF7860144A154B0C
:10085C00D31A7B617B693B61134B1B68002B02D164
:10086C00114B124A1A60104B1A687B6813443A6990
:10087C009A4207D201F034FF03460C221A604FF063
:10088C00FF3309E0084B1B68FB60074B1A687B6859
:10089C001344054A1360FB6818461837BD4680BDE3
:1008AC000050002000040000BC000020A00200202A
:1008BC0080B400AF00BFBD4680BC704780B586B029
:1008CC0000AF07F1080300221A605A609A60DA60E0
:1008DC003B4600221A605A601E4B4FF080421A6051
:1008EC001C4B42F210725A601A4B00229A60194B40
:1008FC004FF4FA62DA60174B00221A61154B002292
:10090C009A61144801F01CF80346002B01D0FFF744
:10091C00B3FE4FF48053BB6007F1080319460D4832
:10092C0001F0E6F90346002B01D0FFF7A5FE0023EA
:10093C003B6000237B603B461946064801F0BCFB3C
:10094C000346002B01D0FFF797FE00BF1837BD46BA
:10095C0080BD00BFC000002080B584B000AF7860BF
:10096C007B681B68B3F1804F13D10C4BDB690B4ACE
:10097C0043F00103D361094BDB6903F00103FB6016
:10098C00FB68002200211C2000F0DFF91C2000F085
:10099C00F8F900BF1037BD4680BD00BF0010024003
:1009AC0080B500AF114B124A1A60104B4FF416521F
:1009BC005A600E4B00229A600C4B0022DA600B4BF3
:1009CC0000221A61094B0C225A61084B00229A61D1
:1009DC00064B0022DA61054801F0DEFB0346002BD2
:1009EC0001D0FFF749FE00BF80BD00BF0801002009
:1009FC000038014080B588B000AF786007F1100373
:100A0C0000221A605A609A60DA607B681B681C4A84
:100A1C00934231D11B4B9B691A4A43F48043936137
:100A2C00184B9B6903F48043FB60FB68154B9B6977
:100A3C00144A43F004039361124B9B6903F00403C3
:100A4C00BB60BB684FF400733B6102237B610323E3
:100A5C00FB6107F1100319460B4800F0ADF94FF498
:100A6C0080633B6100237B610023BB6107F11003B2
:100A7C001946054800F0A0F900BF2037BD4680BDDF
:100A8C00003801400010024000080140FFF710FF41
:100A9C000B480C490C4A002302E0D458C4500433D0
:100AAC00C4188C42F9D3094A094C002301E01360A5
:100ABC000432A242FBD301F019FEFFF791FD7047FF
:100ACC0000000020640000201C310008640000209D
:100ADC009C020020FEE7000080B500AF084B1B68AD
:100AEC00074A43F010031360032000F023F90F2092
:100AFC0000F008F8FFF742FE0023184680BD00BF47
:100B0C000020024080B582B000AF7860124B1A68AA
:100B1C00124B1B7819464FF47A73B3FBF1F3B2FB0B
:100B2C00F3F3184600F03BF90346002B01D00123E8
:100B3C000EE07B680F2B0AD8002279684FF0FF304B
:100B4C0000F003F9064A7B681360002300E00123E0
:100B5C0018460837BD4680BD080000201000002054
:100B6C000C00002080B400AF054B1B781A46054BD7
:100B7C001B681344034A136000BFBD4680BC70471A
:100B8C00100000205001002080B400AF024B1B6805
:100B9C001846BD4680BC70475001002080B485B01B
:100BAC0000AF78607B6803F00703FB600C4BDB68DD
:100BBC00BB60BA684FF6FF031340BB60FB681A02B8
:100BCC00BB68134343F0BF6343F40033BB60044A78
:100BDC00BB68D36000BF1437BD4680BC704700BFF4
:100BEC0000ED00E080B400AF044BDB681B0A03F09F
:100BFC0007031846BD4680BC704700BF00ED00E0FF
:100C0C0080B483B000AF0346FB7197F90730002B1B
:100C1C000BDBFB7903F01F02064997F907305B09E0
:100C2C00012000FA02F241F8232000BF0C37BD4628
:100C3C0080BC704700E100E080B483B000AF034695
:100C4C003960FB7197F90730002B0ADB3B68DAB28D
:100C5C000C4997F907301201D2B20B4483F80023E8
:100C6C000AE03B68DAB20849FB7903F00F03043B56
:100C7C001201D2B20B441A7600BF0C37BD4680BCB1
:100C8C00704700BF00E100E000ED00E080B489B0E7
:100C9C0000AFF860B9607A60FB6803F00703FB6192
:100CAC00FB69C3F10703042B28BF0423BB61FB6959
:100CBC000433062B02D9FB69033B00E000237B6164
:100CCC004FF0FF32BB6902FA03F3DA43BB681A40F8
:100CDC007B699A404FF0FF317B6901FA03F3D943EA
:100CEC007B680B40134318462437BD4680BC7047C5
:100CFC0080B582B000AF78607B68013BB3F1807F38
:100D0C0001D301230FE00A4A7B68013B53600F219A
:100D1C004FF0FF30FFF790FF054B00229A60044B19
:100D2C0007221A60002318460837BD4680BD00BF55
:100D3C0010E000E080B582B000AF78607868FFF713
:100D4C002DFF00BF0837BD4680BD80B586B000AF13
:100D5C000346B9607A60FB7300237B61FFF742FFA7
:100D6C0078617A68B9687869FFF790FF024697F95D
:100D7C000F3011461846FFF75FFF00BF1837BD460E
:100D8C0080BD80B582B000AF0346FB7197F9073088
:100D9C001846FFF735FF00BF0837BD4680BD80B54C
:100DAC0082B000AF78607868FFF7A2FF0346184660
:100DBC000837BD4680BD000080B48BB000AF7860B2
:100DCC00396000237B6200233B6269E101227B6A6C
:100DDC0002FA03F3FB613B681B68FA691340BB61C1
:100DEC00BA69FB699A4240F058813B685B689A4A41
:100DFC0093425ED0984A934275D8984A934258D001
:100E0C00964A93426FD8964A934252D0944A934250
:100E1C0069D8944A93424CD0924A934263D8924AEE
:100E2C00934246D0904A93425DD8122B2AD8122B6B
:100E3C0059D801A252F823F0BF0E0008990E0008F1
:100E4C00AB0E0008ED0E0008F30E0008F30E0008C0
:100E5C00F30E0008F30E0008F30E0008F30E000862
:100E6C00F30E0008F30E0008F30E0008F30E000852
:100E7C00F30E0008F30E0008F30E0008A10E000894
:100E8C00B50E0008794A934213D02CE03B68DB681E
:100E9C003B6229E03B68DB6804333B6224E03B683F
:100EAC00DB6808333B621FE03B68DB680C333B625A
:100EBC001AE03B689B68002B02D104233B6213E0D1
:100ECC003B689B68012B05D108233B627B68FA6960
:100EDC001A6109E008233B627B68FA695A6103E0F6
:100EEC0000233B6200E000BFBB69FF2B01D87B688D
:100EFC0001E07B6804337B61BB69FF2B02D87B6A02
:100F0C009B0002E07B6A083B9B003B617B691A6893
:100F1C000F213B6901FA03F3DB431A40396A3B6941
:100F2C0001FA03F31A437B691A603B685B6803F0B0
:100F3C008053002B00F0B1804D4B9B694C4A43F021
:100F4C00010393614A4B9B6903F00103BB60BB68CF
:100F5C00484A7B6A9B08023352F82330FB607B6A59
:100F6C0003F003039B000F2202FA03F3DB43FA683E
:100F7C001340FB607B68404A934213D07B683F4A26
:100F8C0093420DD07B683E4A934207D07B683D4A22
:100F9C00934201D1032306E0042304E0022302E080
:100FAC00012300E000237A6A02F0030292009340CE
:100FBC00FA681343FB602F497B6A9B080233FA687B
:100FCC0041F823203B685B6803F48013002B06D0A8
:100FDC002D4B9A682C49BB6913438B6006E02A4B56
:100FEC009A68BB69DB43284913408B603B685B689C
:100FFC0003F40013002B06D0234BDA682249BB699B
:10100C001343CB6006E0204BDA68BB69DB431E4917
:10101C001340CB603B685B6803F40033002B06D0B5
:10102C00194B5A681849BB6913434B6006E0164BC1
:10103C005A68BB69DB43144913404B603B685B68DF
:10104C0003F48033002B21D00F4B1A680E49BB6977
:10105C0013430B6021E000BF000032100000311080
:10106C0000002210000021100000121000001110CE
:10107C00001002400000014000080140000C01403B
:10108C000010014000140140000401400B4B1A6891
:10109C00BB69DB43094913400B607B6A01337B62FC
:1010AC003B681A687B6A22FA03F3002B7FF48EAE3E
:1010BC0000BF00BF2C37BD4680BC70470004014008
:1010CC0080B485B000AF78600B467B807B689A68F3
:1010DC007B881340002B02D00123FB7301E000231B
:1010EC00FB73FB7B18461437BD4680BC704780B43D
:1010FC0083B000AF78600B467B8013467B707B78A7
:10110C00002B03D07A887B681A6103E07B881A0471
:10111C007B681A6100BF0C37BD4680BC704700006D
:10112C0080B586B000AF78607B68002B01D10123BD
:10113C0072E27B681B6803F00103002B00F08780D0
:10114C00924B5B6803F00C03042B0CD08F4B5B6849
:10115C0003F00C03082B12D18C4B5B6803F4803327
:10116C00B3F5803F0BD1894B1B6803F40033002B84
:10117C006CD07B685B68002B68D101234CE27B68E8
:10118C005B68B3F5803F06D1804B1B687F4A43F404
:10119C00803313602EE07B685B68002B0CD17B4B9B
:1011AC001B687A4A23F480331360784B1B68774AA8
:1011BC0023F4802313601DE07B685B68B3F5A02FDC
:1011CC000CD1724B1B68714A43F4802313606F4B34
:1011DC001B686E4A43F4803313600BE06B4B1B6847
:1011EC006A4A23F480331360684B1B68674A23F404
:1011FC00802313607B685B68002B13D0FFF7C4FC63
:10120C00386108E0FFF7C0FC02463B69D31A642B37
:10121C0001D9032300E25D4B1B6803F40033002B60
:10122C00F0D014E0FFF7B0FC386108E0FFF7ACFC3D
:10123C0002463B69D31A642B01D90323ECE1534BCF
:10124C001B6803F40033002BF0D100E000BF7B6877
:10125C001B6803F00203002B63D04C4B5B6803F05C
:10126C000C03002B0BD0494B5B6803F00C03082BD1
:10127C001CD1464B5B6803F48033002B16D1434BD7
:10128C001B6803F00203002B05D07B681B69012B44
:10129C0001D00123C0E13D4B1B6823F0F8027B68B1
:1012AC005B69DB00394913430B603AE07B681B69CF
:1012BC00002B20D0364B01221A60FFF765FC3861F9
:1012CC0008E0FFF761FC02463B69D31A022B01D9F7
:1012DC000323A1E12D4B1B6803F00203002BF0D07C
:1012EC002A4B1B6823F0F8027B685B69DB002749FB
:1012FC0013430B6015E0264B00221A60FFF744FCE9
:10130C00386108E0FFF740FC02463B69D31A022B18
:10131C0001D9032380E11D4B1B6803F00203002B52
:10132C00F0D17B681B6803F00803002B3AD07B6874
:10133C009B69002B19D0174B01221A60FFF724FC74
:10134C00386108E0FFF720FC02463B69D31A022BF8
:10135C0001D9032360E10D4B5B6A03F00203002B00
:10136C00F0D0012000F0CEFA1CE00A4B00221A60EB
:10137C00FFF70AFC38610FE0FFF706FC02463B69F9
:10138C00D31A022B08D9032346E100BF00100240F8
:10139C000000424280044242924B5B6A03F002031B
:1013AC00002BE9D17B681B6803F00403002B00F0D1
:1013BC00A6800023FB758B4BDB6903F08053002B5D
:1013CC000DD1884BDB69874A43F08053D361854B41
:1013DC00DB6903F08053BB60BB680123FB75824B58
:1013EC001B6803F48073002B18D17F4B1B687E4A5B
:1013FC0043F480731360FFF7C7FB386108E0FFF715
:10140C00C3FB02463B69D31A642B01D9032303E1C6
:10141C00754B1B6803F48073002BF0D07B68DB6882
:10142C00012B06D16F4B1B6A6E4A43F0010313620A
:10143C002DE07B68DB68002B0CD16A4B1B6A694A78
:10144C0023F001031362674B1B6A664A23F0040303
:10145C0013621CE07B68DB68052B0CD1614B1B6AAB
:10146C00604A43F0040313625E4B1B6A5D4A43F00F
:10147C00010313620BE05B4B1B6A5A4A23F0010316
:10148C001362584B1B6A574A23F0040313627B68A0
:10149C00DB68002B15D0FFF777FB38610AE0FFF70C
:1014AC0073FB02463B69D31A41F28832934201D94D
:1014BC000323B1E04B4B1B6A03F00203002BEED06D
:1014CC0014E0FFF761FB38610AE0FFF75DFB0246B1
:1014DC003B69D31A41F28832934201D903239BE032
:1014EC00404B1B6A03F00203002BEED1FB7D012B5A
:1014FC0005D13C4BDB693B4A23F08053D3617B68BD
:10150C00DB69002B00F08780364B5B6803F00C0323
:10151C00082B61D07B68DB69022B46D1334B002250
:10152C001A60FFF731FB386108E0FFF72DFB02462C
:10153C003B69D31A022B01D903236DE0294B1B689D
:10154C0003F00073002BF0D17B681B6AB3F5803F6E
:10155C0008D1244B5B6823F400327B689B682149DB
:10156C0013434B601F4B5B6823F474127B68196A3E
:10157C007B685B6A0B431B4913434B601B4B01227B
:10158C001A60FFF701FB386108E0FFF7FDFA02462D
:10159C003B69D31A022B01D903233DE0114B1B6885
:1015AC0003F00073002BF0D035E0104B00221A60D2
:1015BC00FFF7EAFA386108E0FFF7E6FA02463B6902
:1015CC00D31A022B01D9032326E0064B1B6803F028
:1015DC000073002BF0D11EE07B68DB69012B07D177
:1015EC00012319E0001002400070004060004242EC
:1015FC000B4B5B68FB60FB6803F480327B681B6AF7
:10160C009A4206D1FB6803F470127B685B6A9A42BB
:10161C0001D0012300E0002318461837BD4680BDD9
:10162C000010024080B584B000AF786039607B68F0
:10163C00002B01D10123D0E06A4B1B6803F0070398
:10164C003A689A4210D9674B1B6823F00702654928
:10165C003B6813430B60634B1B6803F007033A684A
:10166C009A4201D00123B8E07B681B6803F00203A7
:10167C00002B20D07B681B6803F00403002B05D0E3
:10168C00594B5B68584A43F4E06353607B681B68B2
:10169C0003F00803002B05D0534B5B68524A43F40C
:1016AC0060535360504B5B6823F0F0027B689B687F
:1016BC004D4913434B607B681B6803F00103002BFF
:1016CC0040D07B685B68012B07D1474B1B6803F448
:1016DC000033002B15D101237FE07B685B68022B64
:1016EC0007D1414B1B6803F00073002B09D1012378
:1016FC0073E03D4B1B6803F00203002B01D1012367
:10170C006BE0394B5B6823F003027B685B683649FE
:10171C0013434B60FFF738FAF8600AE0FFF734FA2E
:10172C000246FB68D31A41F28832934201D9032353
:10173C0053E02D4B5B6803F00C027B685B689B00ED
:10174C009A42EBD1274B1B6803F007033A689A4285
:10175C0010D2244B1B6823F0070222493B68134329
:10176C000B60204B1B6803F007033A689A4201D0C8
:10177C00012332E07B681B6803F00403002B08D0C4
:10178C00194B5B6823F4E0627B68DB6816491343F2
:10179C004B607B681B6803F00803002B09D0124BCD
:1017AC005B6823F460527B681B69DB000E491343B2
:1017BC004B6000F021F802460B4B5B681B0903F0F1
:1017CC000F030A49CB5C22FA03F3094A1360094B55
:1017DC001B681846FFF796F9002318461037BD46CC
:1017EC0080BD00BF0020024000100240B430000851
:1017FC00080000200C00002080B487B000AF00234C
:10180C00FB600023BB6000237B6100237B60002313
:10181C003B611E4B5B68FB60FB6803F00C03042B05
:10182C0002D0082B03D027E0194B3B6127E0FB6863
:10183C009B0C03F00F03174AD35C7B60FB6803F42B
:10184C008033002B10D0114B5B685B0C03F0010351
:10185C00114AD35CBB607B680D4A03FB02F2BB6888
:10186C00B2FBF3F37B6104E07B680C4A02FB03F3ED
:10187C007B617B693B6102E0054B3B6100BF3B69CF
:10188C0018461C37BD4680BC704700BF0010024094
:10189C0000127A00CC300008DC30000800093D0052
:1018AC0080B400AF024B1B681846BD4680BC704725
:1018BC000800002080B500AFFFF7F2FF0246054B91
:1018CC005B681B0A03F007030349CB5C22FA03F3A2
:1018DC00184680BD00100240C430000880B500AF2F
:1018EC00FFF7DEFF0246054B5B68DB0A03F00703DC
:1018FC000349CB5C22FA03F3184680BD001002406A
:10190C00C430000880B485B000AF78600A4B1B6807
:10191C000A4AA2FB03235B0A7A6802FB03F3FB600F
:10192C0000BFFB685A1EFA60002BF9D100BF00BF44
:10193C001437BD4680BC704708000020D34D6210A0
:10194C0080B582B000AF78607B68002B01D1012399
:10195C0041E07B6893F83D30DBB2002B06D17B680D
:10196C00002283F83C207868FEF7F6FF7B680222A1
:10197C0083F83D207B681A687B680433194610464F
:10198C0000F0A2FA7B68012283F846207B680122D2
:10199C0083F83E207B68012283F83F207B6801227C
:1019AC0083F840207B68012283F841207B68012268
:1019BC0083F842207B68012283F843207B68012254
:1019CC0083F844207B68012283F845207B68012240
:1019DC0083F83D20002318460837BD4680BD000023
:1019EC0080B485B000AF78607B6893F83D30DBB293
:1019FC00012B01D001233AE07B68022283F83D20C1
:101A0C007B681B68DA687B681B6842F00102DA604D
:101A1C007B681B68184A93420ED07B681B68B3F135
:101A2C00804F09D07B681B68144A934204D07B68B2
:101A3C001B68134A934211D17B681B689B6803F0A7
:101A4C000703FB60FB68062B10D07B681B681A68C9
:101A5C007B681B6842F001021A6007E07B681B6818
:101A6C001A687B681B6842F001021A600023184652
:101A7C001437BD4680BC7047002C01400004004068
:101A8C000008004080B483B000AF78607B681B68AE
:101A9C00DA687B681B6822F00102DA607B681B68DD
:101AAC001A6A41F211131340002B0FD17B681B688B
:101ABC001A6A40F244431340002B07D17B681B6821
:101ACC001A687B681B6822F001021A607B6801228D
:101ADC0083F83D20002318460C37BD4680BC704768
:101AEC0080B582B000AF78607B681B681B6903F01F
:101AFC000203022B22D17B681B68DB6803F0020314
:101B0C00022B1BD17B681B686FF002021A617B6889
:101B1C0001221A777B681B689B6903F00303002B77
:101B2C0003D0786800F0B4F905E0786800F0A7F904
:101B3C00786800F0B6F97B6800221A777B681B681E
:101B4C001B6903F00403042B22D17B681B68DB6840
:101B5C0003F00403042B1BD17B681B686FF0040299
:101B6C001A617B6802221A777B681B689B6903F4F5
:101B7C004073002B03D0786800F08AF905E0786890
:101B8C0000F07DF9786800F08CF97B6800221A77F8
:101B9C007B681B681B6903F00803082B22D17B6848
:101BAC001B68DB6803F00803082B1BD17B681B68E0
:101BBC006FF008021A617B6804221A777B681B6835
:101BCC00DB6903F00303002B03D0786800F060F9A5
:101BDC0005E0786800F053F9786800F062F97B68EA
:101BEC0000221A777B681B681B6903F01003102B0B
:101BFC0022D17B681B68DB6803F01003102B1BD110
:101C0C007B681B686FF010021A617B6808221A77D8
:101C1C007B681B68DB6903F44073002B03D0786886
:101C2C0000F036F905E0786800F029F9786800F0E2
:101C3C0038F97B6800221A777B681B681B6903F0F4
:101C4C000103012B0ED17B681B68DB6803F00103D9
:101C5C00012B07D17B681B686FF001021A61786851
:101C6C00FEF73AFB7B681B681B6903F08003802B33
:101C7C000ED17B681B68DB6803F08003802B07D1D7
:101C8C007B681B686FF080021A61786800F07BFA41
:101C9C007B681B681B6903F04003402B0ED17B68EB
:101CAC001B68DB6803F04003402B07D17B681B6883
:101CBC006FF040021A61786800F0FCF87B681B68D2
:101CCC001B6903F02003202B0ED17B681B68DB689B
:101CDC0003F02003202B07D17B681B686FF02002D8
:101CEC001A61786800F046FA00BF0837BD4680BD1F
:101CFC0080B584B000AF786039600023FB737B68DB
:101D0C0093F83C30012B01D10223B4E07B68012213
:101D1C0083F83C207B68022283F83D207B681B689B
:101D2C009B68BB60BB6823F07703BB60BB6823F484
:101D3C007F43BB607B681B68BA689A603B681B6812
:101D4C00B3F5005F3ED0B3F5005F00F28780B3F5CA
:101D5C00805F00F08680B3F5805F7FD8702B1AD03F
:101D6C00702B7BD8602B50D0602B77D8502B3CD06D
:101D7C00502B73D8402B58D0402B6FD8302B64D0BD
:101D8C00302B6BD8202B60D0202B67D8002B5CD04D
:101D9C00102B5AD062E07B6818683B6899683B68E6
:101DAC005A683B68DB6800F068F97B681B689B68C5
:101DBC00BB60BB6843F07703BB607B681B68BA6889
:101DCC009A604FE07B6818683B6899683B685A6872
:101DDC003B68DB6800F051F97B681B689A687B688C
:101DEC001B6842F480429A603CE07B6818683B6850
:101DFC0059683B68DB681A4600F0C8F87B681B68BA
:101E0C005021184600F01FF92CE07B6818683B68DD
:101E1C0059683B68DB681A4600F0E6F87B681B687B
:101E2C006021184600F00FF91CE07B6818683B68CD
:101E3C0059683B68DB681A4600F0A8F87B681B6899
:101E4C004021184600F0FFF80CE07B681A683B68EC
:101E5C001B681946104600F0F6F803E00123FB73EB
:101E6C0000E000BF7B68012283F83D207B680022E4
:101E7C0083F83C20FB7B18461037BD4680BD80B4F0
:101E8C0083B000AF786000BF0C37BD4680BC704794
:101E9C0080B483B000AF786000BF0C37BD4680BC07
:101EAC00704780B483B000AF786000BF0C37BD467C
:101EBC0080BC704780B483B000AF786000BF0C3733
:101ECC00BD4680BC7047000080B485B000AF786020
:101EDC0039607B681B68FB607B68294A93420BD096
:101EEC007B68B3F1804F07D07B68264A934203D0BE
:101EFC007B68254A934208D1FB6823F07003FB6092
:101F0C003B685B68FA681343FB607B681C4A93422E
:101F1C000BD07B68B3F1804F07D07B68194A934292
:101F2C0003D07B68184A934208D1FB6823F44073B2
:101F3C00FB603B68DB68FA681343FB60FB6823F0CB
:101F4C0080023B685B691343FB607B68FA681A602C
:101F5C003B689A687B68DA623B681A687B689A62AD
:101F6C007B68074A934203D13B681A697B681A6302
:101F7C007B6801225A6100BF1437BD4680BC704794
:101F8C00002C0140000400400008004080B487B0E1
:101F9C0000AFF860B9607A60FB681B6A7B61FB6814
:101FAC001B6A23F00102FB681A62FB689B693B61A8
:101FBC003B6923F0F0033B617B681B013A691343D7
:101FCC003B617B6923F00A037B617A69BB6813432D
:101FDC007B61FB683A699A61FB687A691A6200BF97
:101FEC001C37BD4680BC704780B487B000AFF8602A
:101FFC00B9607A60FB681B6A7B61FB681B6A23F023
:10200C001002FB681A62FB689B693B613B6923F415
:10201C0070433B617B681B033A6913433B617B69EB
:10202C0023F0A0037B61BB681B017A6913437B61BE
:10203C00FB683A699A61FB687A691A6200BF1C37BF
:10204C00BD4680BC704780B485B000AF7860396005
:10205C007B689B68FB60FB6823F07003FB603A684D
:10206C00FB68134343F00703FB607B68FA689A60D4
:10207C0000BF1437BD4680BC704780B487B000AF3A
:10208C00F860B9607A603B60FB689B687B617B6938
:10209C0023F47F437B613B681A027B681A43BB685D
:1020AC0013437A6913437B61FB687A699A6000BFBA
:1020BC001C37BD4680BC704780B485B000AF7860DB
:1020CC0039607B6893F83C30012B01D1022346E048
:1020DC007B68012283F83C207B68022283F83D2038
:1020EC007B681B685B68FB607B681B689B68BB60DC
:1020FC00FB6823F07003FB603B681B68FA681343B2
:10210C00FB607B681B68FA685A607B681B68164A20
:10211C0093420ED07B681B68B3F1804F09D07B686B
:10212C001B68124A934204D07B681B68104A934286
:10213C000CD1BB6823F08003BB603B685B68BA685A
:10214C001343BB607B681B68BA689A607B6801228A
:10215C0083F83D207B68002283F83C20002318463E
:10216C001437BD4680BC7047002C01400004004071
:10217C000008004080B483B000AF786000BF0C371B
:10218C00BD4680BC704780B483B000AF786000BFA0
:10219C000C37BD4680BC704780B582B000AF78600C
:1021AC007B68002B01D1012342E07B6893F841301E
:1021BC00DBB2002B06D17B68002283F840207868C4
:1021CC00FEF718FC7B68242283F841207B681B688F
:1021DC00DA687B681B6822F40052DA60786800F0D9
:1021EC00AFF97B681B681A697B681B6822F4904204
:1021FC001A617B681B685A697B681B6822F02A028B
:10220C005A617B681B68DA687B681B6842F4005271
:10221C00DA607B6800225A647B68202283F84120B4
:10222C007B68202283F842207B6800225A630023BB
:10223C0018460837BD4680BD80B58AB002AFF8603D
:10224C00B9603B601346FB8000237B61FB6893F80D
:10225C004130DBB2202B6DD1BB68002B02D0FB8848
:10226C00002B01D1012366E0FB6800225A64FB6855
:10227C00212283F84120FEF787FC7861FB68FA88FD
:10228C009A84FB68FA88DA84FB689B68B3F5805FF4
:10229C0008D1FB681B69002B04D10023FB61BB68D0
:1022AC00BB6103E0BB68FB610023BB612AE03B68B8
:1022BC0000937B6900228021F86800F0D2F8034675
:1022CC00002B01D0032336E0FB69002B0BD1BB693B
:1022DC001B881A46FB681B68C2F308025A60BB696C
:1022EC000233BB6107E0FB691A78FB681B685A6014
:1022FC00FB690133FB61FB68DB8C9BB2013B9AB23F
:10230C00FB68DA84FB68DB8C9BB2002BCFD13B687B
:10231C0000937B6900224021F86800F0A2F8034684
:10232C00002B01D0032306E0FB68202283F8412018
:10233C00002300E0022318462037BD4680BD80B53F
:10234C008AB002AFF860B9603B601346FB80002393
:10235C007B61FB6893F84230DBB2202B7CD1BB68ED
:10236C00002B02D0FB88002B01D1012375E0FB6808
:10237C0000225A64FB68222283F84220FB68002268
:10238C001A63FEF701FC7861FB68FA889A85FB6892
:10239C00FA88DA85FB689B68B3F5805F08D1FB6827
:1023AC001B69002B04D10023FB61BB68BB6103E0FC
:1023BC00BB68FB610023BB6143E03B6800937B6916
:1023CC0000222021F86800F04CF80346002B01D0C5
:1023DC00032342E0FB69002B0CD1FB681B685B6894
:1023EC009BB2C3F308039AB2BB691A80BB69023370
:1023FC00BB611FE0FB689B68B3F5805F07D0FB688F
:10240C009B68002B0AD1FB681B69002B06D1FB686B
:10241C001B685B68DAB2FB691A7008E0FB681B6822
:10242C005B68DBB203F07F03DAB2FB691A70FB69FD
:10243C000133FB61FB68DB8D9BB2013B9AB2FB68FD
:10244C00DA85FB68DB8D9BB2002BB6D1FB682022B2
:10245C0083F84220002300E0022318462037BD46B3
:10246C0080BD80B590B000AFF860B9603B6013469A
:10247C00FB7150E0BB6CB3F1FF3F4CD0BB6C002B3D
:10248C0007D0FEF781FB02463B68D31ABA6C9A421E
:10249C0041D2FB681B680C33BB62BB6A53E8003F3C
:1024AC007B627B6A23F4D073FB63FB681B680C3381
:1024BC00FA6B7A633B63396B7A6B41E80023FB62FE
:1024CC00FB6A002BE5D1FB681B6814337B617B69CD
:1024DC0053E8003F3B613B6923F00103BB63FB689E
:1024EC001B681433BA6B3A62FB61F9693A6A41E8CA
:1024FC000023BB61BB69002BE5D1FB68202283F86C
:10250C004120FB68202283F84220FB68002283F8DC
:10251C00402003230FE0FB681B681A68BB6813405C
:10252C00BA689A420CBF01230023DBB21A46FB792E
:10253C009A429FD0002318464037BD4680BD00000C
:10254C0080B584B000AF78607B681B681B6923F48E
:10255C0040517B68DA687B681B680A431A617B68A8
:10256C009A687B681B691A437B685B691343BB6081
:10257C007B681B68DB6823F4B05323F00C037A6888
:10258C001268B9680B43D3607B681B685B6923F4E2
:10259C0040717B689A697B681B680A435A617B6847
:1025AC001B682C4A934203D1FFF798F9F86002E0BC
:1025BC00FFF780F9F860FA6813469B0013449A0001
:1025CC001A447B685B689B00B2FBF3F3224AA2FBC4
:1025DC0003235B091901FA6813469B0013449A0004
:1025EC001A447B685B689B00B2FBF3F21A4BA3FBAB
:1025FC0002035B09642000FB03F3D31A1B01323383
:10260C00154AA2FB03235B0903F0F0031944FA6893
:10261C0013469B0013449A001A447B685B689B002A
:10262C00B2FBF3F20C4BA3FB02035B09642000FB2F
:10263C0003F3D31A1B013233074AA2FB03235B09B2
:10264C0003F00F027B681B680A449A6000BF1037C6
:10265C00BD4680BD003801401F85EB5130B5144696
:10266C00002C05461A469BB005DA8B2303604FF00D
:10267C00FF301BB030BD4FF40273ADF80C300CBF03
:10268C00234604F1FF33029305934FF6FF73009139
:10269C000491ADF80E3069461E9B00F09BF9431C6B
:1026AC00BCBF8B232B60002CE3D00022009B1A7044
:1026BC00DFE7000007B5009313460A4601460348BE
:1026CC000068FFF7CBFF03B05DF804FB600000204F
:1026DC0003460244934200D1704703F8011BF9E70B
:1026EC00014B1868704700BF6000002070B50026D1
:1026FC000C4D0D4C641BA410A64209D100F07AFCC1
:10270C0000260A4D0A4C641BA410A64205D170BDCC
:10271C0055F8043B98470136EEE755F8043B9847CB
:10272C000136F2E7143100081431000814310008A6
:10273C00183100087047704738B50546002940D05D
:10274C0051F8043C0C1F002BB8BFE41800F0DCF867
:10275C001C4A136833B9636014602846BDE83840DE
:10276C0000F0D8B8A34208D9206821188B4201BFC9
:10277C0019685B6809182160EDE71A465B680BB1B4
:10278C00A342FAD911685018A0420BD12068014419
:10279C00501883421160E0D118685B6808441060DF
:1027AC005360DAE702D90C232B60D6E72068211896
:1027BC008B4201BF19685B68091821606360546023
:1027CC00CBE738BD9402002070B50E4E0C46316834
:1027DC00054611B900F0AAFB30602146284600F0EE
:1027EC00A5FB431C0AD0C41C24F00304A04207D050
:1027FC00211A284600F09AFB013001D14FF0FF342A
:10280C00204670BD980200202DE9F843CD1C25F020
:10281C00030508350C2D38BF0C25002D074601DBB0
:10282C00A94205D90C2300263B603046BDE8F8834D
:10283C00DFF8D08000F068F8D8F800301C465CBB9C
:10284C0029463846FFF7C0FF431C044655D1D8F83B
:10285C0000402646002E45D1002C48D02368314636
:10286C00384604EB030900F061FB81453FD1216838
:10287C0038466D1A2946FFF7A7FF013037D0236879
:10288C002B442360D8F80030002B38D05A68A24271
:10289C002BD100225A600FE02268521B1FD40B2A46
:1028AC0017D96119A342256018BF5960636808BF26
:1028BC00C8F8001062514B60384604F10B0600F06A
:1028CC0029F826F00706231DF21AAED09B1BA35045
:1028DC00ABE7A3426268DDD1C8F80020ECE72346E1
:1028EC006468ACE734467668B4E71346CCE70C234F
:1028FC0038463B6000F00EF897E72560DCE75B603C
:10290C00FFDE00BF940200200148FFF713BF00BF99
:10291C00900200200148FFF70EBF00BF900200207C
:10292C002DE9F0471F468E688246BE420C46904603
:10293C000B682CD88A8912F4906F26D065690969C6
:10294C0005EB4505A3EB010905EBD5757B1C4B4449
:10295C006D109D4238BF1D46530527D52946FFF7FC
:10296C0053FF064660B34A46216900F0FDFAA3897D
:10297C0023F4906343F08003A38126614E442660C8
:10298C003E466561A5EB0905A560BE4200D93E46F1
:10299C0032464146206800F0AFFA0020A3689B1B2A
:1029AC00A360236833442360BDE8F0872A4600F017
:1029BC00E9FA06460028E0D150462169FFF7BCFE33
:1029CC000C23CAF80030A3894FF0FF3043F04003CA
:1029DC00A381E9E72DE9F04F98468B8907461B0642
:1029EC000D4614469DB00ED50B6963B94021FFF717
:1029FC000BFF2860286120B90C233B604FF0FF309F
:102A0C00D0E040236B610023099320238DF82930FB
:102A1C0030234FF00109CDF80C80DFF8A0818DF840
:102A2C002A3023469A4613F8012B0AB1252AF9D1EC
:102A3C00BAEB040B0BD05B46224629463846FFF70F
:102A4C006FFF013000F0A980099A5A4409929AF854
:102A5C000030002B00F0A18000234FF0FF32CDE9B5
:102A6C0005230AF1010A049307938DF853301A9346
:102A7C005446052214F8011B504800F067FA049ADA
:102A8C00D8B9D00644BF20238DF85330110744BF6A
:102A9C002B238DF853309AF800302A2B15D054463E
:102AAC0000204FF00A0C079A214611F8013B303BED
:102ABC00092B4DD9B0B1079214E0A0EB080309FA29
:102ACC0003F31343A2460493D2E7039B191D1B681F
:102ADC000391002BBBBF5B4242F0020207930793AA
:102AEC00B8BF049223782E2B0CD163782A2B34D1C7
:102AFC00039B02341A1D1B680392002BB8BF4FF0C6
:102B0C00FF330593DFF8B8A003225046217800F07C
:102B1C001DFA38B14022049BA0EB0A0082401343FB
:102B2C000134049314F8011B062226488DF8281052
:102B3C0000F00CFA002838D0234B1BBB039B073347
:102B4C0023F0070308330393099B3344099368E785
:102B5C000C4601200CFB0232A6E700234FF00A0CB6
:102B6C00194601340593204610F8012B303A092AF6
:102B7C0003D9002BC6D00591C4E7044601230CFBF6
:102B8C000121F0E703AB00932A4638460F4B04A90A
:102B9C00AFF30080421C0646D6D1AB895B063FF5ED
:102BAC002DAF09981DB0BDE8F08F03AB00932A46FA
:102BBC003846064B04A900F07DF8EBE7DE30000840
:102BCC00E4300008E8300008000000002D2900085F
:102BDC002DE9F047164699468A680B6907469342D9
:102BEC00B8BF1346336091F843200C46DDF82080C3
:102BFC000AB1013333602368990642BF336802334C
:102C0C003360256815F0060506D104F1190AE3684E
:102C1C0032689B1AAB422BDC94F84320131E2268BB
:102C2C0018BF0123920630D44946384604F14302BA
:102C3C00C047013023D02368226903F00603042B1C
:102C4C0014BF002533684FF0000608BFE56804F197
:102C5C001A0408BFED1A54F8123C08BF25EAE575B2
:102C6C009342C4BF9B1AED18B5421AD1002008E05C
:102C7C000123524649463846C047013003D14FF034
:102C8C00FF30BDE8F0870135C1E73020E11881F84D
:102C9C0043005A1C94F845102244023382F8431026
:102CAC00C2E70123224649463846C0470130E6D0E8
:102CBC000136D9E72DE9FF470F7E9146782F8046E4
:102CCC000C469A460C9D01F1430207D8622F0AD894
:102CDC00002F00F0D580582F00F0C18004F1420580
:102CEC0084F842703AE0A7F16303152BF6D801A1E2
:102CFC0051F823F0592D00086D2D0008E92C00081F
:102D0C00E92C0008E92C0008E92C00086D2D0008BE
:102D1C00E92C0008E92C0008E92C0008E92C000833
:102D2C00732E0008992D00082D2E0008E92C0008A0
:102D3C00E92C0008952E0008E92C0008992D0008B4
:102D4C00E92C0008E92C0008352E00082B681A1D08
:102D5C001B682A6004F1420584F842300123A0E08C
:102D6C0020682B68070603F10401296001D51E6851
:102D7C0003E04606FBD5B3F90060002E03DA2D23E1
:102D8C00764284F843300A23594812E02B682068B5
:102D9C00191D2960050601D51E6802E04106FBD508
:102DAC001E886F2F0CBF08230A235148002184F87A
:102DBC0043106568002DA8BF2168A560A4BF21F051
:102DCC00040121600EB9002D4BD01546B6FBF3F172
:102DDC0003FB1167C75D05F8017D3746BB420E4604
:102DEC00F4D9082B0BD12368DE0708D52369616859
:102DFC009942DEBF302305F8013C05F1FF35521B2B
:102E0C0022614B4621464046CDF800A003AAFFF7AD
:102E1C00DFFE01304AD14FF0FF3004B0BDE8F0873F
:102E2C00236843F0200323607827324884F84570E8
:102E3C00236829681F0651F8046B02D45F0648BF4B
:102E4C00B6B2DF0748BF43F02003296048BF2360B8
:102E5C001EB9236823F0200323601023A6E724481F
:102E6C00E4E71546BDE72B682668181D61692860E4
:102E7C0035061B6801D5196002E07006FBD5198078
:102E8C00002315462361BCE72B6800211A1D2A601C
:102E9C001D686268284600F059F808B1401B606054
:102EAC0063682361002384F84330AAE72A46494625
:102EBC0040462369D0470130ADD023689B0713D41B
:102ECC00E068039B9842B8BF1846A6E70123324638
:102EDC0049464046D04701309DD00135E3680399FF
:102EEC005B1AAB42F2DCEBE7002504F11906F5E7BF
:102EFC00EF30000800310008884210B501EB0204E5
:102F0C0002D98442234607D8431EA14208D011F8A7
:102F1C00012B03F8012FF8E7014602448A4200D145
:102F2C0010BD13F8014D02F8014DF7E738B5002339
:102F3C00054D044608462B60FDF784FC431C02D16A
:102F4C002B6803B1236038BD8C020020034610B5FA
:102F5C00C9B202449342184601D1002003E0047820
:102F6C0001338C42F6D110BD0A44914200F1FF337B
:102F7C0000D1704710B511F8014B914203F8014F85
:102F8C00F9D110BD2DE9F041804614460E4621B909
:102F9C001146BDE8F041FFF737BC2AB9FFF7CCFB6F
:102FAC0025462846BDE8F08100F01BF88442074610
:102FBC0002D8B4EB500F12D821464046FFF724FC40
:102FCC0005460028EDD0BC422246314628BF3A4681
:102FDC00FFF7CAFF31464046FFF7AEFBE1E7354647
:102FEC00DFE751F8043C181F002BBCBF0B58C0186E
:102FFC0070470000F8B500BFF8BC08BC9E4670478F
:0C300C00F8B500BFF8BC08BC9E46704739
:103018002D2D2D2D2D2D2D2D2D2D2D2D2D2D2D2DD8
:103028002D2D2D2D2D2D2D2D2D2D2D2D000000007C
:1030380025730D0A000000004652454500000000B7
:103048004C45445F4F4646004C45445F4F4E000098
:10305800505553485F425554544F4E00426F746F59
:103068006E2050726573696F6E61646F0D0A00009F
:103078005055534800000000425554544F4E5F507D
:10308800555348004556454E545F425554544F4E8B
:103098005F50555348000000426F746F6E204C69B2
:1030A80062657261646F0D0A000000000000000094
:1030B80000000000010203040607080900000000E0
:1030C8000102030402030405060708090A0B0C0D94
:1030D8000E0F10100102232D302B2000686C4C00BD
:1030E8006566674546470030313233343536373800
:1030F800394142434445460030313233343536375E
:0C310800383961626364656600000000F5
:04311400310100087D
:043118000D0100089D
:10311C0001000000010000000024F4001000000079
:10312C00010000000000000054010020BC01002040
:10313C00240200200000000000000000000000003D
:10314C000000000000000000000000000000000073
:10315C000000000000000000000000000000000063
:10316C000000000000000000000000000000000053
:04317C00140000201B
:0400000508000A994C
:00000001FF
