:020000040800F2
:100000000050002031080008D1060008D70600087B
:10001000DD060008E3060008E9060008000000000D
:100020000000000000000000000000005142000835
:10003000EF0600080000000031440008FB0600083D
:10004000790800087908000879080008790800088C
:10005000790800087908000879080008790800087C
:10006000790800087908000879080008790800086C
:10007000790800087908000879080008790800085C
:10008000790800087908000879080008790800084C
:10009000790800087908000879080008790800083C
:1000A000790800087908000879080008790800082C
:1000B000790800087908000879080008790800081C
:1000C000790800087908000879080008790800080C
:1000D0007908000815070008790800087908000861
:1000E0007908000879080008790800080000000075
:1000F0000000000000000000000000000000000000
:0C01000000000000000000005FF808F1A3
:1001100010B5054C237833B9044B13B10448AFF341
:1001200000800123237010BD60000020000000004B
:10013000144B000808B5034B1BB103490348AFF348
:10014000008008BD0000000064000020144B00087F
:1001500080B485B000AFF860B9607A60FB68064A89
:100160001A60BB68054A1A607B6880221A6000BF6B
:100170001437BD4680BC70477C0000201C01002065
:1001800080B485B000AF786039600023FB60FB6805
:100190000133FB6000BF1437BD4680BC704780B49C
:1001A00083B000AF00237B607B6801337B6000BFBE
:1001B0000C37BD4680BC704780B586B000AF07F1F4
:1001C000080300221A605A609A60DA60184B9B6933
:1001D000174A43F010039361154B9B6903F010031A
:1001E0007B607B68124B9B69114A43F00403936167
:1001F0000F4B9B6903F004033B603B6800224FF404
:1002000000510C4800F0E0FE4FF40053BB600123A6
:10021000FB6000233B6102237B6107F10803194661
:10022000044800F04DFD00BF1837BD4680BD00BF3B
:10023000001002400010014080B584B002AF00F011
:100240001DFB00F083F8FFF7B7FF00F073FA3B1DCA
:10025000012219462F4801F07EFB002264210A206A
:1002600002F0BEF903462C4A13600322002101204C
:1002700002F0B6F90346294A1360284B1B68002B8D
:1002800006D0264B186800230022002102F006FA4F
:1002900000220121012002F0A3F90346204A136045
:1002A000002301930523009300234FF480721D491E
:1002B0001D4802F086FF002301930A2300930023C8
:1002C0004FF4807219491A4802F07BFF0023019312
:1002D0000A23009300234FF480721649164802F057
:1002E00070FF002301930223009300234FF48072D8
:1002F0001249134802F065FF002301930A2300937B
:1003000000234FF480720F490F4802F05AFF03F0A8
:10031000D1F8FEE7300300201C030020200300205A
:10032000240300202C4B0008C9040008384B0008A7
:100330007D050008484B00089D050008584B000843
:10034000E9040008684B0008BD05000880B590B0BE
:1003500000AF07F1180328220021184604F0ECFA38
:100360003B1D00221A605A609A60DA601A6102230B
:10037000BB610123BB621023FB6200237B6307F197
:100380001803184600F052FE0346002B01D000F07F
:1003900061F90F237B600023BB600023FB60002317
:1003A0003B6100237B613B1D0021184601F0C0F832
:1003B0000346002B01D000F04DF900BF4037BD4689
:1003C00080BD000080B582B000AF78600A4B1B682A
:1003D0000A49184602F0F8FA084B1B68002B07D0B0
:1003E000074B4FF080521A60BFF34F8FBFF36F8FF0
:1003F00000BF0837BD4680BD200300202803002031
:1004000004ED00E080B584B000AF786007F10C0324
:1004100001221946786801F09EFA0E4B186807F120
:100420000C0100230C4A02F037FA0346002B00D1DE
:10043000FEE7094B1B68002B07D0084B4FF080529A
:100440001A60BFF34F8FBFF36F8F00BF1037BD46E9
:1004500080BD00BF240300202C03002004ED00E039
:1004600080B582B000AF0346FB7100BF094B1B682B
:100470006421184602F016FC0346002BF6D0FB1D43
:1004800001221946044801F031FA00BF0837BD4681
:1004900080BD00BF200300203003002080B582B063
:1004A00000AF00BF074B1B68391D4FF0FF321846E5
:1004B00002F018FB0346002BF4D03B7918460837AE
:1004C000BD4680BD2403002080B582B000AF7860B7
:1004D0004FF40051034800F08FFD4FF47A7002F0A2
:1004E000B5FFF5E70010014080B59CB000AF786023
:1004F00000BF114B1B6807F108014FF0FF3218468F
:1005000002F0F0FA0346002BF3D00023FB660AE06A
:1005100007F10802FB6E13441B781846FFF7A0FF93
:10052000FB6E0133FB6607F10802FB6E13441B7878
:10053000002BEDD1DCE700BF1C03002080B59CB090
:1005400000AF7860396007F10C037968184604F051
:1005500077FA00BF084B186807F10C0100234FF031
:10056000FF3202F09BF80346002BF3D03B6818469D
:1005700002F06CFFEDE700BF1C03002080B582B0E5
:1005800000AF786041F288310348FFF7D7FF00BF22
:100590000837BD4680BD00BF7C4B000880B582B0E7
:1005A00000AF786041F288310348FFF7C7FF00BF12
:1005B0000837BD4680BD00BFB04B000880B59EB077
:1005C00000AF786007F10803204A92E80300186042
:1005D0000433197004237B6700233B67FFF75EFF3A
:1005E000034687F86F3097F86F300D2B03D097F8DC
:1005F0006F300A2B10D107F108027B6F13440A22D7
:100600001A707B6F013378333B44002203F8702C5F
:100610004FF0FF333B6708E07B6F5A1C7A677833F3
:100620003B4497F86F2003F8702C3B6F002BD5D01C
:1006300000BF074B186807F1080100234FF0FF3295
:1006400002F02CF80346002BF3D0C3E7E44B00087C
:100650001C03002080B400AF72B600BFFEE70000AC
:1006600080B584B000AF184B9B69174A43F0010373
:100670009361154B9B6903F00103BB60BB68124B90
:10068000DB69114A43F08053D3610F4BDB6903F000
:1006900080537B607B6800220F216FF0010000F027
:1006A00026FA0A4B5B68FB60FB6823F0E063FB60A3
:1006B000FB6843F00073FB60044AFB68536000BFB3
:1006C0001037BD4680BD00BF001002400000014051
:1006D00080B400AFFEE780B400AFFEE780B400AFA7
:1006E000FEE780B400AFFEE780B400AFFEE780B461
:1006F00000AF00BFBD4680BC704780B500AF00F0C2
:1007000003F903F003FB0346012B01D003F0B4FE11
:1007100000BF80BD80B500AF024801F041F900BFC5
:1007200080BD00BF3003002080B400AF00BFBD46D5
:1007300080BC704780B500AF114B124A1A60104B55
:100740004FF416525A600E4B00229A600C4B002256
:10075000DA600B4B00221A61094B0C225A61084BDC
:1007600000229A61064B0022DA61054801F06EF81A
:100770000346002B01D0FFF76DFF00BF80BD00BF17
:10078000300300200038014080B588B000AF7860A9
:1007900007F1100300221A605A609A60DA607B68E1
:1007A0001B68204A934239D11F4B9B691E4A43F470
:1007B000804393611C4B9B6903F48043FB60FB689F
:1007C000194B9B69184A43F004039361164B9B69CC
:1007D00003F00403BB60BB684FF400733B6102236A
:1007E0007B610323FB6107F1100319460F4800F0FA
:1007F00067FA4FF480633B6100237B610023BB6198
:1008000007F110031946094800F05AFA00220521A1
:10081000252000F06CF9252000F085F900BF203775
:10082000BD4680BD00380140001002400008014074
:10083000FFF77AFF0B480C490C4A002302E0D4581A
:10084000C4500433C4188C42F9D3094A094C00231C
:1008500001E013600432A242FBD304F0CBF8FFF7AF
:10086000EBFC70470000002060000020284C0008CE
:1008700060000020082E0020FEE7000080B500AFD9
:10088000084B1B68074A43F010031360032000F075
:1008900023F90F2000F008F8FFF7E2FE00231846C6
:1008A00080BD00BF0020024080B582B000AF7860FC
:1008B000124B1A68124B1B7819464FF47A73B3FB2C
:1008C000F1F3B2FBF3F3184600F03BF90346002BBB
:1008D00001D001230EE07B680F2B0AD80022796833
:1008E0004FF0FF3000F003F9064A7B6813600023E5
:1008F00000E0012318460837BD4680BD00000020F7
:10090000080000200400002080B400AF054B1B78D5
:100910001A46054B1B681344034A136000BFBD46CB
:1009200080BC7047080000207803002080B400AF2E
:10093000024B1B681846BD4680BC704778030020F8
:1009400080B485B000AF78607B6803F00703FB607C
:100950000C4BDB68BB60BA684FF6FF031340BB600B
:10096000FB681A02BB68134343F0BF6343F40033D0
:10097000BB60044ABB68D36000BF1437BD4680BC6F
:10098000704700BF00ED00E080B400AF044BDB68AF
:100990001B0A03F007031846BD4680BC704700BF22
:1009A00000ED00E080B483B000AF0346FB7197F91F
:1009B0000730002B0BDBFB7903F01F02064997F988
:1009C00007305B09012000FA02F241F8232000BF42
:1009D0000C37BD4680BC704700E100E080B483B0B6
:1009E00000AF03463960FB7197F90730002B0ADB33
:1009F0003B68DAB20C4997F907301201D2B20B44C6
:100A000083F800230AE03B68DAB20849FB7903F077
:100A10000F03043B1201D2B20B441A7600BF0C370D
:100A2000BD4680BC704700BF00E100E000ED00E083
:100A300080B489B000AFF860B9607A60FB6803F0F9
:100A40000703FB61FB69C3F10703042B28BF0423E1
:100A5000BB61FB690433062B02D9FB69033B00E051
:100A600000237B614FF0FF32BB6902FA03F3DA43E4
:100A7000BB681A407B699A404FF0FF317B6901FAED
:100A800003F3D9437B680B40134318462437BD4614
:100A900080BC704780B582B000AF78607B68013B56
:100AA000B3F1807F01D301230FE00A4A7B68013B49
:100AB00053600F214FF0FF30FFF790FF054B0022EE
:100AC0009A60044B07221A60002318460837BD4677
:100AD00080BD00BF10E000E080B582B000AF78605C
:100AE0007868FFF72DFF00BF0837BD4680BD80B591
:100AF00086B000AF0346B9607A60FB7300237B6168
:100B0000FFF742FF78617A68B9687869FFF790FF6C
:100B1000024697F90F3011461846FFF75FFF00BFF6
:100B20001837BD4680BD80B582B000AF0346FB716B
:100B300097F907301846FFF735FF00BF0837BD4665
:100B400080BD80B582B000AF78607868FFF7A2FF03
:100B5000034618460837BD4680BD80B485B000AF57
:100B600078600023FB737B6893F82130DBB2022BA3
:100B700008D07B6804229A637B68002283F82020D7
:100B8000012320E07B681B681A687B681B6822F0E1
:100B90000E021A607B681B681A687B681B6822F06B
:100BA00001021A607B681A6C7B68DB6B012101FA19
:100BB00002F25A607B68012283F821207B680022C0
:100BC00083F82020FB7B18461437BD4680BC704755
:100BD00080B584B000AF78600023FB737B6893F826
:100BE0002130DBB2022B05D07B6804229A630123FB
:100BF000FB7351E07B681B681A687B681B6822F0F6
:100C00000E021A607B681B681A687B681B6822F0FA
:100C100001021A607B681B68224A934229D07B68D4
:100C20001B68214A934222D07B681B681F4A93426B
:100C30001AD07B681B681E4A934212D07B681B68DF
:100C40001C4A93420AD07B681B681B4A934202D11C
:100C50004FF480130EE04FF080730BE04FF48033BD
:100C600008E04FF4805305E04FF4807302E0102356
:100C700000E00123114A53607B68012283F82120A0
:100C80007B68002283F820207B685B6B002B03D0FD
:100C90007B685B6B78689847FB7B18461037BD46CE
:100CA00080BD00BF080002401C000240300002402E
:100CB00044000240580002406C0002400000024024
:100CC00080B48BB000AF7860396000237B62002372
:100CD0003B6269E101227B6A02FA03F3FB613B6834
:100CE0001B68FA691340BB61BA69FB699A4240F01C
:100CF00058813B685B689A4A93425ED0984A934217
:100D000075D8984A934258D0964A93426FD8964ADB
:100D1000934252D0944A934269D8944A93424CD019
:100D2000924A934263D8924A934246D0904A934261
:100D30005DD8122B2AD8122B59D801A252F823F0D1
:100D4000BB0D0008950D0008A70D0008E90D00086F
:100D5000EF0D0008EF0D0008EF0D0008EF0D000883
:100D6000EF0D0008EF0D0008EF0D0008EF0D000873
:100D7000EF0D0008EF0D0008EF0D0008EF0D000863
:100D8000EF0D00089D0D0008B10D0008794A93424F
:100D900013D02CE03B68DB683B6229E03B68DB68F2
:100DA00004333B6224E03B68DB6808333B621FE0AE
:100DB0003B68DB680C333B621AE03B689B68002BA6
:100DC00002D104233B6213E03B689B68012B05D1F1
:100DD00008233B627B68FA691A6109E008233B62D9
:100DE0007B68FA695A6103E000233B6200E000BFC0
:100DF000BB69FF2B01D87B6801E07B6804337B6112
:100E0000BB69FF2B02D87B6A9B0002E07B6A083B30
:100E10009B003B617B691A680F213B6901FA03F370
:100E2000DB431A40396A3B6901FA03F31A437B69D1
:100E30001A603B685B6803F08053002B00F0B180C0
:100E40004D4B9B694C4A43F0010393614A4B9B69AC
:100E500003F00103BB60BB68484A7B6A9B0802330E
:100E600052F82330FB607B6A03F003039B000F22E0
:100E700002FA03F3DB43FA681340FB607B68404AE5
:100E8000934213D07B683F4A93420DD07B683E4A21
:100E9000934207D07B683D4A934201D1032306E089
:100EA000042304E0022302E0012300E000237A6A25
:100EB00002F0030292009340FA681343FB602F494B
:100EC0007B6A9B080233FA6841F823203B685B6821
:100ED00003F48013002B06D02D4B9A682C49BB6974
:100EE00013438B6006E02A4B9A68BB69DB432849B1
:100EF00013408B603B685B6803F40013002B06D043
:100F0000234BDA682249BB691343CB6006E0204BD0
:100F1000DA68BB69DB431E491340CB603B685B6802
:100F200003F40033002B06D0194B5A681849BB69EB
:100F300013434B6006E0164B5A68BB69DB43144908
:100F400013404B603B685B6803F48033002B21D077
:100F50000F4B1A680E49BB6913430B6021E000BFB9
:100F6000000032100000311000002210000021109B
:100F7000000012100000111000100240000001409B
:100F800000080140000C0140001001400014014025
:100F9000000401400B4B1A68BB69DB43094913404D
:100FA0000B607B6A01337B623B681A687B6A22FABA
:100FB00003F3002B7FF48EAE00BF00BF2C37BD467D
:100FC00080BC70470004014080B483B000AF7860FB
:100FD0000B467B8013467B707B78002B03D07A888E
:100FE0007B681A6103E07B881A047B681A6100BF82
:100FF0000C37BD4680BC704780B485B000AF7860C8
:101000000B467B807B68DB68FB607A88FB6813405B
:101010001A04FB68D9437B880B401A437B681A612A
:1010200000BF1437BD4680BC7047000080B586B055
:1010300000AF78607B68002B01D1012372E27B68EE
:101040001B6803F00103002B00F08780924B5B6864
:1010500003F00C03042B0CD08F4B5B6803F00C03E4
:10106000082B12D18C4B5B6803F48033B3F5803FBF
:101070000BD1894B1B6803F40033002B6CD07B68C9
:101080005B68002B68D101234CE27B685B68B3F599
:10109000803F06D1804B1B687F4A43F48033136046
:1010A0002EE07B685B68002B0CD17B4B1B687A4A77
:1010B00023F480331360784B1B68774A23F4802332
:1010C00013601DE07B685B68B3F5A02F0CD1724BF9
:1010D0001B68714A43F4802313606F4B1B686E4A90
:1010E00043F4803313600BE06B4B1B686A4A23F4B4
:1010F00080331360684B1B68674A23F480231360B6
:101100007B685B68002B13D0FFF710FC386108E0A8
:10111000FFF70CFC02463B69D31A642B01D9032369
:1011200000E25D4B1B6803F40033002BF0D014E0A9
:10113000FFF7FCFB386108E0FFF7F8FB02463B696C
:10114000D31A642B01D90323ECE1534B1B6803F43E
:101150000033002BF0D100E000BF7B681B6803F078
:101160000203002B63D04C4B5B6803F00C03002B95
:101170000BD0494B5B6803F00C03082B1CD1464B8A
:101180005B6803F48033002B16D1434B1B6803F0DC
:101190000203002B05D07B681B69012B01D00123C2
:1011A000C0E13D4B1B6823F0F8027B685B69DB0004
:1011B000394913430B603AE07B681B69002B20D050
:1011C000364B01221A60FFF7B1FB386108E0FFF7E8
:1011D000ADFB02463B69D31A022B01D90323A1E1DF
:1011E0002D4B1B6803F00203002BF0D02A4B1B6829
:1011F00023F0F8027B685B69DB00274913430B602F
:1012000015E0264B00221A60FFF790FB386108E0DA
:10121000FFF78CFB02463B69D31A022B01D903234B
:1012200080E11D4B1B6803F00203002BF0D17B68AB
:101230001B6803F00803002B3AD07B689B69002BE6
:1012400019D0174B01221A60FFF770FB386108E0D4
:10125000FFF76CFB02463B69D31A022B01D903232B
:1012600060E10D4B5B6A03F00203002BF0D001201C
:1012700000F0CEFA1CE00A4B00221A60FFF756FB82
:1012800038610FE0FFF752FB02463B69D31A022B8D
:1012900008D9032346E100BF00100240000042428B
:1012A00080044242924B5B6A03F00203002BE9D1B7
:1012B0007B681B6803F00403002B00F0A68000236A
:1012C000FB758B4BDB6903F08053002B0DD1884BF2
:1012D000DB69874A43F08053D361854BDB6903F0B8
:1012E0008053BB60BB680123FB75824B1B6803F412
:1012F0008073002B18D17F4B1B687E4A43F48073A8
:101300001360FFF713FB386108E0FFF70FFB02469D
:101310003B69D31A642B01D9032303E1754B1B6886
:1013200003F48073002BF0D07B68DB68012B06D1BF
:101330006F4B1B6A6E4A43F0010313622DE07B681A
:10134000DB68002B0CD16A4B1B6A694A23F001034E
:101350001362674B1B6A664A23F0040313621CE0A6
:101360007B68DB68052B0CD1614B1B6A604A43F03C
:10137000040313625E4B1B6A5D4A43F00103136270
:101380000BE05B4B1B6A5A4A23F001031362584B74
:101390001B6A574A23F0040313627B68DB68002B47
:1013A00015D0FFF7C3FA38610AE0FFF7BFFA02462B
:1013B0003B69D31A41F28832934201D90323B1E049
:1013C0004B4B1B6A03F00203002BEED014E0FFF737
:1013D000ADFA38610AE0FFF7A9FA02463B69D31A71
:1013E00041F28832934201D903239BE0404B1B6AB0
:1013F00003F00203002BEED1FB7D012B05D13C4B0A
:10140000DB693B4A23F08053D3617B68DB69002BA7
:1014100000F08780364B5B6803F00C03082B61D02B
:101420007B68DB69022B46D1334B00221A60FFF741
:101430007DFA386108E0FFF779FA02463B69D31A72
:10144000022B01D903236DE0294B1B6803F00073C5
:10145000002BF0D17B681B6AB3F5803F08D1244B89
:101460005B6823F400327B689B68214913434B601F
:101470001F4B5B6823F474127B68196A7B685B6A94
:101480000B431B4913434B601B4B01221A60FFF7B0
:101490004DFA386108E0FFF749FA02463B69D31A72
:1014A000022B01D903233DE0114B1B6803F00073AD
:1014B000002BF0D035E0104B00221A60FFF736FA0F
:1014C000386108E0FFF732FA02463B69D31A022B73
:1014D00001D9032326E0064B1B6803F00073002BA1
:1014E000F0D11EE07B68DB69012B07D1012319E0F5
:1014F0000010024000700040600042420B4B5B68ED
:10150000FB60FB6803F480327B681B6A9A4206D159
:10151000FB6803F470127B685B6A9A4201D0012376
:1015200000E0002318461837BD4680BD0010024079
:1015300080B584B000AF786039607B68002B01D142
:101540000123D0E06A4B1B6803F007033A689A4214
:1015500010D9674B1B6823F0070265493B681343AA
:101560000B60634B1B6803F007033A689A4201D093
:101570000123B8E07B681B6803F00203002B20D036
:101580007B681B6803F00403002B05D0594B5B6894
:10159000584A43F4E06353607B681B6803F0080318
:1015A000002B05D0534B5B68524A43F460535360A1
:1015B000504B5B6823F0F0027B689B684D491343F6
:1015C0004B607B681B6803F00103002B40D07B68F5
:1015D0005B68012B07D1474B1B6803F40033002BDA
:1015E00015D101237FE07B685B68022B07D1414B5B
:1015F0001B6803F00073002B09D1012373E03D4BFE
:101600001B6803F00203002B01D101236BE0394B6F
:101610005B6823F003027B685B68364913434B60C9
:10162000FFF784F9F8600AE0FFF780F90246FB68EB
:10163000D31A41F28832934201D9032353E02D4B50
:101640005B6803F00C027B685B689B009A42EBD1FD
:10165000274B1B6803F007033A689A4210D2244BC9
:101660001B6823F0070222493B6813430B60204BA1
:101670001B6803F007033A689A4201D0012332E065
:101680007B681B6803F00403002B08D0194B5B68D0
:1016900023F4E0627B68DB68164913434B607B6888
:1016A0001B6803F00803002B09D0124B5B6823F47E
:1016B00060527B681B69DB000E4913434B6000F0EE
:1016C00021F802460B4B5B681B0903F00F030A4924
:1016D000CB5C22FA03F3094A1360094B1B681846D6
:1016E000FFF7E2F8002318461037BD4680BD00BF63
:1016F0000020024000100240F44B000800000020CF
:101700000400002080B487B000AF0023FB600023FA
:10171000BB6000237B6100237B6000233B611E4B89
:101720005B68FB60FB6803F00C03042B02D0082B02
:1017300003D027E0194B3B6127E0FB689B0C03F0CB
:101740000F03174AD35C7B60FB6803F48033002BE4
:1017500010D0114B5B685B0C03F00103114AD35CA2
:10176000BB607B680D4A03FB02F2BB68B2FBF3F37C
:101770007B6104E07B680C4A02FB03F37B617B69BD
:101780003B6102E0054B3B6100BF3B6918461C37DB
:10179000BD4680BC704700BF0010024000127A00B6
:1017A0000C4C00081C4C000800093D0080B400AF40
:1017B000024B1B681846BD4680BC704700000020E5
:1017C00080B500AFFFF7F2FF0246054B5B681B0ACE
:1017D00003F007030349CB5C22FA03F3184680BDEC
:1017E00000100240044C000880B500AFFFF7DEFF98
:1017F0000246054B5B68DB0A03F007030349CB5C39
:1018000022FA03F3184680BD00100240044C000881
:1018100080B485B000AF78600A4B1B680A4AA2FB0F
:1018200003235B0A7A6802FB03F3FB6000BFFB68DB
:101830005A1EFA60002BF9D100BF00BF1437BD4615
:1018400080BC704700000020D34D621080B582B08C
:1018500000AF78607B68002B01D1012342E07B68F8
:1018600093F84130DBB2002B06D17B68002283F86D
:1018700040207868FEF788FF7B68242283F84120A7
:101880007B681B68DA687B681B6822F40052DA60A8
:10189000786800F0FFFC7B681B681A697B681B682E
:1018A00022F490421A617B681B685A697B681B6846
:1018B00022F02A025A617B681B68DA687B681B6821
:1018C00042F40052DA607B6800225A647B6820226E
:1018D00083F841207B68202283F842207B68002225
:1018E0005A63002318460837BD4680BD80B485B0D2
:1018F00000AFF860B9601346FB80FB6893F8413095
:10190000DBB2202B21D1BB68002B02D0FB88002B3F
:1019100001D101231AE0FB68BA681A62FB68FA88F1
:101920009A84FB68FA88DA84FB6800225A64FB68B0
:10193000212283F84120FB681B68DA68FB681B687A
:1019400042F08002DA60002300E0022318461437D8
:10195000BD4680BC704780B584B000AFF860B96008
:101960001346FB80FB6893F84230DBB2202B12D188
:10197000BB68002B02D0FB88002B01D101230BE0B8
:10198000FB6800221A63FB881A46B968F86800F001
:10199000ADFA034600E0022318461037BD4680BD6D
:1019A00080B5BAB000AF78607B681B681B68C7F869
:1019B000E4307B681B68DB68C7F8E0307B681B6835
:1019C0005B69C7F8DC300023C7F8D8300023C7F8BC
:1019D000D430D7F8E43003F00F03C7F8D830D7F885
:1019E000D830002B0FD1D7F8E43003F02003002BC0
:1019F00009D0D7F8E03003F02003002B03D078683B
:101A000000F08AFB5BE2D7F8D830002B00F0DE80D4
:101A1000D7F8DC3003F00103002B06D1D7F8E03013
:101A200003F49073002B00F0D180D7F8E43003F07A
:101A30000103002B0BD0D7F8E03003F48073002BA8
:101A400005D07B685B6C43F001027B685A64D7F871
:101A5000E43003F00403002B0BD0D7F8DC3003F0A4
:101A60000103002B05D07B685B6C43F002027B68AE
:101A70005A64D7F8E43003F00203002B0BD0D7F8F8
:101A8000DC3003F00103002B05D07B685B6C43F076
:101A900004027B685A64D7F8E43003F00803002B93
:101AA00011D0D7F8E03003F02003002B05D1D7F890
:101AB000DC3003F00103002B05D07B685B6C43F046
:101AC00008027B685A647B685B6C002B00F0F28133
:101AD000D7F8E43003F02003002B08D0D7F8E0302B
:101AE00003F02003002B02D0786800F015FB7B6820
:101AF0001B685B6903F04003002B14BF0123002324
:101B0000DBB2C7F8D4307B685B6C03F00803002BB2
:101B100003D1D7F8D430002B4FD0786800F01FFAEB
:101B20007B681B685B6903F04003002B41D07B6836
:101B30001B681433C7F89C30D7F89C3053E8003F3B
:101B4000C7F89830D7F8983023F04003C7F8D03062
:101B50007B681B681433D7F8D020C7F8A820C7F8D3
:101B6000A430D7F8A410D7F8A82041E80023C7F87C
:101B7000A030D7F8A030002BD9D17B68DB6B002BCD
:101B800013D07B68DB6B7E4A5A637B68DB6B18463D
:101B9000FFF71EF80346002B16D07B68DB6B5B6BF0
:101BA0007A68D26B104698470EE0786800F08AF9A0
:101BB0000AE0786800F086F906E0786800F082F9BB
:101BC0007B6800225A6475E100BF73E17B681B6B80
:101BD000012B40F04F81D7F8E43003F01003002BC5
:101BE00000F04881D7F8E03003F01003002B00F03C
:101BF00041810023BB607B681B681B68BB607B68FE
:101C00001B685B68BB60BB687B681B685B6903F033
:101C10004003002B00F0B6807B68DB6B1B685B68C1
:101C2000A7F8BE30B7F8BE30002B00F045817B68C6
:101C30009B8DB7F8BE209A4280F03E817B68B7F852
:101C4000BE20DA857B68DB6B9B69202B00F08880E7
:101C50007B681B680C33C7F88830D7F8883053E8A6
:101C6000003FC7F88430D7F8843023F48073C7F876
:101C7000B8307B681B680C33D7F8B820C7F89420BD
:101C8000C7F89030D7F89010D7F8942041E8002397
:101C9000C7F88C30D7F88C30002BD9D17B681B6803
:101CA00014337B677B6F53E8003F3B673B6F23F048
:101CB0000103C7F8B4307B681B681433D7F8B4202D
:101CC000C7F88020FB67F96FD7F8802041E8002330
:101CD000BB67BB6F002BE1D17B681B6814333B668D
:101CE0003B6E53E8003FFB65FB6D23F04003C7F8F4
:101CF000B0307B681B681433D7F8B020FA66BB6637
:101D0000B96EFA6E41E800237B667B6E002BE3D14F
:101D10007B68202283F842207B6800221A637B685C
:101D20001B680C33FB64FB6C53E8003FBB64BB6C6B
:101D300023F01003C7F8AC307B681B680C33D7F86E
:101D4000AC20BA657B65796DBA6D41E800233B65CF
:101D50003B6D002BE3D17B68DB6B1846FEF7FDFE85
:101D60007B6802225A637B689A8D7B68DB8D9BB20D
:101D7000D31A9BB21946786800F0ADF89CE000BF1A
:101D8000232000087B689A8D7B68DB8D9BB2D31A79
:101D9000A7F8CE307B68DB8D9BB2002B00F08E80E5
:101DA000B7F8CE30002B00F089807B681B680C33BD
:101DB000BB63BB6B53E8003F7B637B6B23F4907387
:101DC000C7F8C8307B681B680C33D7F8C8207A6422
:101DD0003B64396C7A6C41E80023FB63FB6B002B9E
:101DE000E3D17B681B6814337B627B6A53E8003F56
:101DF0003B623B6A23F00103C7F8C4307B681B6871
:101E00001433D7F8C4203A63FB62F96A3A6B41E8AD
:101E10000023BB62BB6A002BE3D17B68202283F8DE
:101E200042207B6800221A637B681B680C333B618D
:101E30003B6953E8003FFB60FB6823F01003C7F8E1
:101E4000C0307B681B680C33D7F8C020FA61BB61D7
:101E5000B969FA6941E800237B617B69002BE3D112
:101E60007B6802225A63B7F8CE301946786800F0D2
:101E700032F823E0D7F8E43003F08003002B09D0D8
:101E8000D7F8E03003F08003002B03D0786800F02F
:101E9000DCF814E0D7F8E43003F04003002B0ED058
:101EA000D7F8E03003F04003002B08D0786800F04A
:101EB0001BF904E000BF02E000BF00E000BFE8370C
:101EC000BD4680BD80B483B000AF786000BF0C37E2
:101ED000BD4680BC704780B483B000AF78600B46CD
:101EE0007B8000BF0C37BD4680BC704780B485B096
:101EF00000AFF860B9601346FB80FB68BA689A626D
:101F0000FB68FA889A85FB68FA88DA85FB68002204
:101F10005A64FB68222283F84220FB681B69002B6D
:101F200007D0FB681B68DA68FB681B6842F48072A4
:101F3000DA60FB681B685A69FB681B6842F00102A3
:101F40005A61FB681B68DA68FB681B6842F0200274
:101F5000DA60002318461437BD4680BC704780B451
:101F600095B000AF78607B681B680C337B637B6B3C
:101F700053E8003F3B633B6B23F49073FB647B6847
:101F80001B680C33FA6C3A64FB63F96B3A6C41E8FA
:101F90000023BB63BB6B002BE5D17B681B6814334C
:101FA0003B623B6A53E8003FFB61FB6923F001039E
:101FB000BB647B681B681433BA6CFA62BB62B96A93
:101FC000FA6A41E800237B627B6A002BE5D17B68DB
:101FD0001B6B012B19D17B681B680C33FB60FB6802
:101FE00053E8003FBB60BB6823F010037B647B6851
:101FF0001B680C337A6CBA617B617969BA6941E814
:1020000000233B613B69002BE5D17B68202283F8EC
:1020100042207B6800221A6300BF5437BD4680BC53
:10202000704780B584B000AF78607B685B6AFB6006
:10203000FB680022DA85FB680022DA84F868FFF783
:1020400041FF00BF1037BD4680BD80B485B000AFF2
:1020500078607B6893F84130DBB2212B3ED17B68FE
:102060009B68B3F5805F14D17B681B69002B10D18E
:102070007B681B6AFB60FB681B881A467B681B68D1
:10208000C2F308025A607B681B6A9A1C7B681A625A
:1020900008E07B681B6A591C7A6811621A787B68B1
:1020A0001B685A607B68DB8C9BB2013B9BB27A68F1
:1020B0001946D184002B0FD17B681B68DA687B68D6
:1020C0001B6822F08002DA607B681B68DA687B6834
:1020D0001B6842F04002DA60002300E00223184649
:1020E0001437BD4680BC704780B582B000AF7860C1
:1020F0007B681B68DA687B681B6822F04002DA6044
:102100007B68202283F841207868FEF75BF9002382
:1021100018460837BD4680BD80B58CB000AF7860EA
:102120007B6893F84230DBB2222B40F0AE807B68B4
:102130009B68B3F5805F17D17B681B69002B13D1B7
:102140000023FB627B689B6ABB627B681B685B68E1
:102150009BB2C3F308039AB2BB6A1A807B689B6A7E
:102160009A1C7B689A6226E07B689B6AFB6200236C
:10217000BB627B689B68B3F5805F07D07B689B6818
:10218000002B0AD17B681B69002B06D17B681B687A
:102190005B68DAB2FB6A1A7008E07B681B685B68F0
:1021A000DBB203F07F03DAB2FB6A1A707B689B6ACA
:1021B0005A1C7B689A627B68DB8D9BB2013B9BB2A9
:1021C0007A681946D185002B5DD17B681B68DA6877
:1021D0007B681B6822F02002DA607B681B68DA6883
:1021E0007B681B6822F48072DA607B681B685A691E
:1021F0007B681B6822F001025A617B68202283F809
:1022000042207B6800225A637B681B6B012B35D10F
:102210007B6800221A637B681B680C337B617B69D7
:1022200053E8003F3B613B6923F010037B627B680E
:102230001B680C337A6A3A62FB61F9693A6A41E8D1
:102240000023BB61BB69002BE5D17B681B681B6861
:1022500003F01003102B0AD10023FB607B681B687E
:102260001B68FB607B681B685B68FB60FB687B68C6
:102270009B8D19467868FFF72EFE02E07868FEF71E
:10228000C1F8002302E0002300E0022318463037A3
:10229000BD4680BD80B584B000AF78607B681B68A8
:1022A0001B6923F440517B68DA687B681B680A432A
:1022B0001A617B689A687B681B691A437B685B6953
:1022C0001343BB607B681B68DB6823F4B05323F0C7
:1022D0000C037A681268B9680B43D3607B681B688B
:1022E0005B6923F440717B689A697B681B680A43C9
:1022F0005A617B681B682C4A934203D1FFF774FA3A
:10230000F86002E0FFF75CFAF860FA6813469B0099
:1023100013449A001A447B685B689B00B2FBF3F39A
:10232000224AA2FB03235B091901FA6813469B00AA
:1023300013449A001A447B685B689B00B2FBF3F27B
:102340001A4BA3FB02035B09642000FB03F3D31ABF
:102350001B013233154AA2FB03235B0903F0F00390
:102360001944FA6813469B0013449A001A447B6888
:102370005B689B00B2FBF3F20C4BA3FB02035B090F
:10238000642000FB03F3D31A1B013233074AA2FB7C
:1023900003235B0903F00F027B681B680A449A6001
:1023A00000BF1037BD4680BD003801401F85EB518E
:1023B00080B483B000AF78607B6803F108027B686B
:1023C0005A607B684FF0FF329A607B6803F1080225
:1023D0007B68DA607B6803F108027B681A617B68BE
:1023E00000221A6000BF0C37BD4680BC704780B425
:1023F00083B000AF78607B6800221A6100BF0C37A1
:10240000BD4680BC704780B485B000AF786039604D
:102410007B685B68FB603B68FA685A60FB689A6897
:102420003B689A60FB689B683A685A60FB683A6848
:102430009A603B687A681A617B681B685A1C7B68E3
:102440001A6000BF1437BD4680BC704780B485B0A9
:1024500000AF786039603B681B68BB60BB68B3F154
:10246000FF3F03D17B681B69FB600CE07B6808338E
:10247000FB6002E0FB685B68FB60FB685B681B68F5
:10248000BA689A42F6D2FB685A683B685A603B6861
:102490005B683A689A603B68FA689A60FB683A68D9
:1024A0005A603B687A681A617B681B685A1C7B68B3
:1024B0001A6000BF1437BD4680BC704780B485B039
:1024C00000AF78607B681B69FB607B685B687A683B
:1024D00092689A607B689B687A6852685A60FB6869
:1024E0005B687A689A4203D17B689A68FB685A6095
:1024F0007B6800221A61FB681B685A1EFB681A6021
:10250000FB681B6818461437BD4680BC7047000046
:1025100080B584B000AF786039607B68FB60FB6891
:10252000002B0AD14FF0500383F31188BFF36F8F54
:10253000BFF34F8FBB6000BFFEE701F01FFFFB68DA
:102540001A68FB68DB6BF968096C01FB03F31A443A
:10255000FB685A60FB6800229A63FB681A68FB6894
:102560009A60FB681A68FB68DB6B013BF968096CD1
:1025700001FB03F31A44FB68DA60FB68FF2283F86F
:102580004420FB68FF2283F845203B68002B14D1D0
:10259000FB681B69002B1AD0FB681033184601F04A
:1025A000F1F90346002B12D00C4B4FF080521A6009
:1025B000BFF34F8FBFF36F8F09E0FB6810331846EE
:1025C000FFF7F6FEFB6824331846FFF7F1FE01F033
:1025D00005FF012318461037BD4680BD04ED00E01D
:1025E00080B58AB002AFF860B9601346FB71FB6832
:1025F000002B0AD14FF0500383F31188BFF36F8F84
:10260000BFF34F8F3B6100BFFEE7BB68002B02D1D9
:102610000023FB6104E0FB68BA6802FB03F3FB6183
:10262000FB694833184601F0A9FFB861BB69002B6C
:102630000FD0BB6948337B61BB69002283F8462019
:10264000FA79BB69009313467A69B968F86800F0B3
:1026500005F8BB6918462037BD4680BD80B584B0FB
:1026600000AFF860B9607A60FB70BB68002B03D1E3
:10267000BB69BA691A6002E0BB697A681A60BB6913
:10268000FA68DA63BB69BA681A640121B869FFF7AE
:102690003FFF00BF1037BD4680BD000080B58EB043
:1026A00000AFF860B9607A603B6000237B63FB6831
:1026B0003B633B6B002B0AD14FF0500383F311882F
:1026C000BFF36F8FBFF34F8FBB6200BFFEE7BB68E6
:1026D000002B03D13B6B1B6C002B01D1012300E0CD
:1026E0000023002B0AD14FF0500383F31188BFF36E
:1026F0006F8FBFF34F8F7B6200BFFEE73B68022BFB
:1027000003D13B6BDB6B012B01D1012300E00023E4
:10271000002B0AD14FF0500383F31188BFF36F8F62
:10272000BFF34F8F3B6200BFFEE701F0EFFA0346B5
:10273000002B02D17B68002B01D1012300E0002394
:10274000002B0AD14FF0500383F31188BFF36F8F32
:10275000BFF34F8FFB6100BFFEE701F00FFE3B6B45
:102760009A6B3B6BDB6B9A4202D33B68022B29D1FD
:102770003A68B968386B00F0B8FBF8623B6B5B6A8B
:10278000002B10D03B6B2433184601F0FBF80346B6
:10279000002B13D03F4B4FF080521A60BFF34F8F86
:1027A000BFF36F8F0AE0FB6A002B07D0394B4FF065
:1027B00080521A60BFF34F8FBFF36F8F01F00EFE90
:1027C000012363E07B68002B03D101F007FE0023A7
:1027D0005CE07B6B002B06D107F11403184601F077
:1027E00033F901237B6301F0F9FD00F0CDFE01F028
:1027F000C5FD3B6B93F844305BB2B3F1FF3F03D1AF
:102800003B6B002283F844203B6B93F845305BB26E
:10281000B3F1FF3F03D13B6B002283F8452001F069
:10282000DDFD3A1D07F114031146184601F022F9A7
:102830000346002B24D1386B00F04FFC0346002BDD
:1028400018D03B6B10337A681146184601F076F8C1
:10285000386B00F0DAFB00F0A5FE0346002B7FF496
:102860007CAF0C4B4FF080521A60BFF34F8FBFF319
:102870006F8F72E7386B00F0C8FB00F093FE6CE7D7
:10288000386B00F0C2FB00F08DFE0023184638378D
:10289000BD4680BD04ED00E080B58EB000AFF860AD
:1028A000B9607A603B60FB683B633B6B002B0AD1ED
:1028B0004FF0500383F31188BFF36F8FBFF34F8F37
:1028C0007B6200BFFEE7BB68002B03D13B6B1B6C38
:1028D000002B01D1012300E00023002B0AD14FF08F
:1028E000500383F31188BFF36F8FBFF34F8F3B62A9
:1028F00000BFFEE73B68022B03D13B6BDB6B012B78
:1029000001D1012300E00023002B0AD14FF0500336
:1029100083F31188BFF36F8FBFF34F8FFB6100BF4D
:10292000FEE701F0EDFDEFF311824FF0500383F36A
:102930001188BFF36F8FBFF34F8FBA617B61BB69A3
:10294000FB623B6B9A6B3B6BDB6B9A4202D33B683F
:10295000022B2CD13B6B93F8453087F82B303A682B
:10296000B968386B00F0C1FA97F92B30B3F1FF3F2B
:1029700012D13B6B5B6A002B16D03B6B243318469D
:1029800001F000F80346002B0ED07B68002B0BD023
:102990007B6801221A6007E097F82B300133DBB225
:1029A0005AB23B6B83F8452001237B6301E000238F
:1029B0007B63FB6A3B613B6983F3118800BF7B6BE0
:1029C00018463837BD4680BD80B58EB000AF786000
:1029D00039607B683B633B6B002B0AD14FF050039F
:1029E00083F31188BFF36F8FBFF34F8F3B6200BF3C
:1029F000FEE73B6B1B6C002B0AD04FF0500383F3B8
:102A00001188BFF36F8FBFF34F8FFB6100BFFEE7ED
:102A10003B6B1B68002B03D13B6B5B68002B01D128
:102A2000012300E00023002B0AD14FF0500383F371
:102A30001188BFF36F8FBFF34F8FBB6100BFFEE7FD
:102A400001F05EFDEFF311824FF0500383F3118824
:102A5000BFF36F8FBFF34F8F7A613B617B69FB627E
:102A60003B6B9B6BBB623B6BDB6BBA6A9A422BD2B4
:102A70003B6B93F8453087F82730BB6A5A1C3B6B99
:102A80009A6397F92730B3F1FF3F12D13B6B5B6A32
:102A9000002B16D03B6B2433184600F073FF03461F
:102AA000002B0ED03B68002B0BD03B6801221A6034
:102AB00007E097F827300133DBB25AB23B6B83F85B
:102AC000452001237B6301E000237B63FB6AFB60FD
:102AD000FB6883F3118800BF7B6B18463837BD460F
:102AE00080BD000080B58CB000AFF860B9607A603E
:102AF0000023FB62FB68BB62BB6A002B0AD14FF06C
:102B0000500383F31188BFF36F8FBFF34F8F3B6286
:102B100000BFFEE7BB68002B03D1BB6A1B6C002B18
:102B200001D1012300E00023002B0AD14FF0500314
:102B300083F31188BFF36F8FBFF34F8FFB6100BF2B
:102B4000FEE701F0E3F80346002B02D17B68002B7F
:102B500001D1012300E00023002B0AD14FF05003E4
:102B600083F31188BFF36F8FBFF34F8FBB6100BF3B
:102B7000FEE701F003FCBB6A9B6B7B627B6A002B68
:102B80001FD0B968B86A00F01AFA7B6A5A1EBB6A8D
:102B90009A63BB6A1B69002B0FD0BB6A10331846BF
:102BA00000F0F0FE0346002B07D03D4B4FF0805263
:102BB0001A60BFF34F8FBFF36F8F01F00FFC01233B
:102BC00069E07B68002B03D101F008FC002362E080
:102BD000FB6A002B06D107F11003184600F034FF02
:102BE0000123FB6201F0FAFB00F0CEFC01F0C6FB12
:102BF000BB6A93F844305BB2B3F1FF3F03D1BB6AC9
:102C0000002283F84420BB6A93F845305BB2B3F1ED
:102C1000FF3F03D1BB6A002283F8452001F0DEFBB1
:102C20003A1D07F110031146184600F023FF034632
:102C3000002B23D1B86A00F03AFA0346002B17D0D4
:102C4000BB6A24337A681146184600F077FEB86AEA
:102C500000F0DBF900F0A6FC0346002B89D1104BF5
:102C60004FF080521A60BFF34F8FBFF36F8F80E732
:102C7000B86A00F0CAF900F095FC7AE7B86A00F08B
:102C8000C4F900F08FFCB86A00F011FA0346002B7B
:102C90003FF46FAF002318463037BD4680BD00BFFC
:102CA00004ED00E080B58EB000AF7860396000239D
:102CB0007B637B68FB6200233B63FB6A002B0AD1CA
:102CC0004FF0500383F31188BFF36F8FBFF34F8F23
:102CD0003B6200BFFEE7FB6A1B6C002B0AD04FF083
:102CE000500383F31188BFF36F8FBFF34F8FFB61E6
:102CF00000BFFEE701F00AF80346002B02D13B6853
:102D0000002B01D1012300E00023002B0AD14FF05A
:102D1000500383F31188BFF36F8FBFF34F8FBB61F5
:102D200000BFFEE701F02AFBFB6A9B6BBB62BB6A3C
:102D3000002B24D0BB6A5A1EFB6A9A63FB6A1B688D
:102D4000002B04D101F0ACF90246FB6A5A60FB6A21
:102D50001B69002B0FD0FB6A1033184600F012FEDF
:102D60000346002B07D0544B4FF080521A60BFF33C
:102D70004F8FBFF36F8F01F031FB012397E03B686A
:102D8000002B11D13B6B002B0AD04FF0500383F383
:102D90001188BFF36F8FBFF34F8F7B6100BFFEE7DA
:102DA00001F01CFB002382E07B6B002B06D107F1B6
:102DB0000C03184600F048FE01237B6301F00EFB74
:102DC00000F0E2FB01F0DAFAFB6A93F844305BB200
:102DD000B3F1FF3F03D1FB6A002283F84420FB6A72
:102DE00093F845305BB2B3F1FF3F03D1FB6A002299
:102DF00083F8452001F0F2FA3A4607F10C03114638
:102E0000184600F037FE0346002B32D1F86A00F076
:102E10004EF90346002B26D0FB6A1B68002B09D114
:102E200001F0ACFAFB6A5B68184600F08DFF38636E
:102E300001F0D4FAFB6A24333A681146184600F0D0
:102E40007DFDF86A00F0E1F800F0ACFB0346002BD2
:102E50007FF468AF184B4FF080521A60BFF34F8F6A
:102E6000BFF36F8F5EE7F86A00F0CFF800F09AFBCF
:102E700058E7F86A00F0C9F800F094FBF86A00F02F
:102E800016F90346002B3FF44DAF3B6B002B0DD0E2
:102E900001F074FAF86A00F011F87862FB6A5B6876
:102EA000796A184601F05CF801F098FA0023184698
:102EB0003837BD4680BD00BF04ED00E080B485B06A
:102EC00000AF78607B685B6A002B06D07B681B6B69
:102ED0001B68C3F10703FB6001E00023FB60FB6894
:102EE00018461437BD4680BC704780B586B000AF29
:102EF000F860B9607A6000237B61FB689B6B3B6183
:102F0000FB681B6C002B0DD1FB681B68002B4DD19F
:102F1000FB685B68184600F09DFF7861FB68002243
:102F20005A6043E07B68002B19D1FB689868FB6806
:102F30001B6C1A46B96801F08BFDFB689A68FB6848
:102F40001B6C1A44FB689A60FB689A68FB685B68B4
:102F50009A422BD3FB681A68FB689A6026E0FB68EC
:102F6000D868FB681B6C1A46B96801F071FDFB68F4
:102F7000DA68FB681B6C5B421A44FB68DA60FB682A
:102F8000DA68FB681B689A4207D2FB685A68FB68DC
:102F90001B6C5B421A44FB68DA607B68022B05D12C
:102FA0003B69002B02D03B69013B3B613B695A1CEA
:102FB000FB689A637B6918461837BD4680BD80B5AB
:102FC00082B000AF786039607B681B6C002B18D032
:102FD0007B68DA687B681B6C1A447B68DA607B6804
:102FE000DA687B685B689A4203D37B681A687B68FF
:102FF000DA607B68D9687B681B6C1A46386801F018
:1030000027FD00BF0837BD4680BD80B584B000AF46
:10301000786001F0B3F97B6893F84530FB7311E0F9
:103020007B685B6A002B12D07B682433184600F063
:10303000A9FC0346002B01D000F07EFDFB7B013B89
:10304000DBB2FB7397F90F30002BE9DC00E000BF27
:103050007B68FF2283F8452001F0C0F901F08EF96A
:103060007B6893F84430BB7311E07B681B69002BCD
:1030700012D07B681033184600F084FC0346002B06
:1030800001D000F059FDBB7B013BDBB2BB7397F96C
:103090000E30002BE9DC00E000BF7B68FF2283F8E4
:1030A000442001F09BF900BF1037BD4680BD80B5BC
:1030B00084B000AF786001F061F97B689B6B002BF6
:1030C00002D10123FB6001E00023FB6001F086F9DF
:1030D000FB6818461037BD4680BD80B584B000AF90
:1030E000786001F04BF97B689A6B7B68DB6B9A42E6
:1030F00002D10123FB6001E00023FB6001F06EF9C7
:10310000FB6818461037BD4680BD80B58EB004AF51
:10311000F860B9607A603B607B6B002B0AD14FF09E
:10312000500383F31188BFF36F8FBFF34F8F3B6260
:1031300000BFFEE7BB6B002B0AD14FF0500383F3B7
:103140001188BFF36F8FBFF34F8FFB6100BFFEE7A6
:10315000A0233B613B69A02B0AD04FF0500383F3BF
:103160001188BFF36F8FBFF34F8FBB6100BFFEE7C6
:10317000BB6B002B1ED07B6B002B1BD0BB6B7B6211
:103180007B6A7A6B1A637B6A022283F89D20002394
:1031900003937B6A029307F1140301933B6B009343
:1031A0003B687A68B968F86800F050F8786A00F00F
:1031B000E3F801E000237B617B6918462837BD46B0
:1031C00080BD80B58CB004AFF860B9603B60134639
:1031D000FB80FB889B00184601F0D0F978617B6981
:1031E000002B0ED0A02001F0C9F9F861FB69002B7B
:1031F00003D0FB697A691A6305E0786901F088FAFF
:1032000001E00023FB61FB69002B17D0FB69002262
:1032100083F89D20FA8800230393FB690293FB6ADD
:103220000193BB6A00933B68B968F86800F00EF838
:10323000F86900F0A1F80123BB6102E04FF0FF3311
:10324000BB61BB6918462037BD4680BD80B588B0DC
:1032500000AFF860B9607A603B603B6B1A6B7B68CB
:1032600003F18043013B9B001344BB61BB6923F026
:103270000703BB61BB6903F00703002B0AD04FF0C3
:10328000500383F31188BFF36F8FBFF34F8F7B61C0
:1032900000BFFEE70023FB6112E0BA68FB6913443C
:1032A00019783A6BFB69134434330A461A70BA68CA
:1032B000FB6913441B78002B06D0FB690133FB61CB
:1032C000FB690F2BE9D900E000BF3B6B002283F8BC
:1032D0004320BB6A062B01D90623BB623B6BBA6A4B
:1032E000DA623B6BBA6A5A643B6B00229A643B6BAE
:1032F00004331846FFF77BF83B6B18331846FFF78B
:1033000076F83B6B3A6B1A61BB6AC3F107023B6B01
:103310009A613B6B3A6B5A623B6B0022C3F8982070
:103320003B6B002283F89C203B6B4C334C220021EA
:10333000184601F001FB3B6B0C4A1A653B6B0C4ACB
:103340005A653B6B0B4A9A653A68F968B86900F0B0
:1033500021FF02463B6B1A60FB6A002B02D0FB6A1E
:103360003A6B1A6000BF2037BD4680BDC82C0020D4
:10337000302D0020982D002080B582B000AF7860FD
:1033800000F0FCFF2A4B1B680133294A1360294BCC
:103390001B68002B09D1274A7B681360244B1B68EC
:1033A000012B10D100F0ECFB0DE0234B1B68002B30
:1033B00009D1204B1B68DA6A7B68DB6A9A4202D823
:1033C0001C4A7B6813601D4B1B6801331B4A13604A
:1033D0007B68DB6A01229A40194B1B681343184A29
:1033E00013607B68DA6A13469B0013449B00154AFE
:1033F0001A447B68043319461046FFF704F800F0BE
:10340000EDFF0D4B1B68002B0ED00A4B1B68DA6AD0
:103410007B68DB6A9A4207D20B4B4FF080521A60EE
:10342000BFF34F8FBFF36F8F00BF0837BD4680BD1E
:103430007C0400207C0300208804002098040020E5
:10344000840400208003002004ED00E080B584B0F7
:1034500000AF78600023FB607B68002B17D0134B14
:103460001B68002B0AD04FF0500383F31188BFF381
:103470006F8FBFF34F8FBB6000BFFEE700F084F893
:103480000021786800F020FE00F08CF8F860FB68FE
:10349000002B07D1064B4FF080521A60BFF34F8FBD
:1034A000BFF36F8F00BF1037BD4680BDA40400205E
:1034B00004ED00E080B58AB004AF0023BB600023B8
:1034C0007B603A46391D07F108031846FCF740FEB9
:1034D00039687B68BA680292019300230093002345
:1034E0000A4621492148FFF710FE0346204A13608F
:1034F0001F4B1B68002B02D001237B6101E00023DE
:103500007B617B69012B1BD14FF0500383F3118842
:10351000BFF36F8FBFF34F8F3B6100BF154B1B682D
:103520004C33154A1360154B4FF0FF321A60144BA1
:1035300001221A60134B00221A6000F0ADFE0EE06B
:103540007B69B3F1FF3F0AD14FF0500383F3118839
:10355000BFF36F8FBFF34F8FFB6000BFFEE700BF6D
:103560001837BD4680BD00BFEC4B0008513B00083A
:10357000A00400207C0300205C0000209C040020AC
:10358000880400208004002080B400AF044B1B6836
:103590000133034A136000BFBD4680BC704700BFC3
:1035A000A404002080B584B000AF0023FB6000239A
:1035B000BB60414B1B68002B0AD14FF0500383F3D3
:1035C0001188BFF36F8FBFF34F8F3B6000BFFEE7E3
:1035D00000F0D4FE384B1B68013B374A1360364B72
:1035E0001B68002B61D1354B1B68002B5DD02EE092
:1035F000334BDB68DB68FB60FB6818331846FEF76B
:103600005DFFFB6804331846FEF758FFFB68DB6A72
:1036100001229A402B4B1B6813432A4A1360FB6814
:10362000DA6A13469B0013449B00274A1A44FB683E
:10363000043319461046FEF7E6FEFB68DA6A234BB0
:103640001B68DB6A9A4202D3214B01221A601C4B91
:103650001B68002BCCD1FB68002B01D000F032FBA3
:103660001C4B1B687B607B68002B10D000F036F889
:103670000346002B02D0164B01221A607B68013BE7
:103680007B607B68002BF1D1124B00221A60104B3B
:103690001B68002B09D00123BB600F4B4FF08052F9
:1036A0001A60BFF34F8FBFF36F8F00F097FEBB68B8
:1036B00018461037BD4680BDA40400207C040020BD
:1036C0003C04002084040020800300207C030020B0
:1036D000900400208C04002004ED00E080B586B04A
:1036E00000AF00237B61514B1B68002B40F08D80A5
:1036F0004F4B1B6801333B614D4A3B6913603B698B
:10370000002B20D14B4B1B681B68002B0AD04FF0BD
:10371000500383F31188BFF36F8FBFF34F8F3B606C
:1037200000BFFEE7434B1B68FB60434B1B68414AED
:103730001360414AFB681360404B1B6801333F4AEA
:10374000136000F0BFFA3E4B1B683A699A424DD3B2
:10375000384B1B681B68002B01D1012300E00023BC
:10376000002B04D0364B4FF0FF321A603EE0314B55
:103770001B68DB68DB68BB60BB685B687B603A69C1
:103780007B689A4203D22E4A7B6813602EE0BB68A6
:1037900004331846FEF792FEBB689B6A002B04D0E8
:1037A000BB6818331846FEF789FEBB68DB6A012246
:1037B0009A40244B1B681343224A1360BB68DA6AA1
:1037C00013469B0013449B001F4A1A44BB680433F2
:1037D00019461046FEF717FEBB68DA6A1B4B1B68DA
:1037E000DB6A9A42B4D301237B61B1E7174B1B68B4
:1037F000DA6A154913469B0013449B000B441B686F
:10380000012B07D901237B6104E0114B1B680133B5
:103810000F4A13600F4B1B68002B01D001237B6103
:103820007B6918461837BD4680BD00BFA404002040
:103830008004002034040020380400209404002078
:103840009C04002084040020800300207C030020CE
:103850008C0400209004002080B586B000AF314B6E
:103860001B68002B03D0304B01221A6055E02E4B11
:1038700000221A602D4B1B681A682C4B1B681B6BAF
:103880009A4208D8294B1A68284B1B6834331946CA
:103890001046FCF775FC264B1B68FB60FB68B3FA0F
:1038A00083F3FB72FB7AC3F11F037B6121497A69C1
:1038B00013469B0013449B000B441B68002B0AD14A
:1038C0004FF0500383F31188BFF36F8FBFF34F8F17
:1038D0007B6000BFFEE77A6913469B0013449B00A0
:1038E000144A13443B613B695B685A683B695A6000
:1038F0003B695A683B6908339A4204D13B695B686B
:103900005A683B695A603B695B68DB68074A136029
:10391000064B1B684C33084A136000BF1837BD467E
:1039200080BD00BFA4040020900400207C03002080
:1039300084040020800300205C00002080B584B057
:1039400000AF786039607B68002B0AD14FF05003DC
:1039500083F31188BFF36F8FBFF34F8FFB6000BFFE
:10396000FEE7074B1B68183319467868FEF76EFDB3
:103970000121386800F0A8FB00BF1037BD4680BDAC
:103980007C03002080B586B000AF78607B68DB6880
:10399000DB683B613B69002B0AD14FF0500383F396
:1039A0001188BFF36F8FBFF34F8FFB6000BFFEE73F
:1039B0003B6918331846FEF781FD1D4B1B68002B31
:1039C0001CD13B6904331846FEF778FD3B69DB6A7E
:1039D00001229A40174B1B681343164A13603B6938
:1039E000DA6A13469B0013449B00134A1A443B694E
:1039F000043319461046FEF706FD05E03B6918330F
:103A000019460E48FEF7FFFC3B69DA6A0C4B1B684F
:103A1000DB6A9A4205D901237B610A4B01221A60B5
:103A200001E000237B617B6918461837BD4680BDE5
:103A3000A404002084040020800300203C04002013
:103A40007C0300209004002080B483B000AF786035
:103A5000064B1A687B681A60054B1A687B685A60C7
:103A600000BF0C37BD4680BC704700BF94040020E7
:103A70008004002080B588B000AF786039607B6832
:103A8000002B0AD14FF0500383F31188BFF36F8FDF
:103A9000BFF34F8F3B6100BFFEE73B68002B0AD1AD
:103AA0004FF0500383F31188BFF36F8FBFF34F8F35
:103AB000FB6000BFFEE700F061FC1D4B1B68BB61B3
:103AC0007B685B68BA69D31A7B613B681B68B3F19A
:103AD000FF3F02D10023FB6123E07B681A68154B8E
:103AE0001B689A4207D07B685B68BA699A4202D326
:103AF0000123FB6115E03B681B687A699A420BD28F
:103B00003B681A687B69D21A3B681A607868FFF7CD
:103B10009BFF0023FB6104E03B6800221A60012345
:103B2000FB6100F05BFCFB6918462037BD4680BD99
:103B3000800400209404002080B400AF034B0122D5
:103B40001A6000BFBD4680BC704700BF90040020D3
:103B500080B582B000AF786000F052F8064B1B6869
:103B6000012BF9D9054B4FF080521A60BFF34F8FEC
:103B7000BFF36F8FF0E700BF8003002004ED00E08B
:103B800080B582B000AF00237B600CE07A681346FA
:103B90009B0013449B00124A13441846FEF708FC8E
:103BA0007B6801337B607B68062BEFD90D48FEF7FD
:103BB000FFFB0D48FEF7FCFB0C48FEF7F9FB0C4839
:103BC000FEF7F6FB0B48FEF7F3FB0B4B054A1A60BA
:103BD0000A4B054A1A6000BF0837BD4680BD00BFCA
:103BE000800300200C040020200400203C0400205E
:103BF0005004002068040020340400203804002011
:103C000080B582B000AF19E000F0B8FB104BDB6864
:103C1000DB687B607B6804331846FEF74FFC0D4B76
:103C20001B68013B0B4A13600B4B1B68013B0A4AA4
:103C3000136000F0D3FB786800F010F8064B1B68A7
:103C4000002BE1D100BF00BF0837BD4680BD00BFDB
:103C5000500400207C0400206404002080B584B05F
:103C600000AF78607B684C33184600F06DFE7B68CF
:103C700093F89D30002B08D17B681B6B184600F031
:103C800047FD786800F044FD18E07B6893F89D30AC
:103C9000012B03D1786800F03BFD0FE07B6893F8BF
:103CA0009D30022B0AD04FF0500383F31188BFF3ED
:103CB0006F8FBFF34F8FFB6000BFFEE700BF103771
:103CC000BD4680BD80B483B000AF0E4B1B681B683F
:103CD000002B01D1012300E00023002B04D00A4B6C
:103CE0004FF0FF321A6008E0064B1B68DB68DB68A8
:103CF0007B607B685B68044A136000BF0C37BD467D
:103D000080BC7047340400209C04002080B483B041
:103D100000AF0B4B1B68002B02D101237B6008E036
:103D2000084B1B68002B02D102237B6001E00023BB
:103D30007B607B6818460C37BD4680BC704700BF6F
:103D400088040020A404002080B584B000AF78600F
:103D50007B68BB600023FB607B68002B6ED0BB6878
:103D6000DA6A394B1B68DB6A9A425ED2BB689B6990
:103D7000002B06DB344B1B68DB6AC3F10702BB6810
:103D80009A61BB685969BB68DA6A13469B001344A1
:103D90009B002E4A1344994201D1012300E00023E5
:103DA000002B3AD0BB6804331846FEF787FB034666
:103DB000002B15D1BB68DA6A244913469B001344D3
:103DC0009B000B441B68002B0AD1BB68DB6A0122F5
:103DD00002FA03F3DA431E4B1B6813401C4A1360BC
:103DE000194B1B68DA6ABB68DA62BB68DB6A0122BE
:103DF0009A40174B1B681343154A1360BB68DA6A75
:103E000013469B0013449B00104A1A44BB680433BA
:103E100019461046FEF7F7FA04E00B4B1B68DA6A06
:103E2000BB68DA620123FB6008E0BB685A6C064B92
:103E30001B68DB6A9A4201D20123FB60FB681846CB
:103E40001037BD4680BD00BF7C03002080030020EA
:103E50008404002080B586B000AF78607B683B6149
:103E600000237B617B68002B6ED03A4B1B683A695C
:103E70009A420AD04FF0500383F31188BFF36F8F3B
:103E8000BFF34F8FFB6000BFFEE73B699B6C002BCD
:103E90000AD14FF0500383F31188BFF36F8FBFF344
:103EA0004F8FBB6000BFFEE73B699B6C5A1E3B69AE
:103EB0009A643B69DA6A3B695B6C9A4244D03B691D
:103EC0009B6C002B40D13B6904331846FEF7F6FA91
:103ED0000346002B15D13B69DA6A1F4913469B0044
:103EE00013449B000B441B68002B0AD13B69DB6A1F
:103EF000012202FA03F3DA43184B1B681340174AF6
:103F000013603B695A6C3B69DA623B69DB6AC3F157
:103F100007023B699A613B69DB6A01229A400F4BB9
:103F20001B6813430D4A13603B69DA6A13469B0012
:103F300013449B00084A1A443B690433194610464F
:103F4000FEF761FA01237B617B6918461837BD468D
:103F500080BD00BF7C03002080030020840400207B
:103F600080B588B000AF786039607B68BB610123A1
:103F70007B617B68002B00F08880BB699B6C002B09
:103F80000AD14FF0500383F31188BFF36F8FBFF353
:103F90004F8FFB6000BFFEE7BB695B6C3A689A42DB
:103FA00002D93B68FB6102E0BB695B6CFB61BB69EA
:103FB000DB6AFA699A4268D0BB699B6C7A699A425B
:103FC00063D1344B1B68BA699A420AD14FF050034F
:103FD00083F31188BFF36F8FBFF34F8FBB6000BFB8
:103FE000FEE7BB69DB6A3B61BB69FA69DA62BB6900
:103FF0009B69002B04DBFB69C3F10702BB699A6173
:10400000BB6959693A6913469B0013449B00224AD5
:104010001344994201D1012300E00023002B34D046
:10402000BB6904331846FEF749FA0346002B15D145
:10403000BB69DA6A184913469B0013449B000B4482
:104040001B68002B0AD1BB69DB6A012202FA03F369
:10405000DA43124B1B681340104A1360BB69DB6ADA
:1040600001229A400D4B1B6813430C4A1360BB6935
:10407000DA6A13469B0013449B00074A1A44BB6943
:10408000043319461046FEF7BEF900BF2037BD467F
:1040900080BD00BF7C03002080030020840400203A
:1040A00080B400AF074B1B68002B04D0054B1B6886
:1040B0009A6C01329A64034B1B681846BD4680BC5B
:1040C000704700BF7C03002080B584B000AF7860EB
:1040D0003960294B1B68FB60284B1B68043318466A
:1040E000FEF7ECF90346002B0BD1244B1B68DB6A6F
:1040F000012202FA03F3DA43214B1B681340204AE2
:1041000013607B68B3F1FF3F0AD13B68002B07D0F7
:104110001A4B1B68043319461A48FEF774F926E057
:10412000FA687B681344BB60144B1B68BA685A601A
:10413000BA68FB689A4209D2134B1A680F4B1B6886
:10414000043319461046FEF781F910E00F4B1A6848
:104150000A4B1B68043319461046FEF777F90C4BDF
:104160001B68BA689A4202D2094ABB68136000BF52
:104170001037BD4680BD00BF800400207C030020B6
:104180008404002068040020380400203404002047
:104190009C04002080B485B000AFF860B9607A60FC
:1041A000FB68043BFB60FB684FF080721A60FB68A1
:1041B000043BFB60BB6823F00102FB681A60FB68EC
:1041C000043BFB60084AFB681A60FB68143BFB6019
:1041D0007A68FB681A60FB68203BFB60FB68184646
:1041E0001437BD4680BC7047ED41000880B485B0EF
:1041F00000AF00237B60124B1B68B3F1FF3F0AD076
:104200004FF0500383F31188BFF36F8FBFF34F8FCD
:10421000FB6000BFFEE74FF0500383F31188BFF34C
:104220006F8FBFF34F8FBB6000BF00BF7B68002B59
:10423000FCD000BF00BF1437BD4680BC704700BF34
:104240000C00002000000000000000000000000042
:10425000074B19680868B0E8F00F80F30988BFF3CE
:104260006F8F4FF0000080F311884EF00D0E7047F5
:104270007C03002000BF00BF06480068006880F390
:10428000088862B661B6BFF34F8FBFF36F8F00DF50
:1042900000BF00BF08ED00E080B584B000AF324B36
:1042A000FB60FB681B78DBB27B60FB68F0221A7056
:1042B000FB681B78DBB2FB70FB78DBB203F05003CA
:1042C000DAB22A4B1A702A4B07221A6009E0284BEF
:1042D0001B68013B264A1360FB78DBB25B00DBB254
:1042E000FB70FB78DBB203F08003802BEFD0204B18
:1042F0001B68C3F10703042B0AD04FF0500383F36C
:104300001188BFF36F8FBFF34F8FBB6000BFFEE715
:10431000174B1B681B02164A1360154B1B6803F4EE
:10432000E063134A13607B68DAB2FB681A70114BC2
:104330001B68104A43F4700313600E4B1B680D4A50
:1043400043F07043136000F0B9F80B4B00221A6081
:10435000FFF792FFFFF780FAFFF748FF00231846A8
:104360001037BD4680BD00BF00E400E0A804002077
:10437000AC04002020ED00E00C00002080B483B0ED
:1043800000AF4FF0500383F31188BFF36F8FBFF37B
:104390004F8F7B6000BF0F4B1B6801330D4A1360CA
:1043A0000C4B1B68012B0FD10B4B1B68DBB2002B96
:1043B0000AD04FF0500383F31188BFF36F8FBFF320
:1043C0004F8F3B6000BFFEE700BF0C37BD4680BC8F
:1043D000704700BF0C00002004ED00E080B483B003
:1043E00000AF114B1B68002B0AD14FF0500383F331
:1043F0001188BFF36F8FBFF34F8F7B6000BFFEE765
:10440000094B1B68013B084A1360074B1B68002BD4
:1044100005D100233B603B6883F3118800BF00BFD8
:104420000C37BD4680BC70470C0000200000000027
:10443000EFF30980BFF36F8F0D4B1A6820E9F00F7F
:1044400010602DE908404FF0500080F31188FFF70D
:1044500003FA4FF0000080F31188BDE808401968A6
:104460000868B0E8F00F80F30988BFF36F8F7047DA
:104470007C03002000BF00BF80B582B000AF4FF0CA
:10448000500383F31188BFF36F8FBFF34F8F7B60AF
:1044900000BFFFF723F90346002B03D0064B4FF074
:1044A00080521A6000233B603B6883F3118800BF91
:1044B00000BF0837BD4680BD04ED00E080B400AF0A
:1044C0000A4B00221A600A4B00221A60094B1B6833
:1044D000094AA2FB03239B09084A013B1360034BD3
:1044E00007221A6000BFBD4680BC704710E000E0A4
:1044F00018E000E000000020D34D621014E000E05E
:1045000080B485B000AFEFF30583FB60FB680F2B31
:1045100014D9164AFB6813441B78FB72144B1B78A2
:10452000FA7A9A420AD24FF0500383F31188BFF30C
:104530006F8FBFF34F8F7B6000BFFEE70D4B1B6893
:1045400003F4E0620C4B1B689A420AD94FF0500307
:1045500083F31188BFF36F8FBFF34F8F3B6000BFB2
:10456000FEE700BF1437BD4680BC7047F0E300E0B3
:10457000A80400200CED00E0AC04002080B58AB057
:1045800000AF78600023FB61FEF7FEFF5B4B1B680A
:10459000002B01D100F016F9594B1A687B681340C3
:1045A000002B40F08E807B68002B1DD008227B689A
:1045B00013447B607B6803F00703002B14D07B68F7
:1045C00023F0070308337B607B6803F00703002BAD
:1045D0000AD04FF0500383F31188BFF36F8FBFF3FE
:1045E0004F8F7B6100BFFEE77B68002B69D0454B96
:1045F0001B687A689A4264D8434B3B62424B1B6803
:104600007B6204E07B6A3B627B6A1B687B627B6A3D
:104610005B687A689A4203D97B6A1B68002BF1D1E8
:10462000364B1B687A6A9A424BD03B6A1B68082259
:104630001344FB617B6A1A683B6A1A607B6A5A689A
:104640007B68D21A08235B009A421FD97A6A7B687A
:104650001344BB61BB6903F00703002B0AD04FF082
:10466000500383F31188BFF36F8FBFF34F8F3B610C
:1046700000BFFEE77B6A5A687B68D21ABB695A6042
:104680007B6A7A685A60B86900F0FEF81D4B1A68B8
:104690007B6A5B68D31A1B4A13601A4B1A681B4B60
:1046A0001B689A4203D2174B1B68184A13607B6A37
:1046B0005A68134B1B681A437B6A5A607B6A002254
:1046C0001A60FEF76FFFFB69002B01D1FBF767FD56
:1046D000FB6903F00703002B0AD04FF0500383F36C
:1046E0001188BFF36F8FBFF34F8FFB6000BFFEE7F2
:1046F000FB6918462837BD4680BD00BFB82C002096
:10470000C42C0020BC2C0020B02C0020C02C002089
:1047100080B586B000AF78607B687B617B68002BDA
:1047200048D008235B427A6913447B617B693B6113
:104730003B695A68214B1B681340002B0AD14FF08C
:10474000500383F31188BFF36F8FBFF34F8FFB606C
:1047500000BFFEE73B691B68002B0AD04FF05003F7
:1047600083F31188BFF36F8FBFF34F8FBB6000BF20
:10477000FEE73B695A68114B1B681340002B19D0A8
:104780003B691B68002B15D13B695A680B4B1B68B2
:10479000DB431A403B695A60FEF7F6FE3B695A68F4
:1047A000074B1B681344064A1360386900F06CF825
:1047B000FEF7F8FE00BF1837BD4680BDC42C0020B0
:1047C000BC2C002080B485B000AF4FF42053BB60F8
:1047D000274BFB60FB6803F00703002B0CD0FB6842
:1047E0000733FB60FB6823F00703FB60BA68FB68D4
:1047F000D31A1F4A1344BB60FB687B601D4A7B6869
:1048000013601C4B00225A607B68BA681344FB603B
:104810000822FB689B1AFB60FB6823F00703FB6020
:10482000FB68154A1360144B1B6800225A60124B38
:104830001B6800221A607B683B603B68FA68D21AEA
:104840003B685A600C4B1A683B681A603B685B68AF
:104850000A4A13603B685B68094A1360094B4FF0D2
:1048600000421A6000BF1437BD4680BC704700BFCD
:10487000B0040020B02C0020B82C0020C02C002058
:10488000BC2C0020C42C002080B485B000AF786020
:10489000274BFB6002E0FB681B68FB60FB681B6842
:1048A0007A689A42F7D8FB68BB60FB685B68BA68B5
:1048B00013447A689A4208D1FB685A687B685B683F
:1048C0001A44FB685A60FB687B607B68BB607B684E
:1048D0005B68BA681A44FB681B689A4218D1FB6887
:1048E0001A68144B1B689A420DD07B685A68FB68A3
:1048F0001B685B681A447B685A60FB681B681A680F
:104900007B681A6008E00B4B1A687B681A6003E04A
:10491000FB681A687B681A60FA687B689A4202D062
:10492000FB687A681A6000BF1437BD4680BC7047C8
:10493000B02C0020B82C002003460244934200D142
:10494000704703F8011BF9E7294B70B51B68044653
:1049500083424BD0C36943B1DB68002B44D1E36988
:10496000196811B1204600F081F8616911B1204643
:1049700000F07CF8E16911B1204600F077F8216B76
:1049800011B1204600F072F8616B11B1204600F0C1
:104990006DF8A16B11B1204600F068F8A16C11B15F
:1049A000204600F063F8616C11B1204600F05EF81B
:1049B000E16A11B1204600F059F8236AB3B12046EC
:1049C000BDE870401847495941B90435E369802D65
:1049D000D968F8D1204600F049F8C0E70E682046B3
:1049E00000F044F83146EFE70025EFE770BD00BF67
:1049F0005C00002070B500260C4D0D4C641BA4100B
:104A0000A64209D100F086F800260A4D0A4C641B24
:104A1000A410A64205D170BD55F8043B9847013655
:104A2000EEE755F8043B98470136F2E7204C0008C2
:104A3000204C0008204C0008244C000870477047A8
:104A4000034611F8012B03F8012B002AF9D1704716
:104A50000A44914200F1FF3300D1704710B511F8BC
:104A6000014B914203F8014FF9D110BD38B505460D
:104A7000002940D051F8043C0C1F002BB8BFE418AB
:104A800000F03CF81C4A136833B963601460284690
:104A9000BDE8384000F038B8A34208D92068211892
:104AA0008B4201BF19685B6809182160EDE71A465F
:104AB0005B680BB1A342FAD911685018A0420BD120
:104AC00020680144501883421160E0D118685B6887
:104AD000084410605360DAE702D90C232B60D6E754
:104AE000206821188B4201BF19685B680918216092
:104AF00063605460CBE738BD042E00200148FFF707
:104B00009DBF00BF002E00200148FFF798BF00BFE7
:104B1000002E0020F8B500BFF8BC08BC9E467047C8
:0C4B2000F8B500BFF8BC08BC9E4670470A
:104B2C004C454420466C6173680000005365726903
:104B3C00616C20577269746520310000536572698D
:104B4C00616C20577269746520320000536572697C
:104B5C00616C20586D6974205374720053657269CE
:104B6C00616C20526561642F577269746500000096
:104B7C00486F6C6120736F792054617265612031CC
:104B8C002C2070726F62616E646F20656A6563754C
:104B9C0063696F6E20636F6E204672656552544F69
:104BAC00530D0A00486F6C6120736F792054617249
:104BBC00656120322C2070726F62616E646F2065AB
:104BCC006A65637563696F6E20636F6E20467265EC
:104BDC006552544F530D0A0052563A200000000003
:104BEC0049444C450000000000000000000000009B
:104BFC000102030406070809000000000102030477
:104C0C0002030405060708090A0B0C0D0E0F101001
:044C1C000102000091
:044C20003501000852
:044C24001101000872
:104C28000024F4001000000001000000AAAAAAAAAB
:104C380000000000C82C0020302D0020982D0020F6
:104C4800000000000000000000000000000000005C
:104C5800000000000000000000000000000000004C
:104C6800000000000000000000000000000000003C
:104C780000000000000000000000000010000020FC
:0400000508000831B6
:00000001FF
