:020000040800F2
:1000000000500020B5060008FD05000803060008A2
:10001000090600080F060008150600080000000089
:10002000000000000000000000000000F12A0008AD
:100030001B06000800000000D12C0008192D000844
:10004000FD060008FD060008FD060008FD06000884
:10005000FD060008FD060008FD060008FD06000874
:10006000FD060008FD060008FD060008FD06000864
:10007000FD060008FD060008FD060008FD06000854
:10008000FD060008FD060008FD060008FD06000844
:10009000FD060008FD060008FD060008FD06000834
:1000A000FD060008FD060008FD060008FD06000824
:1000B00029060008FD060008FD060008FD060008E8
:1000C000FD060008FD060008FD060008FD06000804
:1000D000FD060008FD060008FD060008FD060008F4
:1000E000FD060008FD060008FD06000800000000EF
:1000F0000000000000000000000000000000000000
:0C01000000000000000000005FF808F1A3
:1001100010B5054C237833B9044B13B10448AFF341
:1001200000800123237010BD60000020000000004B
:10013000603B000808B5034B1BB103490348AFF30C
:10014000008008BD0000000064000020603B000843
:1001500080B485B000AFF860B9607A60FB68064A89
:100160001A60BB68054A1A607B6880221A6000BF6B
:100170001437BD4680BC70477C0000201C01002065
:10018000B0B58EB000AF00F0BBFA00F033F800F06D
:1001900097F800F06BF8134B07F11C041D460FCDC8
:1001A0000FC495E8070084E8070007F11C0300214D
:1001B000184601F0E5FD03460B4A13600B4B3C4625
:1001C0001D460FCD0FC495E8070084E807003B46A5
:1001D0000021184601F0D4FD0346054A136001F0E2
:1001E000C8FDFEE7843B000864030020AC3B000828
:1001F0006803002080B590B000AF07F118032822F3
:100200000021184602F0C4FF3B1D00221A605A600C
:100210009A60DA601A610223BB610123BB6210237A
:10022000FB6200237B6307F11803184600F030FDE2
:100230000346002B01D000F0DCF80F237B60002385
:10024000BB600023FB6000233B6100237B613B1DFF
:100250000021184600F09EFF0346002B01D000F05D
:10026000C8F800BF4037BD4680BD000080B500AF74
:10027000114B124A1A60104B4FF416525A600E4B33
:1002800000229A600C4B0022DA600B4B00221A61AC
:10029000094B0C225A61084B00229A61064B00223E
:1002A000DA61054801F07EFB0346002B01D000F027
:1002B000A0F800BF80BD00BF1C0300200038014033
:1002C00080B588B000AF07F1100300221A605A60B1
:1002D0009A60DA601E4B9B691D4A43F010039361DC
:1002E0001B4B9B6903F01003FB60FB68184B9B6979
:1002F000174A43F020039361154B9B6903F02003D9
:10030000BB60BB68124B9B69114A43F004039361C5
:100310000F4B9B6903F004037B607B6800224FF462
:1003200000510C4800F082FC4FF400533B61012364
:100330007B610023BB610223FB6107F110031946B7
:10034000044800F0EFFA00BF2037BD4680BD00BF73
:10035000001002400010014080B582B000AF78600C
:100360004FF40051034800F079FC4FF47A7001F02B
:1003700053FDF5E70010014080B58CB000AF786008
:100380000023FB6007F110031F220021184602F032
:10039000FFFE002387F82F3097F82F2007F10C037A
:1003A0000A49184602F0D4FE07F10C016423232207
:1003B000074801F047FB97F82F30013387F82F30BB
:1003C0004FF47A7001F028FDE6E700BFC83B000853
:1003D0001C03002080B582B000AF78607B681B688A
:1003E000B3F1804F01D100F0A1F900BF0837BD463D
:1003F00080BD80B400AF72B600BFFEE780B584B0A8
:1004000000AF184B9B69174A43F001039361154BEA
:100410009B6903F00103BB60BB68124BDB69114AA7
:1004200043F08053D3610F4BDB6903F080537B6053
:100430007B6800220F216FF0010000F048FA0A4BA0
:100440005B68FB60FB6823F0E063FB60FB6843F0E4
:100450000073FB60044AFB68536000BF1037BD4661
:1004600080BD00BF001002400000014080B588B090
:1004700000AF786007F1100300221A605A609A609A
:10048000DA607B681B681C4A934231D11B4B9B6925
:100490001A4A43F480439361184B9B6903F48043E9
:1004A000FB60FB68154B9B69144A43F0040393619E
:1004B000124B9B6903F00403BB60BB684FF40073ED
:1004C0003B6102237B610323FB6107F110031946A3
:1004D0000B4800F027FA4FF480633B6100237B61F7
:1004E0000023BB6107F110031946054800F01AFA12
:1004F00000BF2037BD4680BD0038014000100240DB
:100500000008014080B58EB000AF78600023FB6228
:100510000023BB62002387F83330344BDB69334A56
:1005200043F00103D361314BDB6903F00103FB604E
:10053000FB6807F1100207F114031146184600F09A
:1005400099FF3B6AFB62FB6A002B03D100F06AFF54
:10055000786304E000F066FF03465B007B637B6B1F
:10056000234AA2FB03239B0C013BBB62214B4FF0B0
:1005700080421A601F4B40F2E732DA601D4ABB6AC4
:1005800053601C4B00221A611A4B00229A60194BCF
:1005900000229A61174800F0BBFF034687F833300A
:1005A00097F83330002B1BD1124801F009F80346AD
:1005B00087F8333097F83330002B11D11C2000F02E
:1005C000A2F97B680F2B08D8002279681C2000F064
:1005D0007EF9094A7B68136002E0012387F8333013
:1005E00097F8333018463837BD4680BD00100240BA
:1005F00083DE1B436C0300200400002080B400AFA6
:10060000FEE780B400AFFEE780B400AFFEE780B441
:1006100000AFFEE780B400AFFEE780B400AF00BFDC
:10062000BD4680BC7047000080B500AF024801F0B5
:1006300019F800BF80BD00BF6C03002080B586B0F4
:1006400000AF7860144A154BD31A7B617B693B611C
:10065000134B1B68002B02D1114B124A1A60104B2E
:100660001A687B6813443A699A4207D202F0EEFD99
:1006700003460C221A604FF0FF3309E0084B1B6859
:10068000FB60074B1A687B681344054A1360FB68DC
:1006900018461837BD4680BD0050002000040000F9
:1006A000B40300205012002080B400AF00BFBD464C
:1006B00080BC7047FFF7F8FF0B480C490C4A002339
:1006C00002E0D458C4500433C4188C42F9D3094A08
:1006D000094C002301E013600432A242FBD302F074
:1006E000BBFDFFF74DFD70470000002060000020BB
:1006F000583C00086000002050120020FEE7000077
:1007000080B500AF084B1B68074A43F01003136025
:10071000032000F0D1F80F20FFF7F4FEFFF76EFE84
:100720000023184680BD00BF0020024080B400AF07
:10073000054B1B781A46054B1B681344034A13608C
:1007400000BFBD4680BC704708000020B8030020F1
:1007500080B400AF024B1B681846BD4680BC704792
:10076000B803002080B485B000AF78607B6803F0E8
:100770000703FB600C4BDB68BB60BA684FF6FF03F6
:100780001340BB60FB681A02BB68134343F0BF63AE
:1007900043F40033BB60044ABB68D36000BF143726
:1007A000BD4680BC704700BF00ED00E080B400AFE4
:1007B000044BDB681B0A03F007031846BD4680BCE8
:1007C000704700BF00ED00E080B483B000AF034687
:1007D000FB7197F90730002B0BDBFB7903F01F024D
:1007E000064997F907305B09012000FA02F241F847
:1007F000232000BF0C37BD4680BC704700E100E0FD
:1008000080B483B000AF03463960FB7197F90730BD
:10081000002B0ADB3B68DAB20C4997F9073012016A
:10082000D2B20B4483F800230AE03B68DAB20849ED
:10083000FB7903F00F03043B1201D2B20B441A768A
:1008400000BF0C37BD4680BC704700BF00E100E030
:1008500000ED00E080B489B000AFF860B9607A6064
:10086000FB6803F00703FB61FB69C3F10703042B7B
:1008700028BF0423BB61FB690433062B02D9FB6943
:10088000033B00E000237B614FF0FF32BB6902FABB
:1008900003F3DA43BB681A407B699A404FF0FF319B
:1008A0007B6901FA03F3D9437B680B401343184675
:1008B0002437BD4680BC704780B582B000AF7860F9
:1008C0007868FFF74FFF00BF0837BD4680BD80B591
:1008D00086B000AF0346B9607A60FB7300237B618A
:1008E000FFF764FF78617A68B9687869FFF7B2FF4B
:1008F000024697F90F3011461846FFF781FF00BFF7
:100900001837BD4680BD80B582B000AF0346FB718D
:1009100097F907301846FFF757FF00BF0837BD4665
:1009200080BD000080B48BB000AF786039600023D8
:100930007B6200233B6269E101227B6A02FA03F3D6
:10094000FB613B681B68FA691340BB61BA69FB69CC
:100950009A4240F058813B685B689A4A93425ED065
:10096000984A934275D8984A934258D0964A9342EF
:100970006FD8964A934252D0944A934269D8944A87
:1009800093424CD0924A934263D8924A934246D0C3
:10099000904A93425DD8122B2AD8122B59D801A223
:1009A00052F823F01F0A0008F90900080B0A000892
:1009B0004D0A0008530A0008530A0008530A0008A9
:1009C000530A0008530A0008530A0008530A000893
:1009D000530A0008530A0008530A0008530A000883
:1009E000530A0008530A0008010A0008150A000803
:1009F000794A934213D02CE03B68DB683B6229E0E4
:100A00003B68DB6804333B6224E03B68DB68083307
:100A10003B621FE03B68DB680C333B621AE03B68DB
:100A20009B68002B02D104233B6213E03B689B6868
:100A3000012B05D108233B627B68FA691A6109E042
:100A400008233B627B68FA695A6103E000233B623A
:100A500000E000BFBB69FF2B01D87B6801E07B6829
:100A600004337B61BB69FF2B02D87B6A9B0002E0E9
:100A70007B6A083B9B003B617B691A680F213B69DD
:100A800001FA03F3DB431A40396A3B6901FA03F3C5
:100A90001A437B691A603B685B6803F08053002B44
:100AA00000F0B1804D4B9B694C4A43F001039361C8
:100AB0004A4B9B6903F00103BB60BB68484A7B6AF1
:100AC0009B08023352F82330FB607B6A03F0030378
:100AD0009B000F2202FA03F3DB43FA681340FB602A
:100AE0007B68404A934213D07B683F4A93420DD0C3
:100AF0007B683E4A934207D07B683D4A934201D1CE
:100B0000032306E0042304E0022302E0012300E0C3
:100B100000237A6A02F0030292009340FA681343BA
:100B2000FB602F497B6A9B080233FA6841F8232057
:100B30003B685B6803F48013002B06D02D4B9A684A
:100B40002C49BB6913438B6006E02A4B9A68BB694A
:100B5000DB43284913408B603B685B6803F4001358
:100B6000002B06D0234BDA682249BB691343CB60C4
:100B700006E0204BDA68BB69DB431E491340CB60BB
:100B80003B685B6803F40033002B06D0194B5A68AE
:100B90001849BB6913434B6006E0164B5A68BB69A2
:100BA000DB43144913404B603B685B6803F48033BC
:100BB000002B21D00F4B1A680E49BB6913430B6001
:100BC00021E000BF000032100000311000002210B0
:100BD000000021100000121000001110001002404F
:100BE0000000014000080140000C014000100140DD
:100BF00000140140000401400B4B1A68BB69DB4341
:100C0000094913400B607B6A01337B623B681A68B9
:100C10007B6A22FA03F3002B7FF48EAE00BF00BF85
:100C20002C37BD4680BC70470004014080B483B0BF
:100C300000AF78600B467B8013467B707B78002B7F
:100C400003D07A887B681A6103E07B881A047B688A
:100C50001A6100BF0C37BD4680BC704780B485B0B8
:100C600000AF78600B467B807B68DB68FB607A882E
:100C7000FB6813401A04FB68D9437B880B401A4376
:100C80007B681A6100BF1437BD4680BC7047000006
:100C900080B586B000AF78607B68002B01D101235E
:100CA00072E27B681B6803F00103002B00F0878071
:100CB000924B5B6803F00C03042B0CD08F4B5B68EA
:100CC00003F00C03082B12D18C4B5B6803F48033C8
:100CD000B3F5803F0BD1894B1B6803F40033002B25
:100CE0006CD07B685B68002B68D101234CE27B6889
:100CF0005B68B3F5803F06D1804B1B687F4A43F4A5
:100D0000803313602EE07B685B68002B0CD17B4B3B
:100D10001B687A4A23F480331360784B1B68774A48
:100D200023F4802313601DE07B685B68B3F5A02F7C
:100D30000CD1724B1B68714A43F4802313606F4BD4
:100D40001B686E4A43F4803313600BE06B4B1B68E7
:100D50006A4A23F480331360684B1B68674A23F4A4
:100D6000802313607B685B68002B13D0FFF7F0FCD7
:100D7000386108E0FFF7ECFC02463B69D31A642BAC
:100D800001D9032300E25D4B1B6803F40033002B01
:100D9000F0D014E0FFF7DCFC386108E0FFF7D8FC86
:100DA00002463B69D31A642B01D90323ECE1534B70
:100DB0001B6803F40033002BF0D100E000BF7B6818
:100DC0001B6803F00203002B63D04C4B5B6803F0FD
:100DD0000C03002B0BD0494B5B6803F00C03082B72
:100DE0001CD1464B5B6803F48033002B16D1434B78
:100DF0001B6803F00203002B05D07B681B69012BE5
:100E000001D00123C0E13D4B1B6823F0F8027B6851
:100E10005B69DB00394913430B603AE07B681B696F
:100E2000002B20D0364B01221A60FFF791FC38616D
:100E300008E0FFF78DFC02463B69D31A022B01D96B
:100E40000323A1E12D4B1B6803F00203002BF0D01C
:100E50002A4B1B6823F0F8027B685B69DB0027499B
:100E600013430B6015E0264B00221A60FFF770FC5D
:100E7000386108E0FFF76CFC02463B69D31A022B8D
:100E800001D9032380E11D4B1B6803F00203002BF3
:100E9000F0D17B681B6803F00803002B3AD07B6815
:100EA0009B69002B19D0174B01221A60FFF750FCE9
:100EB000386108E0FFF74CFC02463B69D31A022B6D
:100EC00001D9032360E10D4B5B6A03F00203002BA1
:100ED000F0D0012000F0FEFA1CE00A4B00221A605C
:100EE000FFF736FC38610FE0FFF732FC02463B6942
:100EF000D31A022B08D9032346E100BF0010024099
:100F00000000424280044242924B5B6A03F00203BB
:100F1000002BE9D17B681B6803F00403002B00F071
:100F2000A6800023FB758B4BDB6903F08053002BFD
:100F30000DD1884BDB69874A43F08053D361854BE1
:100F4000DB6903F08053BB60BB680123FB75824BF8
:100F50001B6803F48073002B18D17F4B1B687E4AFB
:100F600043F480731360FFF7F3FB386108E0FFF789
:100F7000EFFB02463B69D31A642B01D9032303E13B
:100F8000754B1B6803F48073002BF0D07B68DB6823
:100F9000012B06D16F4B1B6A6E4A43F001031362AB
:100FA0002DE07B68DB68002B0CD16A4B1B6A694A19
:100FB00023F001031362674B1B6A664A23F00403A4
:100FC00013621CE07B68DB68052B0CD1614B1B6A4C
:100FD000604A43F0040313625E4B1B6A5D4A43F0B0
:100FE000010313620BE05B4B1B6A5A4A23F00103B7
:100FF0001362584B1B6A574A23F0040313627B6841
:10100000DB68002B15D0FFF7A3FB38610AE0FFF780
:101010009FFB02463B69D31A41F28832934201D9C1
:101020000323B1E04B4B1B6A03F00203002BEED00D
:1010300014E0FFF78DFB38610AE0FFF789FB0246F9
:101040003B69D31A41F28832934201D903239BE0D2
:10105000404B1B6A03F00203002BEED1FB7D012BFA
:1010600005D13C4BDB693B4A23F08053D3617B685D
:10107000DB69002B00F08780364B5B6803F00C03C4
:10108000082B61D07B68DB69022B46D1334B0022F1
:101090001A60FFF75DFB386108E0FFF759FB024675
:1010A0003B69D31A022B01D903236DE0294B1B683E
:1010B00003F00073002BF0D17B681B6AB3F5803F0F
:1010C00008D1244B5B6823F400327B689B6821497C
:1010D00013434B601F4B5B6823F474127B68196ADF
:1010E0007B685B6A0B431B4913434B601B4B01221C
:1010F0001A60FFF72DFB386108E0FFF729FB024675
:101100003B69D31A022B01D903233DE0114B1B6825
:1011100003F00073002BF0D035E0104B00221A6072
:10112000FFF716FB386108E0FFF712FB02463B6948
:10113000D31A022B01D9032326E0064B1B6803F0C8
:101140000073002BF0D11EE07B68DB69012B07D117
:10115000012319E00010024000700040600042428C
:101160000B4B5B68FB60FB6803F480327B681B6A97
:101170009A4206D1FB6803F470127B685B6A9A425C
:1011800001D0012300E0002318461837BD4680BD7A
:101190000010024080B584B000AF786039607B6891
:1011A000002B01D10123D0E06A4B1B6803F0070339
:1011B0003A689A4210D9674B1B6823F007026549C9
:1011C0003B6813430B60634B1B6803F007033A68EB
:1011D0009A4201D00123B8E07B681B6803F0020348
:1011E000002B20D07B681B6803F00403002B05D084
:1011F000594B5B68584A43F4E06353607B681B6853
:1012000003F00803002B05D0534B5B68524A43F4AC
:1012100060535360504B5B6823F0F0027B689B681F
:101220004D4913434B607B681B6803F00103002B9F
:1012300040D07B685B68012B07D1474B1B6803F4E8
:101240000033002B15D101237FE07B685B68022B04
:1012500007D1414B1B6803F00073002B09D1012318
:1012600073E03D4B1B6803F00203002B01D1012307
:101270006BE0394B5B6823F003027B685B6836499F
:1012800013434B60FFF764FAF8600AE0FFF760FA77
:101290000246FB68D31A41F28832934201D90323F4
:1012A00053E02D4B5B6803F00C027B685B689B008E
:1012B0009A42EBD1274B1B6803F007033A689A4226
:1012C00010D2244B1B6823F0070222493B681343CA
:1012D0000B60204B1B6803F007033A689A4201D069
:1012E000012332E07B681B6803F00403002B08D065
:1012F000194B5B6823F4E0627B68DB681649134393
:101300004B607B681B6803F00803002B09D0124B6D
:101310005B6823F460527B681B69DB000E49134352
:101320004B6000F021F802460B4B5B681B0903F091
:101330000F030A49CB5C22FA03F3094A1360094BF5
:101340001B681846FFF7DEF8002318461037BD4625
:1013500080BD00BF0020024000100240F03B0008AA
:10136000000000200400002080B487B000AF0023FC
:10137000FB600023BB6000237B6100237B600023B4
:101380003B611E4B5B68FB60FB6803F00C03042BA6
:1013900002D0082B03D027E0194B3B6127E0FB6804
:1013A0009B0C03F00F03174AD35C7B60FB6803F4CC
:1013B0008033002B10D0114B5B685B0C03F00103F2
:1013C000114AD35CBB607B680D4A03FB02F2BB6829
:1013D000B2FBF3F37B6104E07B680C4A02FB03F38E
:1013E0007B617B693B6102E0054B3B6100BF3B6970
:1013F00018461C37BD4680BC704700BF0010024035
:1014000000127A00083C0008183C000800093D0062
:1014100080B400AF024B1B681846BD4680BC7047C5
:101420000000002080B500AFFFF7F2FF0246054B39
:101430005B681B0A03F007030349CB5C22FA03F342
:10144000184680BD00100240003C000880B500AF87
:10145000FFF7DEFF0246054B5B68DB0A03F007037C
:101460000349CB5C22FA03F3184680BD001002400A
:10147000003C000880B483B000AF786039607B68BE
:101480000F221A60114B5B6803F003027B685A60FD
:101490000E4B5B6803F0F0027B689A600B4B5B6855
:1014A00003F4E0627B68DA60084B5B68DB0803F4F6
:1014B000E0627B681A61064B1B6803F007023B6819
:1014C0001A6000BF0C37BD4680BC70470010024058
:1014D0000020024080B485B000AF78600A4B1B68E2
:1014E0000A4AA2FB03235B0A7A6802FB03F3FB6050
:1014F00000BFFB685A1EFA60002BF9D100BF00BF85
:101500001437BD4680BC704700000020D34D6210E8
:1015100080B582B000AF78607B68002B01D10123D9
:1015200041E07B6893F83D30DBB2002B06D17B684D
:10153000002283F83C20786800F039F87B680222AA
:1015400083F83D207B681A687B680433194610468F
:1015500000F0B4F97B68012283F846207B68012201
:1015600083F83E207B68012283F83F207B680122BC
:1015700083F840207B68012283F841207B680122A8
:1015800083F842207B68012283F843207B68012294
:1015900083F844207B68012283F845207B68012280
:1015A00083F83D20002318460837BD4680BD80B42F
:1015B00083B000AF786000BF0C37BD4680BC704779
:1015C00080B485B000AF78607B6893F83D30DBB2C3
:1015D000012B01D001233AE07B68022283F83D20F1
:1015E0007B681B68DA687B681B6842F00102DA607E
:1015F0007B681B68184A93420ED07B681B68B3F166
:10160000804F09D07B681B68144A934204D07B68E2
:101610001B68134A934211D17B681B689B6803F0D7
:101620000703FB60FB68062B10D07B681B681A68F9
:101630007B681B6842F001021A6007E07B681B6848
:101640001A687B681B6842F001021A600023184682
:101650001437BD4680BC7047002C01400004004098
:101660000008004080B582B000AF78607B681B68DE
:101670001B6903F00203022B22D17B681B68DB6825
:1016800003F00203022B1BD17B681B686FF0020280
:101690001A617B6801221A777B681B689B6903F0DB
:1016A0000303002B03D0786800F0EDF805E07868BC
:1016B00000F0E0F8786800F0EFF87B6800221A7715
:1016C0007B681B681B6903F00403042B22D17B6831
:1016D0001B68DB6803F00403042B1BD17B681B68C9
:1016E0006FF004021A617B6802221A777B681B681C
:1016F0009B6903F44073002B03D0786800F0C3F8B3
:1017000005E0786800F0B6F8786800F0C5F87B6806
:1017100000221A777B681B681B6903F00803082BFB
:1017200022D17B681B68DB6803F00803082B1BD100
:101730007B681B686FF008021A617B6804221A77C5
:101740007B681B68DB6903F00303002B03D0786818
:1017500000F099F805E0786800F08CF8786800F0FF
:101760009BF87B6800221A777B681B681B6903F073
:101770001003102B22D17B681B68DB6803F0100379
:10178000102B1BD17B681B686FF010021A617B68FD
:1017900008221A777B681B68DB6903F44073002B0F
:1017A00003D0786800F06FF805E0786800F062F820
:1017B000786800F071F87B6800221A777B681B68F4
:1017C0001B6903F00103012B0ED17B681B68DB68EA
:1017D00003F00103012B07D17B681B686FF0010246
:1017E0001A617868FEF7F6FD7B681B681B6903F0D9
:1017F0008003802B0ED17B681B68DB6803F08003BD
:10180000802B07D17B681B686FF080021A617868B3
:1018100000F0BFF87B681B681B6903F04003402B96
:101820000ED17B681B68DB6803F04003402B07D1B7
:101830007B681B686FF040021A61786800F035F829
:101840007B681B681B6903F02003202B0ED17B688B
:101850001B68DB6803F02003202B07D17B681B6823
:101860006FF020021A61786800F08AF800BF08372C
:10187000BD4680BD80B483B000AF786000BF0C3738
:10188000BD4680BC704780B483B000AF786000BFB5
:101890000C37BD4680BC704780B483B000AF786021
:1018A00000BF0C37BD4680BC704780B483B000AF2A
:1018B000786000BF0C37BD4680BC704780B485B0EF
:1018C00000AF786039607B681B68FB607B68294AE1
:1018D00093420BD07B68B3F1804F07D07B68264AD8
:1018E000934203D07B68254A934208D1FB6823F0DA
:1018F0007003FB603B685B68FA681343FB607B68BE
:101900001C4A93420BD07B68B3F1804F07D07B68B1
:10191000194A934203D07B68184A934208D1FB6866
:1019200023F44073FB603B68DB68FA681343FB6099
:10193000FB6823F080023B685B691343FB607B68B4
:10194000FA681A603B689A687B68DA623B681A68D2
:101950007B689A627B68074A934203D13B681A69A5
:101960007B681A637B6801225A6100BF1437BD4649
:1019700080BC7047002C014000040040000800407B
:1019800080B483B000AF786000BF0C37BD4680BC28
:10199000704780B483B000AF786000BF0C37BD469D
:1019A00080BC704780B582B000AF78607B68002B48
:1019B00001D1012342E07B6893F84130DBB2002B78
:1019C00006D17B68002283F840207868FEF74EFD40
:1019D0007B68242283F841207B681B68DA687B6877
:1019E0001B6822F40052DA60786800F01DF97B6809
:1019F0001B681A697B681B6822F490421A617B6835
:101A00001B685A697B681B6822F02A025A617B684E
:101A10001B68DA687B681B6842F40052DA607B68F6
:101A200000225A647B68202283F841207B682022B0
:101A300083F842207B6800225A6300231846083747
:101A4000BD4680BD80B58AB002AFF860B9603B602A
:101A50001346FB8000237B61FB6893F84130DBB2C7
:101A6000202B6DD1BB68002B02D0FB88002B01D14D
:101A7000012366E0FB6800225A64FB68212283F898
:101A80004120FEF765FE7861FB68FA889A84FB685E
:101A9000FA88DA84FB689B68B3F5805F08D1FB683D
:101AA0001B69002B04D10023FB61BB68BB6103E011
:101AB000BB68FB610023BB612AE03B6800937B6944
:101AC00000228021F86800F040F80346002B01D086
:101AD000032336E0FB69002B0BD1BB691B881A4638
:101AE000FB681B68C2F308025A60BB690233BB6122
:101AF00007E0FB691A78FB681B685A60FB690133D1
:101B0000FB61FB68DB8C9BB2013B9AB2FB68DA8419
:101B1000FB68DB8C9BB2002BCFD13B6800937B69C9
:101B200000224021F86800F010F80346002B01D095
:101B3000032306E0FB68202283F84120002300E015
:101B4000022318462037BD4680BD80B590B000AF57
:101B5000F860B9603B601346FB7150E0BB6CB3F1B9
:101B6000FF3F4CD0BB6C002B07D0FEF7F1FD0246C7
:101B70003B68D31ABA6C9A4241D2FB681B680C339B
:101B8000BB62BB6A53E8003F7B627B6A23F4D0737D
:101B9000FB63FB681B680C33FA6B7A633B63396B3E
:101BA0007A6B41E80023FB62FB6A002BE5D1FB68FE
:101BB0001B6814337B617B6953E8003F3B613B69E1
:101BC00023F00103BB63FB681B681433BA6B3A62F2
:101BD000FB61F9693A6A41E80023BB61BB69002BEC
:101BE000E5D1FB68202283F84120FB68202283F89E
:101BF0004220FB68002283F8402003230FE0FB68AB
:101C00001B681A68BB681340BA689A420CBF01236C
:101C10000023DBB21A46FB799A429FD00023184674
:101C20004037BD4680BD000080B584B000AF78600D
:101C30007B681B681B6923F440517B68DA687B680A
:101C40001B680A431A617B689A687B681B691A43A0
:101C50007B685B691343BB607B681B68DB6823F4AC
:101C6000B05323F00C037A681268B9680B43D36051
:101C70007B681B685B6923F440717B689A697B68A9
:101C80001B680A435A617B681B682C4A934203D144
:101C9000FFF7DCFBF86002E0FFF7C4FBF860FA68CE
:101CA00013469B0013449A001A447B685B689B00B0
:101CB000B2FBF3F3224AA2FB03235B091901FA6882
:101CC00013469B0013449A001A447B685B689B0090
:101CD000B2FBF3F21A4BA3FB02035B09642000FB87
:101CE00003F3D31A1B013233154AA2FB03235B090A
:101CF00003F0F0031944FA6813469B0013449A005A
:101D00001A447B685B689B00B2FBF3F20C4BA3FBAD
:101D100002035B09642000FB03F3D31A1B01323377
:101D2000074AA2FB03235B0903F00F027B681B68D1
:101D30000A449A6000BF1037BD4680BD003801409C
:101D40001F85EB5180B485B000AF0346FB800023B4
:101D5000FB60B7F90630842B05D0B7F90620FB6885
:101D600013440333FB60FB6818461437BD4680BC40
:101D7000704780B500AF00F0E7FA0023184680BD39
:101D8000F0B589B004AF786039607B685B69002B7F
:101D900020D07B689B69002B1CD07B685C687B68CB
:101DA0001D687B681E697B68B3F908301846FFF729
:101DB000C9FF01467B685B697A6892690292019368
:101DC00000913B6832462946204600F0E8F8034679
:101DD000FB601CE07B685C687B681D687B681B6936
:101DE0009EB27B68B3F908301846FFF7ABFF024696
:101DF00007F10C03019300923B68324629462046C6
:101E000000F029F90346012B01D0002300E0FB6814
:101E100018461437BD46F0BD80B584B000AF786079
:101E20007B68FB60FB68002B01D0FB6800E00123AE
:101E3000184600F055FA002318461037BD4680BDFD
:101E400080B483B000AF78607B6803F108027B68E0
:101E50005A607B684FF0FF329A607B6803F108029A
:101E60007B68DA607B6803F108027B681A617B6833
:101E700000221A6000BF0C37BD4680BC704780B49A
:101E800083B000AF78607B6800221A6100BF0C3716
:101E9000BD4680BC704780B485B000AF78603960C3
:101EA0007B685B68FB603B68FA685A60FB689A680D
:101EB0003B689A60FB689B683A685A60FB683A68BE
:101EC0009A603B687A681A617B681B685A1C7B6859
:101ED0001A6000BF1437BD4680BC704780B485B01F
:101EE00000AF786039603B681B68BB60BB68B3F1CA
:101EF000FF3F03D17B681B69FB600CE07B68083304
:101F0000FB6002E0FB685B68FB60FB685B681B686A
:101F1000BA689A42F6D2FB685A683B685A603B68D6
:101F20005B683A689A603B68FA689A60FB683A684E
:101F30005A603B687A681A617B681B685A1C7B6828
:101F40001A6000BF1437BD4680BC704780B485B0AE
:101F500000AF78607B681B69FB607B685B687A68B0
:101F600092689A607B689B687A6852685A60FB68DE
:101F70005B687A689A4203D17B689A68FB685A600A
:101F80007B6800221A61FB681B685A1EFB681A6096
:101F9000FB681B6818461437BD4680BC704780B587
:101FA0008EB004AFF860B9607A603B607B6B002B49
:101FB0000AD14FF0500383F31188BFF36F8FBFF343
:101FC0004F8F3B6200BFFEE7BB6B002B0AD14FF087
:101FD000500383F31188BFF36F8FBFF34F8FFB6103
:101FE00000BFFEE7A0233B613B69A02B0AD04FF066
:101FF000500383F31188BFF36F8FBFF34F8FBB6123
:1020000000BFFEE7BB6B002B1ED07B6B002B1BD0F1
:10201000BB6B7B627B6A7A6B1A637B6A022283F8F2
:102020009D20002303937B6A029307F1140301931D
:102030003B6B00933B687A68B968F86800F050F829
:10204000786A00F0E3F801E000237B617B691846C1
:102050002837BD4680BD80B58CB004AFF860B9604C
:102060003B601346FB80FB889B00184600F098FEFF
:1020700078617B69002B0ED0A02000F091FEF86102
:10208000FB69002B03D0FB697A691A6305E0786964
:1020900000F04AFF01E00023FB61FB69002B17D031
:1020A000FB69002283F89D20FA8800230393FB69D3
:1020B0000293FB6A0193BB6A00933B68B968F868B6
:1020C00000F00EF8F86900F0A1F80123BB6102E00E
:1020D0004FF0FF33BB61BB6918462037BD4680BD5A
:1020E00080B588B000AFF860B9607A603B603B6B48
:1020F0001A6B7B6803F18043013B9B001344BB6177
:10210000BB6923F00703BB61BB6903F00703002B26
:102110000AD04FF0500383F31188BFF36F8FBFF3E2
:102120004F8F7B6100BFFEE70023FB6112E0BA68BE
:10213000FB69134419783A6BFB69134434330A463C
:102140001A70BA68FB6913441B78002B06D0FB6930
:102150000133FB61FB690F2BE9D900E000BF3B6B4A
:10216000002283F84320BB6A062B01D90623BB62F9
:102170003B6BBA6ADA623B6BBA6A5A643B6B002209
:102180009A643B6B04331846FFF779FE3B6B1833B8
:102190001846FFF774FE3B6B3A6B1A61BB6AC3F1DA
:1021A00007023B6B9A613B6B3A6B5A623B6B0022B6
:1021B000C3F898203B6B002283F89C203B6B4C3388
:1021C0004C220021184600F0E3FF3B6B0C4A1A65D5
:1021D0003B6B0C4A5A653B6B0B4A9A653A68F96847
:1021E000B86900F029FC02463B6B1A60FB6A002BC1
:1021F00002D0FB6A3A6B1A6000BF2037BD4680BD33
:102200000811002070110020D811002080B582B084
:1022100000AF786000F002FD2A4B1B680133294AA9
:102220001360294B1B68002B09D1274A7B68136078
:10223000244B1B68012B10D100F0D2FA0DE0234B88
:102240001B68002B09D1204B1B68DA6A7B68DB6AAC
:102250009A4202D81C4A7B6813601D4B1B680133ED
:102260001B4A13607B68DB6A01229A40194B1B688A
:102270001343184A13607B68DA6A13469B001344C1
:102280009B00154A1A447B68043319461046FFF731
:1022900002FE00F0F3FC0D4B1B68002B0ED00A4B26
:1022A0001B68DA6A7B68DB6A9A4207D20B4B4FF0F5
:1022B00080521A60BFF34F8FBFF36F8F00BF083794
:1022C000BD4680BDBC040020BC030020C804002023
:1022D000D8040020C4040020C003002004ED00E066
:1022E00080B584B000AF78600023FB607B68002B72
:1022F00017D0134B1B68002B0AD04FF0500383F309
:102300001188BFF36F8FBFF34F8FBB6000BFFEE735
:1023100000F084F80021786800F028FB00F08CF8C9
:10232000F860FB68002B07D1064B4FF080521A6013
:10233000BFF34F8FBFF36F8F00BF1037BD4680BD17
:10234000E404002004ED00E080B58AB004AF00236F
:10235000BB6000237B603A46391D07F1080318462D
:10236000FDF7F6FE39687B68BA6802920193002394
:10237000009300230A4621492148FFF710FE034637
:10238000204A13601F4B1B68002B02D001237B6186
:1023900001E000237B617B69012B1BD14FF05003CF
:1023A00083F31188BFF36F8FBFF34F8F3B6100BF83
:1023B000154B1B684C33154A1360154B4FF0FF3219
:1023C0001A60144B01221A60134B00221A6000F0AD
:1023D000B3FB0EE07B69B3F1FF3F0AD14FF050032E
:1023E00083F31188BFF36F8FBFF34F8FFB6000BF84
:1023F000FEE700BF1837BD4680BD00BFE83B0008C0
:10240000B1270008E0040020BC0300205C0000208D
:10241000DC040020C8040020C004002080B400AF09
:10242000044B1B680133034A136000BFBD4680BCE8
:10243000704700BFE404002080B584B000AF0023E3
:10244000FB600023BB60414B1B68002B0AD14FF09F
:10245000500383F31188BFF36F8FBFF34F8F3B603F
:1024600000BFFEE700F0DAFB384B1B68013B374A40
:102470001360364B1B68002B61D1354B1B68002B5A
:102480005DD02EE0334BDB68DB68FB60FB68183304
:102490001846FFF75BFDFB6804331846FFF756FD4F
:1024A000FB68DB6A01229A402B4B1B6813432A4AC4
:1024B0001360FB68DA6A13469B0013449B00274AAB
:1024C0001A44FB68043319461046FFF7E4FCFB6826
:1024D000DA6A234B1B68DB6A9A4202D3214B012242
:1024E0001A601C4B1B68002BCCD1FB68002B01D061
:1024F00000F018FA1C4B1B687B607B68002B10D027
:1025000000F036F80346002B02D0164B01221A6069
:102510007B68013B7B607B68002BF1D1124B002272
:102520001A60104B1B68002B09D00123BB600F4BB6
:102530004FF080521A60BFF34F8FBFF36F8F00F0E0
:102540009DFBBB6818461037BD4680BDE4040020E3
:10255000BC0400207C040020C4040020C003002030
:10256000BC030020D0040020CC04002004ED00E0D7
:1025700080B586B000AF00237B61514B1B68002BF8
:1025800040F08D804F4B1B6801333B614D4A3B69E6
:1025900013603B69002B20D14B4B1B681B68002B41
:1025A0000AD04FF0500383F31188BFF36F8FBFF34E
:1025B0004F8F3B6000BFFEE7434B1B68FB60434B04
:1025C0001B68414A1360414AFB681360404B1B681B
:1025D00001333F4A136000F0A5F93E4B1B683A698E
:1025E0009A424DD3384B1B681B68002B01D1012345
:1025F00000E00023002B04D0364B4FF0FF321A606E
:102600003EE0314B1B68DB68DB68BB60BB685B6826
:102610007B603A697B689A4203D22E4A7B681360DA
:102620002EE0BB6804331846FFF790FCBB689B6A3A
:10263000002B04D0BB6818331846FFF787FCBB6833
:10264000DB6A01229A40244B1B681343224A136021
:10265000BB68DA6A13469B0013449B001F4A1A4466
:10266000BB68043319461046FFF715FCBB68DA6AED
:102670001B4B1B68DB6A9A42B4D301237B61B1E731
:10268000174B1B68DA6A154913469B0013449B00DD
:102690000B441B68012B07D901237B6104E0114B1C
:1026A0001B6801330F4A13600F4B1B68002B01D0CE
:1026B00001237B617B6918461837BD4680BD00BF8A
:1026C000E4040020C00400207404002078040020EA
:1026D000D4040020DC040020C4040020C003002037
:1026E000BC030020CC040020D004002080B487B0BC
:1026F00000AF294B1B68002B03D0284B01221A6026
:1027000044E0264B00221A60254B1B68FB60FB68E7
:10271000B3FA83F3FB72FB7AC3F11F037B61214998
:102720007A6913469B0013449B000B441B68002BE3
:102730000AD14FF0500383F31188BFF36F8FBFF3BB
:102740004F8F7B6000BFFEE77A6913469B001344FE
:102750009B00144A13443B613B695B685A683B69C0
:102760005A603B695A683B6908339A4204D13B6915
:102770005B685A683B695A603B695B68DB680A4A78
:102780001360094B1B684C33084A136000BF1C37A9
:10279000BD4680BC704700BFE4040020D004002088
:1027A000C4040020C0030020BC0300205C00002003
:1027B00080B582B000AF786000F052F8064B1B681D
:1027C000012BF9D9054B4FF080521A60BFF34F8FA0
:1027D000BFF36F8FF0E700BFC003002004ED00E0FF
:1027E00080B582B000AF00237B600CE07A681346AE
:1027F0009B0013449B00124A13441846FFF720FB2A
:102800007B6801337B607B68062BEFD90D48FFF7AF
:1028100017FB0D48FFF714FB0C48FFF711FB0C48A2
:10282000FFF70EFB0B48FFF70BFB0B4B054A1A603B
:102830000A4B054A1A6000BF0837BD4680BD00BF7D
:10284000C00300204C040020600400207C04002011
:1028500090040020A80400207404002078040020C4
:1028600080B582B000AF19E000F0D8F9104BDB68FA
:10287000DB687B607B6804331846FFF767FB0D4B12
:102880001B68013B0B4A13600B4B1B68013B0A4A58
:10289000136000F0F3F9786800F010F8064B1B683D
:1028A000002BE1D100BF00BF0837BD4680BD00BF8F
:1028B00090040020BC040020A404002080B584B053
:1028C00000AF78607B684C33184600F069FC7B6889
:1028D00093F89D30002B08D17B681B6B184600F0E5
:1028E00023FB786800F020FB18E07B6893F89D30AC
:1028F000012B03D1786800F017FB0FE07B6893F899
:102900009D30022B0AD04FF0500383F31188BFF3A0
:102910006F8FBFF34F8FFB6000BFFEE700BF103724
:10292000BD4680BD80B483B000AF0E4B1B681B68F2
:10293000002B01D1012300E00023002B04D00A4B1F
:102940004FF0FF321A6008E0064B1B68DB68DB685B
:102950007B607B685B68044A136000BF0C37BD4630
:1029600080BC704774040020DC04002080B584B073
:1029700000AF78603960294B1B68FB60284B1B68EF
:1029800004331846FFF7E2FA0346002B0BD1244B21
:102990001B68DB6A012202FA03F3DA43214B1B684E
:1029A0001340204A13607B68B3F1FF3F0AD13B68B4
:1029B000002B07D01A4B1B68043319461A48FFF73F
:1029C0006AFA26E0FA687B681344BB60144B1B6804
:1029D000BA685A60BA68FB689A4209D2134B1A68FF
:1029E0000F4B1B68043319461046FFF777FA10E0C7
:1029F0000F4B1A680A4B1B68043319461046FFF741
:102A00006DFA0C4B1B68BA689A4202D2094ABB683D
:102A1000136000BF1037BD4680BD00BFC00400205A
:102A2000BC030020C4040020A80400207804002077
:102A300074040020DC04002080B485B000AFF8608E
:102A4000B9607A60FB68043BFB60FB684FF0807202
:102A50001A60FB68043BFB60BB6823F00102FB6863
:102A60001A60FB68043BFB60084AFB681A60FB685D
:102A7000143BFB607A68FB681A60FB68203BFB60D4
:102A8000FB6818461437BD4680BC7047912A000881
:102A900080B485B000AF00237B60124B1B68B3F19C
:102AA000FF3F0AD04FF0500383F31188BFF36F8FBD
:102AB000BFF34F8FFB6000BFFEE74FF0500383F37F
:102AC0001188BFF36F8FBFF34F8FBB6000BF00BF94
:102AD0007B68002BFCD000BF00BF1437BD4680BC14
:102AE000704700BF0C000020000000000000000044
:102AF000074B19680868B0E8F00F80F30988BFF346
:102B00006F8F4FF0000080F311884EF00D0E70476C
:102B1000BC03002000BF00BF06480068006880F3C7
:102B2000088862B661B6BFF34F8FBFF36F8F00DFC7
:102B300000BF00BF08ED00E080B584B000AF324BAD
:102B4000FB60FB681B78DBB27B60FB68F0221A70CD
:102B5000FB681B78DBB2FB70FB78DBB203F0500341
:102B6000DAB22A4B1A702A4B07221A6009E0284B66
:102B70001B68013B264A1360FB78DBB25B00DBB2CB
:102B8000FB70FB78DBB203F08003802BEFD0204B8F
:102B90001B68C3F10703042B0AD04FF0500383F3E3
:102BA0001188BFF36F8FBFF34F8FBB6000BFFEE78D
:102BB000174B1B681B02164A1360154B1B6803F466
:102BC000E063134A13607B68DAB2FB681A70114B3A
:102BD0001B68104A43F4700313600E4B1B680D4AC8
:102BE00043F07043136000F0B9F80B4B00221A60F9
:102BF000FFF792FFFFF77AFDFFF74AFF0023184621
:102C00001037BD4680BD00BF00E400E0E8040020AE
:102C1000EC04002020ED00E00C00002080B483B024
:102C200000AF4FF0500383F31188BFF36F8FBFF3F2
:102C30004F8F7B6000BF0F4B1B6801330D4A136041
:102C40000C4B1B68012B0FD10B4B1B68DBB2002B0D
:102C50000AD04FF0500383F31188BFF36F8FBFF397
:102C60004F8F3B6000BFFEE700BF0C37BD4680BC06
:102C7000704700BF0C00002004ED00E080B483B07A
:102C800000AF114B1B68002B0AD14FF0500383F3A8
:102C90001188BFF36F8FBFF34F8F7B6000BFFEE7DC
:102CA000094B1B68013B084A1360074B1B68002B4C
:102CB00005D100233B603B6883F3118800BF00BF50
:102CC0000C37BD4680BC70470C000020000000009F
:102CD000EFF30980BFF36F8F0D4B1A6820E9F00FF7
:102CE00010602DE908404FF0500080F31188FFF785
:102CF000FDFC4FF0000080F31188BDE80840196822
:102D00000868B0E8F00F80F30988BFF36F8F704751
:102D1000BC03002000BF00BF80B582B000AF4FF001
:102D2000500383F31188BFF36F8FBFF34F8F7B6026
:102D300000BFFFF71DFC0346002B03D0064B4FF0EE
:102D400080521A6000233B603B6883F3118800BF08
:102D500000BF0837BD4680BD04ED00E080B400AF81
:102D60000A4B00221A600A4B00221A60094B1B68AA
:102D7000094AA2FB03239B09084A013B1360034B4A
:102D800007221A6000BFBD4680BC704710E000E01B
:102D900018E000E000000020D34D621014E000E0D5
:102DA00080B58AB000AF78600023FB61FFF736FB87
:102DB000584B1B68002B01D100F010F9564B1A68D4
:102DC0007B681340002B40F08E807B68002B1DD069
:102DD00008227B6813447B607B6803F00703002BA9
:102DE00014D07B6823F0070308337B607B6803F013
:102DF0000703002B0AD04FF0500383F31188BFF371
:102E00006F8FBFF34F8F7B6100BFFEE77B68002BA6
:102E100069D0424B1B687A689A4264D8404B3B6247
:102E20003F4B1B687B6204E07B6A3B627B6A1B68EA
:102E30007B627B6A5B687A689A4203D97B6A1B680B
:102E4000002BF1D1334B1B687A6A9A424BD03B6A14
:102E50001B6808221344FB617B6A1A683B6A1A608C
:102E60007B6A5A687B68D21A08235B009A421FD992
:102E70007A6A7B681344BB61BB6903F00703002BCC
:102E80000AD04FF0500383F31188BFF36F8FBFF365
:102E90004F8F3B6100BFFEE77B6A5A687B68D21A9E
:102EA000BB695A607B6A7A685A60B86900F0F8F8C2
:102EB0001A4B1A687B6A5B68D31A184A1360174B5F
:102EC0001A68184B1B689A4203D2144B1B68154AA8
:102ED00013607B6A5A68104B1B681A437B6A5A60FE
:102EE0007B6A00221A60FFF7A7FAFB6903F0070369
:102EF000002B0AD04FF0500383F31188BFF36F8F7C
:102F0000BFF34F8FFB6000BFFEE7FB691846283711
:102F1000BD4680BDF810002004110020FC100020E8
:102F2000F01000200011002080B586B000AF78605E
:102F30007B687B617B68002B48D008235B427A6901
:102F400013447B617B693B613B695A68214B1B6879
:102F50001340002B0AD14FF0500383F31188BFF3C5
:102F60006F8FBFF34F8FFB6000BFFEE73B691B68AD
:102F7000002B0AD04FF0500383F31188BFF36F8FFB
:102F8000BFF34F8FBB6000BFFEE73B695A68114B30
:102F90001B681340002B19D03B691B68002B15D10F
:102FA0003B695A680B4B1B68DB431A403B695A600C
:102FB000FFF734FA3B695A68074B1B681344064A0B
:102FC0001360386900F06CF8FFF736FA00BF183765
:102FD000BD4680BD04110020FC10002080B485B0E7
:102FE00000AF4FF44063BB60274BFB60FB6803F00E
:102FF0000703002B0CD0FB680733FB60FB6823F052
:103000000703FB60BA68FB68D31A1F4A1344BB600E
:10301000FB687B601D4A7B6813601C4B00225A6072
:103020007B68BA681344FB600822FB689B1AFB604C
:10303000FB6823F00703FB60FB68154A1360144B21
:103040001B6800225A60124B1B6800221A607B68C2
:103050003B603B68FA68D21A3B685A600C4B1A68AE
:103060003B681A603B685B680A4A13603B685B68B0
:10307000094A1360094B4FF000421A6000BF143731
:10308000BD4680BC704700BFF0040020F010002057
:10309000F810002000110020FC1000200411002076
:1030A00080B485B000AF7860274BFB6002E0FB681E
:1030B0001B68FB60FB681B687A689A42F7D8FB685C
:1030C000BB60FB685B68BA6813447A689A4208D1AF
:1030D000FB685A687B685B681A44FB685A60FB6847
:1030E0007B607B68BB607B685B68BA681A44FB687E
:1030F0001B689A4218D1FB681A68144B1B689A42E5
:103100000DD07B685A68FB681B685B681A447B6853
:103110005A60FB681B681A687B681A6008E00B4BF2
:103120001A687B681A6003E0FB681A687B681A609B
:10313000FA687B689A4202D0FB687A681A6000BF1E
:103140001437BD4680BC7047F0100020F8100020F6
:103150000EB46FF0004100B59CB01DAB029006901C
:10316000079104910848094953F8042B0591006818
:1031700002A9019300F0F2F90022029B1A701CB020
:103180005DF804EB03B070475C0000200802FFFF0D
:1031900003460244934200D1704703F8011BF9E74C
:1031A000294B70B51B68044683424BD0C36943B1B9
:1031B000DB68002B44D1E369196811B1204600F0A7
:1031C0007FF8616911B1204600F07AF8E16911B128
:1031D000204600F075F8216B11B1204600F070F820
:1031E000616B11B1204600F06BF8A16B11B1204664
:1031F00000F066F8A16C11B1204600F061F8616C36
:1032000011B1204600F05CF8E16A11B1204600F0EF
:1032100057F8236AB3B12046BDE8704018474959B2
:1032200041B90435E369802DD968F8D1204600F012
:1032300047F8C0E70E68204600F042F83146EFE755
:103240000025EFE770BD00BF5C000020014B18684F
:10325000704700BF5C00002070B500260C4D0D4C7F
:10326000641BA410A64209D100F07AFC00260A4D86
:103270000A4C641BA410A64205D170BD55F8043B4E
:1032800098470136EEE755F8043B98470136F2E7D8
:10329000503C0008503C0008503C0008543C0008DA
:1032A000704770470A44914200F1FF3300D17047E4
:1032B00010B511F8014B914203F8014FF9D110BD3F
:1032C00038B50546002940D051F8043C0C1F002BAE
:1032D000B8BFE41800F0DCF81C4A136833B9636027
:1032E00014602846BDE8384000F0D8B8A34208D999
:1032F000206821188B4201BF19685B68091821609A
:10330000EDE71A465B680BB1A342FAD91168501871
:10331000A0420BD120680144501883421160E0D1D3
:1033200018685B68084410605360DAE702D90C2320
:103330002B60D6E7206821188B4201BF19685B68B3
:103340000918216063605460CBE738BD4812002043
:1033500070B50E4E0C463168054611B900F0AAFB57
:1033600030602146284600F0A5FB431C0AD0C41C4F
:1033700024F00304A04207D0211A284600F09AFB4B
:10338000013001D14FF0FF34204670BD4C120020B7
:103390002DE9F843CD1C25F0030508350C2D38BF69
:1033A0000C25002D074601DBA94205D90C23002678
:1033B0003B603046BDE8F883DFF8D08000F068F865
:1033C000D8F800301C465CBB29463846FFF7C0FFE2
:1033D000431C044655D1D8F800402646002E45D15E
:1033E000002C48D023683146384604EB030900F02E
:1033F00061FB81453FD1216838466D1A2946FFF7A8
:10340000A7FF013037D023682B442360D8F8003061
:10341000002B38D05A68A2422BD100225A600FE00C
:103420002268521B1FD40B2A17D96119A3422560A9
:1034300018BF5960636808BFC8F8001062514B603C
:10344000384604F10B0600F029F826F00706231D84
:10345000F21AAED09B1BA350ABE7A3426268DDD14A
:10346000C8F80020ECE723466468ACE73446766889
:10347000B4E71346CCE70C2338463B6000F00EF867
:1034800097E72560DCE75B60FFDE00BF48120020A5
:103490000148FFF705BF00BF441200200148FFF7B5
:1034A00000BF00BF441200202DE9F0471F468E6880
:1034B0008246BE420C4690460B682CD88A8912F48C
:1034C000906F26D06569096905EB4505A3EB0109F5
:1034D00005EBD5757B1C4B446D109D4238BF1D46D6
:1034E000530527D52946FFF753FF064660B34A46E2
:1034F0002169FFF7D7FEA38923F4906343F080038B
:10350000A38126614E4426603E466561A5EB090510
:10351000A560BE4200D93E4632464146206800F0D2
:10352000AFFA0020A3689B1BA36023683344236089
:10353000BDE8F0872A4600F0DBFA06460028E0D115
:1035400050462169FFF7BCFE0C23CAF80030A3895E
:103550004FF0FF3043F04003A381E9E72DE9F04F3E
:1035600098468B8907461B060D4614469DB00ED51E
:103570000B6963B94021FFF70BFF2860286120B970
:103580000C233B604FF0FF30D0E040236B61002301
:10359000099320238DF8293030234FF00109CDF80D
:1035A0000C80DFF8A0818DF82A3023469A4613F864
:1035B000012B0AB1252AF9D1BAEB040B0BD05B46DB
:1035C000224629463846FFF76FFF013000F0A980F8
:1035D000099A5A4409929AF80030002B00F0A18011
:1035E00000234FF0FF32CDE905230AF1010A0493CD
:1035F00007938DF853301A935446052214F8011B93
:10360000504800F067FA049AD8B9D00644BF202386
:103610008DF85330110744BF2B238DF853309AF89F
:1036200000302A2B15D0544600204FF00A0C079A80
:10363000214611F8013B303B092B4DD9B0B107921F
:1036400014E0A0EB080309FA03F31343A246049322
:10365000D2E7039B191D1B680391002BBBBF5B4284
:1036600042F0020207930793B8BF049223782E2BEF
:103670000CD163782A2B34D1039B02341A1D1B68AA
:103680000392002BB8BF4FF0FF330593DFF8B8A0CB
:1036900003225046217800F01DFA38B14022049BE5
:1036A000A0EB0A00824013430134049314F8011B79
:1036B000062226488DF8281000F00CFA002838D091
:1036C000234B1BBB039B073323F0070308330393F0
:1036D000099B3344099368E70C4601200CFB023236
:1036E000A6E700234FF00A0C194601340593204643
:1036F00010F8012B303A092A03D9002BC6D00591C6
:10370000C4E7044601230CFB0121F0E703AB00935F
:103710002A4638460F4B04A9AFF30080421C0646E8
:10372000D6D1AB895B063FF52DAF09981DB0BDE83A
:10373000F08F03AB00932A463846064B04A900F0ED
:103740007DF8EBE71A3C0008203C0008243C000808
:1037500000000000A93400082DE9F04716469946FC
:103760008A680B6907469342B8BF1346336091F8E5
:1037700043200C46DDF820800AB101333360236812
:10378000990642BF336802333360256815F0060599
:1037900006D104F1190AE36832689B1AAB422BDCAC
:1037A00094F84320131E226818BF0123920630D4D8
:1037B0004946384604F14302C047013023D023680C
:1037C000226903F00603042B14BF002533684FF071
:1037D000000608BFE56804F11A0408BFED1A54F8A2
:1037E000123C08BF25EAE5759342C4BF9B1AED1849
:1037F000B5421AD1002008E0012352464946384616
:10380000C047013003D14FF0FF30BDE8F0870135EC
:10381000C1E73020E11881F843005A1C94F84510A4
:103820002244023382F84310C2E70123224649466C
:103830003846C0470130E6D00136D9E72DE9FF47C9
:103840000F7E9146782F80460C469A460C9D01F1DA
:10385000430207D8622F0AD8002F00F0D580582FD6
:1038600000F0C18004F1420584F842703AE0A7F10B
:103870006303152BF6D801A151F823F0D5380008C1
:10388000E938000865380008653800086538000820
:1038900065380008E9380008653800086538000810
:1038A0006538000865380008EF3900081539000848
:1038B000A93900086538000865380008113A000881
:1038C00065380008153900086538000865380008B3
:1038D000B13900082B681A1D1B682A6004F14205E3
:1038E00084F842300123A0E020682B68070603F12A
:1038F0000401296001D51E6803E04606FBD5B3F933
:103900000060002E03DA2D23764284F843300A2328
:10391000594812E02B682068191D2960050601D559
:103920001E6802E04106FBD51E886F2F0CBF0823DE
:103930000A235148002184F843106568002DA8BF70
:103940002168A560A4BF21F0040121600EB9002DFB
:103950004BD01546B6FBF3F103FB1167C75D05F8C5
:10396000017D3746BB420E46F4D9082B0BD12368A4
:10397000DE0708D5236961689942DEBF302305F868
:10398000013C05F1FF35521B22614B462146404662
:10399000CDF800A003AAFFF7DFFE01304AD14FF0B7
:1039A000FF3004B0BDE8F087236843F020032360B4
:1039B0007827324884F84570236829681F0651F833
:1039C000046B02D45F0648BFB6B2DF0748BF43F0BE
:1039D0002003296048BF23601EB9236823F0200319
:1039E00023601023A6E72448E4E71546BDE72B68CB
:1039F0002668181D6169286035061B6801D51960A5
:103A000002E07006FBD51980002315462361BCE750
:103A10002B6800211A1D2A601D686268284600F084
:103A200059F808B1401B606063682361002384F883
:103A30004330AAE72A46494640462369D047013029
:103A4000ADD023689B0713D4E068039B9842B8BFAE
:103A50001846A6E70123324649464046D047013082
:103A60009DD00135E36803995B1AAB42F2DCEBE7CA
:103A7000002504F11906F5E72B3C00083C3C000842
:103A8000884210B501EB020402D98442234607D8CC
:103A9000431EA14208D011F8012B03F8012FF8E7CB
:103AA000014602448A4200D110BD13F8014D02F8CC
:103AB000014DF7E738B50023054D044608462B6055
:103AC000FCF7BCFD431C02D12B6803B1236038BD59
:103AD00040120020034610B5C9B202449342184672
:103AE00001D1002003E0047801338C42F6D110BDEF
:103AF0002DE9F041804614460E4621B91146BDE835
:103B0000F041FFF745BC2AB9FFF7DAFB2546284606
:103B1000BDE8F08100F01BF88442074602D8B4EB00
:103B2000500F12D821464046FFF732FC05460028C8
:103B3000EDD0BC422246314628BF3A46FFF7B2FBE1
:103B400031464046FFF7BCFBE1E73546DFE751F879
:103B5000043C181F002BBCBF0B58C0187047000056
:103B6000F8B500BFF8BC08BC9E467047F8B500BF6A
:083B7000F8BC08BC9E4670473A
:103B78006C6564466C61736800000000783B00085F
:103B88005903000800000000000000008000000049
:103B9800000000000000000073656E6454657874CE
:103BA80000000000A03B000879030008FDFF0000AA
:103BB800000000008000000000000000000000007D
:103BC80057656C636F6D6520746F206C616221208E
:103BD800436F756E74696E67203D2025640D0A0079
:103BE80049444C45000000000000000000000000AF
:103BF800010203040607080900000000010203048B
:103C080002030405060708090A0B0C0D0E0F101015
:103C18000102232D302B2000686C4C006566674537
:103C2800464700303132333435363738394142432C
:103C380044454600303132333435363738396162DD
:083C48006364656600000000E2
:043C50003501000832
:043C54001101000852
:103C58000024F4001000000001000000AAAAAAAA8B
:103C6800000000000811002070110020D811002069
:103C7800000000000000000000000000000000003C
:103C8800000000000000000000000000000000002C
:103C9800000000000000000000000000000000001C
:103CA80000000000000000000000000010000020DC
:04000005080006B534
:00000001FF
